{
	"GovFactory.sol": {
		"GovFactory": {
			"abi": [
				{
					"anonymous": false,
					"inputs": [
						{
							"indexed": false,
							"internalType": "address",
							"name": "",
							"type": "address"
						},
						{
							"indexed": false,
							"internalType": "address",
							"name": "",
							"type": "address"
						}
					],
					"name": "SpaceCreated",
					"type": "event"
				},
				{
					"inputs": [
						{
							"internalType": "address",
							"name": "_tokenaddr",
							"type": "address"
						},
						{
							"internalType": "bool",
							"name": "_snap",
							"type": "bool"
						}
					],
					"name": "createSpace",
					"outputs": [
						{
							"internalType": "address",
							"name": "space",
							"type": "address"
						}
					],
					"stateMutability": "nonpayable",
					"type": "function"
				},
				{
					"inputs": [],
					"name": "numdeployed",
					"outputs": [
						{
							"internalType": "uint256",
							"name": "",
							"type": "uint256"
						}
					],
					"stateMutability": "view",
					"type": "function"
				}
			],
			"devdoc": {
				"kind": "dev",
				"methods": {},
				"version": 1
			},
			"evm": {
				"assembly": "    /* \"GovFactory.sol\":142:985  contract GovFactory{... */\n  mstore(0x40, 0x80)\n    /* \"GovFactory.sol\":228:229  0 */\n  0x00\n    /* \"GovFactory.sol\":209:229  uint256 deployed = 0 */\n  0x01\n  sstore\n    /* \"GovFactory.sol\":142:985  contract GovFactory{... */\n  callvalue\n  dup1\n  iszero\n  tag_1\n  jumpi\n  0x00\n  dup1\n  revert\ntag_1:\n  pop\n  dataSize(sub_0)\n  dup1\n  dataOffset(sub_0)\n  0x00\n  codecopy\n  0x00\n  return\nstop\n\nsub_0: assembly {\n        /* \"GovFactory.sol\":142:985  contract GovFactory{... */\n      mstore(0x40, 0x80)\n      callvalue\n      dup1\n      iszero\n      tag_1\n      jumpi\n      0x00\n      dup1\n      revert\n    tag_1:\n      pop\n      jumpi(tag_2, lt(calldatasize, 0x04))\n      shr(0xe0, calldataload(0x00))\n      dup1\n      0x990a7fb8\n      eq\n      tag_3\n      jumpi\n      dup1\n      0xb79962a3\n      eq\n      tag_4\n      jumpi\n    tag_2:\n      0x00\n      dup1\n      revert\n        /* \"GovFactory.sol\":910:982  function numdeployed() external view returns (uint256){return deployed;} */\n    tag_3:\n      tag_5\n      tag_6\n      jump\t// in\n    tag_5:\n      mload(0x40)\n      tag_7\n      swap2\n      swap1\n      tag_8\n      jump\t// in\n    tag_7:\n      mload(0x40)\n      dup1\n      swap2\n      sub\n      swap1\n      return\n        /* \"GovFactory.sol\":279:904  function createSpace(address _tokenaddr ,bool _snap) public returns(address space){... */\n    tag_4:\n      tag_9\n      0x04\n      dup1\n      calldatasize\n      sub\n      dup2\n      add\n      swap1\n      tag_10\n      swap2\n      swap1\n      tag_11\n      jump\t// in\n    tag_10:\n      tag_12\n      jump\t// in\n    tag_9:\n      mload(0x40)\n      tag_13\n      swap2\n      swap1\n      tag_14\n      jump\t// in\n    tag_13:\n      mload(0x40)\n      dup1\n      swap2\n      sub\n      swap1\n      return\n        /* \"GovFactory.sol\":910:982  function numdeployed() external view returns (uint256){return deployed;} */\n    tag_6:\n        /* \"GovFactory.sol\":956:963  uint256 */\n      0x00\n        /* \"GovFactory.sol\":972:980  deployed */\n      sload(0x01)\n        /* \"GovFactory.sol\":965:980  return deployed */\n      swap1\n      pop\n        /* \"GovFactory.sol\":910:982  function numdeployed() external view returns (uint256){return deployed;} */\n      swap1\n      jump\t// out\n        /* \"GovFactory.sol\":279:904  function createSpace(address _tokenaddr ,bool _snap) public returns(address space){... */\n    tag_12:\n        /* \"GovFactory.sol\":347:360  address space */\n      0x00\n        /* \"GovFactory.sol\":407:410  0x0 */\n      dup1\n        /* \"GovFactory.sol\":379:411  spaces[_tokenaddr]==address(0x0) */\n      0xffffffffffffffffffffffffffffffffffffffff\n      and\n        /* \"GovFactory.sol\":379:385  spaces */\n      0x00\n        /* \"GovFactory.sol\":379:397  spaces[_tokenaddr] */\n      dup1\n        /* \"GovFactory.sol\":386:396  _tokenaddr */\n      dup6\n        /* \"GovFactory.sol\":379:397  spaces[_tokenaddr] */\n      0xffffffffffffffffffffffffffffffffffffffff\n      and\n      0xffffffffffffffffffffffffffffffffffffffff\n      and\n      dup2\n      mstore\n      0x20\n      add\n      swap1\n      dup2\n      mstore\n      0x20\n      add\n      0x00\n      keccak256\n      0x00\n      swap1\n      sload\n      swap1\n      0x0100\n      exp\n      swap1\n      div\n      0xffffffffffffffffffffffffffffffffffffffff\n      and\n        /* \"GovFactory.sol\":379:411  spaces[_tokenaddr]==address(0x0) */\n      0xffffffffffffffffffffffffffffffffffffffff\n      and\n      eq\n        /* \"GovFactory.sol\":371:445  require(spaces[_tokenaddr]==address(0x0),\"Space already exists for token\") */\n      tag_17\n      jumpi\n      mload(0x40)\n      0x08c379a000000000000000000000000000000000000000000000000000000000\n      dup2\n      mstore\n      0x04\n      add\n      tag_18\n      swap1\n      tag_19\n      jump\t// in\n    tag_18:\n      mload(0x40)\n      dup1\n      swap2\n      sub\n      swap1\n      revert\n    tag_17:\n        /* \"GovFactory.sol\":465:486  bytes memory bytecode */\n      0x00\n        /* \"GovFactory.sol\":489:514  type(PYEGov).creationCode */\n      mload(0x40)\n      dup1\n      0x20\n      add\n      tag_20\n      swap1\n      tag_21\n      jump\t// in\n    tag_20:\n      0x20\n      dup3\n      add\n      dup2\n      sub\n      dup3\n      mstore\n      not(0x1f)\n      0x1f\n      dup3\n      add\n      and\n      0x40\n      mstore\n      pop\n        /* \"GovFactory.sol\":465:514  bytes memory bytecode = type(PYEGov).creationCode */\n      swap1\n      pop\n        /* \"GovFactory.sol\":533:545  bytes32 salt */\n      0x00\n        /* \"GovFactory.sol\":575:585  _tokenaddr */\n      dup5\n        /* \"GovFactory.sol\":558:586  abi.encodePacked(_tokenaddr) */\n      add(0x20, mload(0x40))\n      tag_22\n      swap2\n      swap1\n      tag_23\n      jump\t// in\n    tag_22:\n      mload(0x40)\n      0x20\n      dup2\n      dup4\n      sub\n      sub\n      dup2\n      mstore\n      swap1\n      0x40\n      mstore\n        /* \"GovFactory.sol\":548:587  keccak256(abi.encodePacked(_tokenaddr)) */\n      dup1\n      mload\n      swap1\n      0x20\n      add\n      keccak256\n        /* \"GovFactory.sol\":533:587  bytes32 salt = keccak256(abi.encodePacked(_tokenaddr)) */\n      swap1\n      pop\n        /* \"GovFactory.sol\":694:698  salt */\n      dup1\n        /* \"GovFactory.sol\":683:691  bytecode */\n      dup3\n        /* \"GovFactory.sol\":677:692  mload(bytecode) */\n      mload\n        /* \"GovFactory.sol\":672:674  32 */\n      0x20\n        /* \"GovFactory.sol\":662:670  bytecode */\n      dup5\n        /* \"GovFactory.sol\":658:675  add(bytecode, 32) */\n      add\n        /* \"GovFactory.sol\":655:656  0 */\n      0x00\n        /* \"GovFactory.sol\":647:699  create2(0, add(bytecode, 32), mload(bytecode), salt) */\n      create2\n        /* \"GovFactory.sol\":638:699  space := create2(0, add(bytecode, 32), mload(bytecode), salt) */\n      swap3\n      pop\n        /* \"GovFactory.sol\":757:762  space */\n      dup3\n        /* \"GovFactory.sol\":736:742  spaces */\n      0x00\n        /* \"GovFactory.sol\":736:754  spaces[_tokenaddr] */\n      dup1\n        /* \"GovFactory.sol\":743:753  _tokenaddr */\n      dup8\n        /* \"GovFactory.sol\":736:754  spaces[_tokenaddr] */\n      0xffffffffffffffffffffffffffffffffffffffff\n      and\n      0xffffffffffffffffffffffffffffffffffffffff\n      and\n      dup2\n      mstore\n      0x20\n      add\n      swap1\n      dup2\n      mstore\n      0x20\n      add\n      0x00\n      keccak256\n      0x00\n        /* \"GovFactory.sol\":736:762  spaces[_tokenaddr] = space */\n      0x0100\n      exp\n      dup2\n      sload\n      dup2\n      0xffffffffffffffffffffffffffffffffffffffff\n      mul\n      not\n      and\n      swap1\n      dup4\n      0xffffffffffffffffffffffffffffffffffffffff\n      and\n      mul\n      or\n      swap1\n      sstore\n      pop\n        /* \"GovFactory.sol\":791:796  space */\n      dup3\n        /* \"GovFactory.sol\":781:802  IGovernor(space).init */\n      0xffffffffffffffffffffffffffffffffffffffff\n      and\n      0xcb9fa366\n        /* \"GovFactory.sol\":803:813  _tokenaddr */\n      dup7\n        /* \"GovFactory.sol\":815:820  _snap */\n      dup7\n        /* \"GovFactory.sol\":781:821  IGovernor(space).init(_tokenaddr, _snap) */\n      mload(0x40)\n      dup4\n      0xffffffff\n      and\n      0xe0\n      shl\n      dup2\n      mstore\n      0x04\n      add\n      tag_24\n      swap3\n      swap2\n      swap1\n      tag_25\n      jump\t// in\n    tag_24:\n      0x00\n      mload(0x40)\n      dup1\n      dup4\n      sub\n      dup2\n      0x00\n      dup8\n      dup1\n      extcodesize\n      iszero\n      dup1\n      iszero\n      tag_26\n      jumpi\n      0x00\n      dup1\n      revert\n    tag_26:\n      pop\n      gas\n      call\n      iszero\n      dup1\n      iszero\n      tag_28\n      jumpi\n      returndatasize\n      0x00\n      dup1\n      returndatacopy\n      revert(0x00, returndatasize)\n    tag_28:\n      pop\n      pop\n      pop\n      pop\n        /* \"GovFactory.sol\":845:876  SpaceCreated(_tokenaddr, space) */\n      0x133cf1d1c688fe9ff341b3c73812a4e88008f45ea55669a9f7bf6b316a9ed7c1\n        /* \"GovFactory.sol\":858:868  _tokenaddr */\n      dup6\n        /* \"GovFactory.sol\":870:875  space */\n      dup5\n        /* \"GovFactory.sol\":845:876  SpaceCreated(_tokenaddr, space) */\n      mload(0x40)\n      tag_29\n      swap3\n      swap2\n      swap1\n      tag_30\n      jump\t// in\n    tag_29:\n      mload(0x40)\n      dup1\n      swap2\n      sub\n      swap1\n      log1\n        /* \"GovFactory.sol\":887:895  deployed */\n      0x01\n      0x00\n        /* \"GovFactory.sol\":887:897  deployed++ */\n      dup2\n      sload\n      dup1\n      swap3\n      swap2\n      swap1\n      tag_31\n      swap1\n      tag_32\n      jump\t// in\n    tag_31:\n      swap2\n      swap1\n      pop\n      sstore\n      pop\n        /* \"GovFactory.sol\":361:904  {... */\n      pop\n      pop\n        /* \"GovFactory.sol\":279:904  function createSpace(address _tokenaddr ,bool _snap) public returns(address space){... */\n      swap3\n      swap2\n      pop\n      pop\n      jump\t// out\n    tag_21:\n      dataSize(sub_0)\n      dup1\n      dataOffset(sub_0)\n      dup4\n      codecopy\n      add\n      swap1\n      jump\t// out\n        /* \"#utility.yul\":7:84   */\n    tag_33:\n        /* \"#utility.yul\":44:51   */\n      0x00\n        /* \"#utility.yul\":73:78   */\n      dup2\n        /* \"#utility.yul\":62:78   */\n      swap1\n      pop\n        /* \"#utility.yul\":7:84   */\n      swap2\n      swap1\n      pop\n      jump\t// out\n        /* \"#utility.yul\":90:208   */\n    tag_34:\n        /* \"#utility.yul\":177:201   */\n      tag_58\n        /* \"#utility.yul\":195:200   */\n      dup2\n        /* \"#utility.yul\":177:201   */\n      tag_33\n      jump\t// in\n    tag_58:\n        /* \"#utility.yul\":172:175   */\n      dup3\n        /* \"#utility.yul\":165:202   */\n      mstore\n        /* \"#utility.yul\":90:208   */\n      pop\n      pop\n      jump\t// out\n        /* \"#utility.yul\":214:436   */\n    tag_8:\n        /* \"#utility.yul\":307:311   */\n      0x00\n        /* \"#utility.yul\":345:347   */\n      0x20\n        /* \"#utility.yul\":334:343   */\n      dup3\n        /* \"#utility.yul\":330:348   */\n      add\n        /* \"#utility.yul\":322:348   */\n      swap1\n      pop\n        /* \"#utility.yul\":358:429   */\n      tag_60\n        /* \"#utility.yul\":426:427   */\n      0x00\n        /* \"#utility.yul\":415:424   */\n      dup4\n        /* \"#utility.yul\":411:428   */\n      add\n        /* \"#utility.yul\":402:408   */\n      dup5\n        /* \"#utility.yul\":358:429   */\n      tag_34\n      jump\t// in\n    tag_60:\n        /* \"#utility.yul\":214:436   */\n      swap3\n      swap2\n      pop\n      pop\n      jump\t// out\n        /* \"#utility.yul\":523:640   */\n    tag_36:\n        /* \"#utility.yul\":632:633   */\n      0x00\n        /* \"#utility.yul\":629:630   */\n      dup1\n        /* \"#utility.yul\":622:634   */\n      revert\n        /* \"#utility.yul\":769:895   */\n    tag_38:\n        /* \"#utility.yul\":806:813   */\n      0x00\n        /* \"#utility.yul\":846:888   */\n      0xffffffffffffffffffffffffffffffffffffffff\n        /* \"#utility.yul\":839:844   */\n      dup3\n        /* \"#utility.yul\":835:889   */\n      and\n        /* \"#utility.yul\":824:889   */\n      swap1\n      pop\n        /* \"#utility.yul\":769:895   */\n      swap2\n      swap1\n      pop\n      jump\t// out\n        /* \"#utility.yul\":901:997   */\n    tag_39:\n        /* \"#utility.yul\":938:945   */\n      0x00\n        /* \"#utility.yul\":967:991   */\n      tag_66\n        /* \"#utility.yul\":985:990   */\n      dup3\n        /* \"#utility.yul\":967:991   */\n      tag_38\n      jump\t// in\n    tag_66:\n        /* \"#utility.yul\":956:991   */\n      swap1\n      pop\n        /* \"#utility.yul\":901:997   */\n      swap2\n      swap1\n      pop\n      jump\t// out\n        /* \"#utility.yul\":1003:1125   */\n    tag_40:\n        /* \"#utility.yul\":1076:1100   */\n      tag_68\n        /* \"#utility.yul\":1094:1099   */\n      dup2\n        /* \"#utility.yul\":1076:1100   */\n      tag_39\n      jump\t// in\n    tag_68:\n        /* \"#utility.yul\":1069:1074   */\n      dup2\n        /* \"#utility.yul\":1066:1101   */\n      eq\n        /* \"#utility.yul\":1056:1119   */\n      tag_69\n      jumpi\n        /* \"#utility.yul\":1115:1116   */\n      0x00\n        /* \"#utility.yul\":1112:1113   */\n      dup1\n        /* \"#utility.yul\":1105:1117   */\n      revert\n        /* \"#utility.yul\":1056:1119   */\n    tag_69:\n        /* \"#utility.yul\":1003:1125   */\n      pop\n      jump\t// out\n        /* \"#utility.yul\":1131:1270   */\n    tag_41:\n        /* \"#utility.yul\":1177:1182   */\n      0x00\n        /* \"#utility.yul\":1215:1221   */\n      dup2\n        /* \"#utility.yul\":1202:1222   */\n      calldataload\n        /* \"#utility.yul\":1193:1222   */\n      swap1\n      pop\n        /* \"#utility.yul\":1231:1264   */\n      tag_71\n        /* \"#utility.yul\":1258:1263   */\n      dup2\n        /* \"#utility.yul\":1231:1264   */\n      tag_40\n      jump\t// in\n    tag_71:\n        /* \"#utility.yul\":1131:1270   */\n      swap3\n      swap2\n      pop\n      pop\n      jump\t// out\n        /* \"#utility.yul\":1276:1366   */\n    tag_42:\n        /* \"#utility.yul\":1310:1317   */\n      0x00\n        /* \"#utility.yul\":1353:1358   */\n      dup2\n        /* \"#utility.yul\":1346:1359   */\n      iszero\n        /* \"#utility.yul\":1339:1360   */\n      iszero\n        /* \"#utility.yul\":1328:1360   */\n      swap1\n      pop\n        /* \"#utility.yul\":1276:1366   */\n      swap2\n      swap1\n      pop\n      jump\t// out\n        /* \"#utility.yul\":1372:1488   */\n    tag_43:\n        /* \"#utility.yul\":1442:1463   */\n      tag_74\n        /* \"#utility.yul\":1457:1462   */\n      dup2\n        /* \"#utility.yul\":1442:1463   */\n      tag_42\n      jump\t// in\n    tag_74:\n        /* \"#utility.yul\":1435:1440   */\n      dup2\n        /* \"#utility.yul\":1432:1464   */\n      eq\n        /* \"#utility.yul\":1422:1482   */\n      tag_75\n      jumpi\n        /* \"#utility.yul\":1478:1479   */\n      0x00\n        /* \"#utility.yul\":1475:1476   */\n      dup1\n        /* \"#utility.yul\":1468:1480   */\n      revert\n        /* \"#utility.yul\":1422:1482   */\n    tag_75:\n        /* \"#utility.yul\":1372:1488   */\n      pop\n      jump\t// out\n        /* \"#utility.yul\":1494:1627   */\n    tag_44:\n        /* \"#utility.yul\":1537:1542   */\n      0x00\n        /* \"#utility.yul\":1575:1581   */\n      dup2\n        /* \"#utility.yul\":1562:1582   */\n      calldataload\n        /* \"#utility.yul\":1553:1582   */\n      swap1\n      pop\n        /* \"#utility.yul\":1591:1621   */\n      tag_77\n        /* \"#utility.yul\":1615:1620   */\n      dup2\n        /* \"#utility.yul\":1591:1621   */\n      tag_43\n      jump\t// in\n    tag_77:\n        /* \"#utility.yul\":1494:1627   */\n      swap3\n      swap2\n      pop\n      pop\n      jump\t// out\n        /* \"#utility.yul\":1633:2101   */\n    tag_11:\n        /* \"#utility.yul\":1698:1704   */\n      0x00\n        /* \"#utility.yul\":1706:1712   */\n      dup1\n        /* \"#utility.yul\":1755:1757   */\n      0x40\n        /* \"#utility.yul\":1743:1752   */\n      dup4\n        /* \"#utility.yul\":1734:1741   */\n      dup6\n        /* \"#utility.yul\":1730:1753   */\n      sub\n        /* \"#utility.yul\":1726:1758   */\n      slt\n        /* \"#utility.yul\":1723:1842   */\n      iszero\n      tag_79\n      jumpi\n        /* \"#utility.yul\":1761:1840   */\n      tag_80\n      tag_36\n      jump\t// in\n    tag_80:\n        /* \"#utility.yul\":1723:1842   */\n    tag_79:\n        /* \"#utility.yul\":1881:1882   */\n      0x00\n        /* \"#utility.yul\":1906:1959   */\n      tag_81\n        /* \"#utility.yul\":1951:1958   */\n      dup6\n        /* \"#utility.yul\":1942:1948   */\n      dup3\n        /* \"#utility.yul\":1931:1940   */\n      dup7\n        /* \"#utility.yul\":1927:1949   */\n      add\n        /* \"#utility.yul\":1906:1959   */\n      tag_41\n      jump\t// in\n    tag_81:\n        /* \"#utility.yul\":1896:1959   */\n      swap3\n      pop\n        /* \"#utility.yul\":1852:1969   */\n      pop\n        /* \"#utility.yul\":2008:2010   */\n      0x20\n        /* \"#utility.yul\":2034:2084   */\n      tag_82\n        /* \"#utility.yul\":2076:2083   */\n      dup6\n        /* \"#utility.yul\":2067:2073   */\n      dup3\n        /* \"#utility.yul\":2056:2065   */\n      dup7\n        /* \"#utility.yul\":2052:2074   */\n      add\n        /* \"#utility.yul\":2034:2084   */\n      tag_44\n      jump\t// in\n    tag_82:\n        /* \"#utility.yul\":2024:2084   */\n      swap2\n      pop\n        /* \"#utility.yul\":1979:2094   */\n      pop\n        /* \"#utility.yul\":1633:2101   */\n      swap3\n      pop\n      swap3\n      swap1\n      pop\n      jump\t// out\n        /* \"#utility.yul\":2107:2225   */\n    tag_45:\n        /* \"#utility.yul\":2194:2218   */\n      tag_84\n        /* \"#utility.yul\":2212:2217   */\n      dup2\n        /* \"#utility.yul\":2194:2218   */\n      tag_39\n      jump\t// in\n    tag_84:\n        /* \"#utility.yul\":2189:2192   */\n      dup3\n        /* \"#utility.yul\":2182:2219   */\n      mstore\n        /* \"#utility.yul\":2107:2225   */\n      pop\n      pop\n      jump\t// out\n        /* \"#utility.yul\":2231:2453   */\n    tag_14:\n        /* \"#utility.yul\":2324:2328   */\n      0x00\n        /* \"#utility.yul\":2362:2364   */\n      0x20\n        /* \"#utility.yul\":2351:2360   */\n      dup3\n        /* \"#utility.yul\":2347:2365   */\n      add\n        /* \"#utility.yul\":2339:2365   */\n      swap1\n      pop\n        /* \"#utility.yul\":2375:2446   */\n      tag_86\n        /* \"#utility.yul\":2443:2444   */\n      0x00\n        /* \"#utility.yul\":2432:2441   */\n      dup4\n        /* \"#utility.yul\":2428:2445   */\n      add\n        /* \"#utility.yul\":2419:2425   */\n      dup5\n        /* \"#utility.yul\":2375:2446   */\n      tag_45\n      jump\t// in\n    tag_86:\n        /* \"#utility.yul\":2231:2453   */\n      swap3\n      swap2\n      pop\n      pop\n      jump\t// out\n        /* \"#utility.yul\":2459:2628   */\n    tag_46:\n        /* \"#utility.yul\":2543:2554   */\n      0x00\n        /* \"#utility.yul\":2577:2583   */\n      dup3\n        /* \"#utility.yul\":2572:2575   */\n      dup3\n        /* \"#utility.yul\":2565:2584   */\n      mstore\n        /* \"#utility.yul\":2617:2621   */\n      0x20\n        /* \"#utility.yul\":2612:2615   */\n      dup3\n        /* \"#utility.yul\":2608:2622   */\n      add\n        /* \"#utility.yul\":2593:2622   */\n      swap1\n      pop\n        /* \"#utility.yul\":2459:2628   */\n      swap3\n      swap2\n      pop\n      pop\n      jump\t// out\n        /* \"#utility.yul\":2634:2814   */\n    tag_47:\n        /* \"#utility.yul\":2774:2806   */\n      0x537061636520616c72656164792065786973747320666f7220746f6b656e0000\n        /* \"#utility.yul\":2770:2771   */\n      0x00\n        /* \"#utility.yul\":2762:2768   */\n      dup3\n        /* \"#utility.yul\":2758:2772   */\n      add\n        /* \"#utility.yul\":2751:2807   */\n      mstore\n        /* \"#utility.yul\":2634:2814   */\n      pop\n      jump\t// out\n        /* \"#utility.yul\":2820:3186   */\n    tag_48:\n        /* \"#utility.yul\":2962:2965   */\n      0x00\n        /* \"#utility.yul\":2983:3050   */\n      tag_90\n        /* \"#utility.yul\":3047:3049   */\n      0x1e\n        /* \"#utility.yul\":3042:3045   */\n      dup4\n        /* \"#utility.yul\":2983:3050   */\n      tag_46\n      jump\t// in\n    tag_90:\n        /* \"#utility.yul\":2976:3050   */\n      swap2\n      pop\n        /* \"#utility.yul\":3059:3152   */\n      tag_91\n        /* \"#utility.yul\":3148:3151   */\n      dup3\n        /* \"#utility.yul\":3059:3152   */\n      tag_47\n      jump\t// in\n    tag_91:\n        /* \"#utility.yul\":3177:3179   */\n      0x20\n        /* \"#utility.yul\":3172:3175   */\n      dup3\n        /* \"#utility.yul\":3168:3180   */\n      add\n        /* \"#utility.yul\":3161:3180   */\n      swap1\n      pop\n        /* \"#utility.yul\":2820:3186   */\n      swap2\n      swap1\n      pop\n      jump\t// out\n        /* \"#utility.yul\":3192:3611   */\n    tag_19:\n        /* \"#utility.yul\":3358:3362   */\n      0x00\n        /* \"#utility.yul\":3396:3398   */\n      0x20\n        /* \"#utility.yul\":3385:3394   */\n      dup3\n        /* \"#utility.yul\":3381:3399   */\n      add\n        /* \"#utility.yul\":3373:3399   */\n      swap1\n      pop\n        /* \"#utility.yul\":3445:3454   */\n      dup2\n        /* \"#utility.yul\":3439:3443   */\n      dup2\n        /* \"#utility.yul\":3435:3455   */\n      sub\n        /* \"#utility.yul\":3431:3432   */\n      0x00\n        /* \"#utility.yul\":3420:3429   */\n      dup4\n        /* \"#utility.yul\":3416:3433   */\n      add\n        /* \"#utility.yul\":3409:3456   */\n      mstore\n        /* \"#utility.yul\":3473:3604   */\n      tag_93\n        /* \"#utility.yul\":3599:3603   */\n      dup2\n        /* \"#utility.yul\":3473:3604   */\n      tag_48\n      jump\t// in\n    tag_93:\n        /* \"#utility.yul\":3465:3604   */\n      swap1\n      pop\n        /* \"#utility.yul\":3192:3611   */\n      swap2\n      swap1\n      pop\n      jump\t// out\n        /* \"#utility.yul\":3617:3711   */\n    tag_49:\n        /* \"#utility.yul\":3650:3658   */\n      0x00\n        /* \"#utility.yul\":3698:3703   */\n      dup2\n        /* \"#utility.yul\":3694:3696   */\n      0x60\n        /* \"#utility.yul\":3690:3704   */\n      shl\n        /* \"#utility.yul\":3669:3704   */\n      swap1\n      pop\n        /* \"#utility.yul\":3617:3711   */\n      swap2\n      swap1\n      pop\n      jump\t// out\n        /* \"#utility.yul\":3717:3811   */\n    tag_50:\n        /* \"#utility.yul\":3756:3763   */\n      0x00\n        /* \"#utility.yul\":3785:3805   */\n      tag_96\n        /* \"#utility.yul\":3799:3804   */\n      dup3\n        /* \"#utility.yul\":3785:3805   */\n      tag_49\n      jump\t// in\n    tag_96:\n        /* \"#utility.yul\":3774:3805   */\n      swap1\n      pop\n        /* \"#utility.yul\":3717:3811   */\n      swap2\n      swap1\n      pop\n      jump\t// out\n        /* \"#utility.yul\":3817:3917   */\n    tag_51:\n        /* \"#utility.yul\":3856:3863   */\n      0x00\n        /* \"#utility.yul\":3885:3911   */\n      tag_98\n        /* \"#utility.yul\":3905:3910   */\n      dup3\n        /* \"#utility.yul\":3885:3911   */\n      tag_50\n      jump\t// in\n    tag_98:\n        /* \"#utility.yul\":3874:3911   */\n      swap1\n      pop\n        /* \"#utility.yul\":3817:3917   */\n      swap2\n      swap1\n      pop\n      jump\t// out\n        /* \"#utility.yul\":3923:4080   */\n    tag_52:\n        /* \"#utility.yul\":4028:4073   */\n      tag_100\n        /* \"#utility.yul\":4048:4072   */\n      tag_101\n        /* \"#utility.yul\":4066:4071   */\n      dup3\n        /* \"#utility.yul\":4048:4072   */\n      tag_39\n      jump\t// in\n    tag_101:\n        /* \"#utility.yul\":4028:4073   */\n      tag_51\n      jump\t// in\n    tag_100:\n        /* \"#utility.yul\":4023:4026   */\n      dup3\n        /* \"#utility.yul\":4016:4074   */\n      mstore\n        /* \"#utility.yul\":3923:4080   */\n      pop\n      pop\n      jump\t// out\n        /* \"#utility.yul\":4086:4342   */\n    tag_23:\n        /* \"#utility.yul\":4198:4201   */\n      0x00\n        /* \"#utility.yul\":4213:4288   */\n      tag_103\n        /* \"#utility.yul\":4284:4287   */\n      dup3\n        /* \"#utility.yul\":4275:4281   */\n      dup5\n        /* \"#utility.yul\":4213:4288   */\n      tag_52\n      jump\t// in\n    tag_103:\n        /* \"#utility.yul\":4313:4315   */\n      0x14\n        /* \"#utility.yul\":4308:4311   */\n      dup3\n        /* \"#utility.yul\":4304:4316   */\n      add\n        /* \"#utility.yul\":4297:4316   */\n      swap2\n      pop\n        /* \"#utility.yul\":4333:4336   */\n      dup2\n        /* \"#utility.yul\":4326:4336   */\n      swap1\n      pop\n        /* \"#utility.yul\":4086:4342   */\n      swap3\n      swap2\n      pop\n      pop\n      jump\t// out\n        /* \"#utility.yul\":4348:4457   */\n    tag_53:\n        /* \"#utility.yul\":4429:4450   */\n      tag_105\n        /* \"#utility.yul\":4444:4449   */\n      dup2\n        /* \"#utility.yul\":4429:4450   */\n      tag_42\n      jump\t// in\n    tag_105:\n        /* \"#utility.yul\":4424:4427   */\n      dup3\n        /* \"#utility.yul\":4417:4451   */\n      mstore\n        /* \"#utility.yul\":4348:4457   */\n      pop\n      pop\n      jump\t// out\n        /* \"#utility.yul\":4463:4783   */\n    tag_25:\n        /* \"#utility.yul\":4578:4582   */\n      0x00\n        /* \"#utility.yul\":4616:4618   */\n      0x40\n        /* \"#utility.yul\":4605:4614   */\n      dup3\n        /* \"#utility.yul\":4601:4619   */\n      add\n        /* \"#utility.yul\":4593:4619   */\n      swap1\n      pop\n        /* \"#utility.yul\":4629:4700   */\n      tag_107\n        /* \"#utility.yul\":4697:4698   */\n      0x00\n        /* \"#utility.yul\":4686:4695   */\n      dup4\n        /* \"#utility.yul\":4682:4699   */\n      add\n        /* \"#utility.yul\":4673:4679   */\n      dup6\n        /* \"#utility.yul\":4629:4700   */\n      tag_45\n      jump\t// in\n    tag_107:\n        /* \"#utility.yul\":4710:4776   */\n      tag_108\n        /* \"#utility.yul\":4772:4774   */\n      0x20\n        /* \"#utility.yul\":4761:4770   */\n      dup4\n        /* \"#utility.yul\":4757:4775   */\n      add\n        /* \"#utility.yul\":4748:4754   */\n      dup5\n        /* \"#utility.yul\":4710:4776   */\n      tag_53\n      jump\t// in\n    tag_108:\n        /* \"#utility.yul\":4463:4783   */\n      swap4\n      swap3\n      pop\n      pop\n      pop\n      jump\t// out\n        /* \"#utility.yul\":4789:5121   */\n    tag_30:\n        /* \"#utility.yul\":4910:4914   */\n      0x00\n        /* \"#utility.yul\":4948:4950   */\n      0x40\n        /* \"#utility.yul\":4937:4946   */\n      dup3\n        /* \"#utility.yul\":4933:4951   */\n      add\n        /* \"#utility.yul\":4925:4951   */\n      swap1\n      pop\n        /* \"#utility.yul\":4961:5032   */\n      tag_110\n        /* \"#utility.yul\":5029:5030   */\n      0x00\n        /* \"#utility.yul\":5018:5027   */\n      dup4\n        /* \"#utility.yul\":5014:5031   */\n      add\n        /* \"#utility.yul\":5005:5011   */\n      dup6\n        /* \"#utility.yul\":4961:5032   */\n      tag_45\n      jump\t// in\n    tag_110:\n        /* \"#utility.yul\":5042:5114   */\n      tag_111\n        /* \"#utility.yul\":5110:5112   */\n      0x20\n        /* \"#utility.yul\":5099:5108   */\n      dup4\n        /* \"#utility.yul\":5095:5113   */\n      add\n        /* \"#utility.yul\":5086:5092   */\n      dup5\n        /* \"#utility.yul\":5042:5114   */\n      tag_45\n      jump\t// in\n    tag_111:\n        /* \"#utility.yul\":4789:5121   */\n      swap4\n      swap3\n      pop\n      pop\n      pop\n      jump\t// out\n        /* \"#utility.yul\":5127:5307   */\n    tag_54:\n        /* \"#utility.yul\":5175:5252   */\n      0x4e487b7100000000000000000000000000000000000000000000000000000000\n        /* \"#utility.yul\":5172:5173   */\n      0x00\n        /* \"#utility.yul\":5165:5253   */\n      mstore\n        /* \"#utility.yul\":5272:5276   */\n      0x11\n        /* \"#utility.yul\":5269:5270   */\n      0x04\n        /* \"#utility.yul\":5262:5277   */\n      mstore\n        /* \"#utility.yul\":5296:5300   */\n      0x24\n        /* \"#utility.yul\":5293:5294   */\n      0x00\n        /* \"#utility.yul\":5286:5301   */\n      revert\n        /* \"#utility.yul\":5313:5546   */\n    tag_32:\n        /* \"#utility.yul\":5352:5355   */\n      0x00\n        /* \"#utility.yul\":5375:5399   */\n      tag_114\n        /* \"#utility.yul\":5393:5398   */\n      dup3\n        /* \"#utility.yul\":5375:5399   */\n      tag_33\n      jump\t// in\n    tag_114:\n        /* \"#utility.yul\":5366:5399   */\n      swap2\n      pop\n        /* \"#utility.yul\":5421:5487   */\n      0xffffffffffffffffffffffffffffffffffffffffffffffffffffffffffffffff\n        /* \"#utility.yul\":5414:5419   */\n      dup3\n        /* \"#utility.yul\":5411:5488   */\n      sub\n        /* \"#utility.yul\":5408:5511   */\n      tag_115\n      jumpi\n        /* \"#utility.yul\":5491:5509   */\n      tag_116\n      tag_54\n      jump\t// in\n    tag_116:\n        /* \"#utility.yul\":5408:5511   */\n    tag_115:\n        /* \"#utility.yul\":5538:5539   */\n      0x01\n        /* \"#utility.yul\":5531:5536   */\n      dup3\n        /* \"#utility.yul\":5527:5540   */\n      add\n        /* \"#utility.yul\":5520:5540   */\n      swap1\n      pop\n        /* \"#utility.yul\":5313:5546   */\n      swap2\n      swap1\n      pop\n      jump\t// out\n    stop\n\n    sub_0: assembly {\n            /* \"Governor.sol\":601:4804  contract PYEGov{... */\n          mstore(0x40, 0x80)\n            /* \"Governor.sol\":1261:1262  0 */\n          0x00\n            /* \"Governor.sol\":1242:1262  uint256 currprop = 0 */\n          0x04\n          sstore\n            /* \"Governor.sol\":601:4804  contract PYEGov{... */\n          callvalue\n          dup1\n          iszero\n          tag_1\n          jumpi\n          0x00\n          dup1\n          revert\n        tag_1:\n          pop\n          dataSize(sub_0)\n          dup1\n          dataOffset(sub_0)\n          0x00\n          codecopy\n          0x00\n          return\n        stop\n\n        sub_0: assembly {\n                /* \"Governor.sol\":601:4804  contract PYEGov{... */\n              mstore(0x40, 0x80)\n              callvalue\n              dup1\n              iszero\n              tag_1\n              jumpi\n              0x00\n              dup1\n              revert\n            tag_1:\n              pop\n              jumpi(tag_2, lt(calldatasize, 0x04))\n              shr(0xe0, calldataload(0x00))\n              dup1\n              0x10e6e06c\n              eq\n              tag_3\n              jumpi\n              dup1\n              0x292636b3\n              eq\n              tag_4\n              jumpi\n              dup1\n              0x3feff76d\n              eq\n              tag_5\n              jumpi\n              dup1\n              0xbbdeab9f\n              eq\n              tag_6\n              jumpi\n              dup1\n              0xcb9fa366\n              eq\n              tag_7\n              jumpi\n            tag_2:\n              0x00\n              dup1\n              revert\n                /* \"Governor.sol\":2078:2787  function vote(bool myvote, uint256 prop) public {... */\n            tag_3:\n              tag_8\n              0x04\n              dup1\n              calldatasize\n              sub\n              dup2\n              add\n              swap1\n              tag_9\n              swap2\n              swap1\n              tag_10\n              jump\t// in\n            tag_9:\n              tag_11\n              jump\t// in\n            tag_8:\n              stop\n                /* \"Governor.sol\":3977:4275  function combineWeight(address del)public{... */\n            tag_4:\n              tag_12\n              0x04\n              dup1\n              calldatasize\n              sub\n              dup2\n              add\n              swap1\n              tag_13\n              swap2\n              swap1\n              tag_14\n              jump\t// in\n            tag_13:\n              tag_15\n              jump\t// in\n            tag_12:\n              stop\n                /* \"Governor.sol\":623:650  address public tokenaddress */\n            tag_5:\n              tag_16\n              tag_17\n              jump\t// in\n            tag_16:\n              mload(0x40)\n              tag_18\n              swap2\n              swap1\n              tag_19\n              jump\t// in\n            tag_18:\n              mload(0x40)\n              dup1\n              swap2\n              sub\n              swap1\n              return\n                /* \"Governor.sol\":2793:3658  function initprop(string memory propmsg, uint256 _endtime) public {... */\n            tag_6:\n              tag_20\n              0x04\n              dup1\n              calldatasize\n              sub\n              dup2\n              add\n              swap1\n              tag_21\n              swap2\n              swap1\n              tag_22\n              jump\t// in\n            tag_21:\n              tag_23\n              jump\t// in\n            tag_20:\n              stop\n                /* \"Governor.sol\":3664:3971  function init(address tokenaddr, bool selsnap)external{... */\n            tag_7:\n              tag_24\n              0x04\n              dup1\n              calldatasize\n              sub\n              dup2\n              add\n              swap1\n              tag_25\n              swap2\n              swap1\n              tag_26\n              jump\t// in\n            tag_25:\n              tag_27\n              jump\t// in\n            tag_24:\n              stop\n                /* \"Governor.sol\":2078:2787  function vote(bool myvote, uint256 prop) public {... */\n            tag_11:\n                /* \"Governor.sol\":2168:2183  block.timestamp */\n              timestamp\n                /* \"Governor.sol\":2145:2151  propID */\n              0x01\n                /* \"Governor.sol\":2145:2157  propID[prop] */\n              0x00\n                /* \"Governor.sol\":2152:2156  prop */\n              dup4\n                /* \"Governor.sol\":2145:2157  propID[prop] */\n              dup2\n              mstore\n              0x20\n              add\n              swap1\n              dup2\n              mstore\n              0x20\n              add\n              0x00\n              keccak256\n                /* \"Governor.sol\":2145:2165  propID[prop].endtime */\n              0x01\n              add\n              sload\n                /* \"Governor.sol\":2145:2183  propID[prop].endtime > block.timestamp */\n              gt\n                /* \"Governor.sol\":2136:2201  require( propID[prop].endtime > block.timestamp, \"Voting ended\" ) */\n              tag_29\n              jumpi\n              mload(0x40)\n              0x08c379a000000000000000000000000000000000000000000000000000000000\n              dup2\n              mstore\n              0x04\n              add\n              tag_30\n              swap1\n              tag_31\n              jump\t// in\n            tag_30:\n              mload(0x40)\n              dup1\n              swap2\n              sub\n              swap1\n              revert\n            tag_29:\n                /* \"Governor.sol\":2262:2266  true */\n              0x01\n                /* \"Governor.sol\":2229:2266  propID[prop].voted[msg.sender]!= true */\n              iszero\n              iszero\n                /* \"Governor.sol\":2229:2235  propID */\n              0x01\n                /* \"Governor.sol\":2229:2241  propID[prop] */\n              0x00\n                /* \"Governor.sol\":2236:2240  prop */\n              dup4\n                /* \"Governor.sol\":2229:2241  propID[prop] */\n              dup2\n              mstore\n              0x20\n              add\n              swap1\n              dup2\n              mstore\n              0x20\n              add\n              0x00\n              keccak256\n                /* \"Governor.sol\":2229:2247  propID[prop].voted */\n              0x05\n              add\n                /* \"Governor.sol\":2229:2259  propID[prop].voted[msg.sender] */\n              0x00\n                /* \"Governor.sol\":2248:2258  msg.sender */\n              caller\n                /* \"Governor.sol\":2229:2259  propID[prop].voted[msg.sender] */\n              0xffffffffffffffffffffffffffffffffffffffff\n              and\n              0xffffffffffffffffffffffffffffffffffffffff\n              and\n              dup2\n              mstore\n              0x20\n              add\n              swap1\n              dup2\n              mstore\n              0x20\n              add\n              0x00\n              keccak256\n              0x00\n              swap1\n              sload\n              swap1\n              0x0100\n              exp\n              swap1\n              div\n              0xff\n              and\n                /* \"Governor.sol\":2229:2266  propID[prop].voted[msg.sender]!= true */\n              iszero\n              iszero\n              sub\n                /* \"Governor.sol\":2220:2284  require( propID[prop].voted[msg.sender]!= true, \"Already voted\") */\n              tag_32\n              jumpi\n              mload(0x40)\n              0x08c379a000000000000000000000000000000000000000000000000000000000\n              dup2\n              mstore\n              0x04\n              add\n              tag_33\n              swap1\n              tag_34\n              jump\t// in\n            tag_33:\n              mload(0x40)\n              dup1\n              swap2\n              sub\n              swap1\n              revert\n            tag_32:\n                /* \"Governor.sol\":2295:2310  getWeight(prop) */\n              tag_35\n                /* \"Governor.sol\":2305:2309  prop */\n              dup2\n                /* \"Governor.sol\":2295:2304  getWeight */\n              tag_36\n                /* \"Governor.sol\":2295:2310  getWeight(prop) */\n              jump\t// in\n            tag_35:\n              pop\n                /* \"Governor.sol\":2324:2330  myvote */\n              dup2\n                /* \"Governor.sol\":2321:2683  if(myvote){... */\n              iszero\n              tag_37\n              jumpi\n                /* \"Governor.sol\":2378:2384  weight */\n              0x02\n                /* \"Governor.sol\":2378:2396  weight[msg.sender] */\n              0x00\n                /* \"Governor.sol\":2385:2395  msg.sender */\n              caller\n                /* \"Governor.sol\":2378:2396  weight[msg.sender] */\n              0xffffffffffffffffffffffffffffffffffffffff\n              and\n              0xffffffffffffffffffffffffffffffffffffffff\n              and\n              dup2\n              mstore\n              0x20\n              add\n              swap1\n              dup2\n              mstore\n              0x20\n              add\n              0x00\n              keccak256\n                /* \"Governor.sol\":2378:2402  weight[msg.sender].votes */\n              0x02\n              add\n              sload\n                /* \"Governor.sol\":2354:2360  propID */\n              0x01\n                /* \"Governor.sol\":2354:2366  propID[prop] */\n              0x00\n                /* \"Governor.sol\":2361:2365  prop */\n              dup4\n                /* \"Governor.sol\":2354:2366  propID[prop] */\n              dup2\n              mstore\n              0x20\n              add\n              swap1\n              dup2\n              mstore\n              0x20\n              add\n              0x00\n              keccak256\n                /* \"Governor.sol\":2354:2375  propID[prop].votesfor */\n              0x03\n              add\n                /* \"Governor.sol\":2354:2402  propID[prop].votesfor = weight[msg.sender].votes */\n              dup2\n              swap1\n              sstore\n              pop\n                /* \"Governor.sol\":2454:2460  weight */\n              0x02\n                /* \"Governor.sol\":2454:2472  weight[msg.sender] */\n              0x00\n                /* \"Governor.sol\":2461:2471  msg.sender */\n              caller\n                /* \"Governor.sol\":2454:2472  weight[msg.sender] */\n              0xffffffffffffffffffffffffffffffffffffffff\n              and\n              0xffffffffffffffffffffffffffffffffffffffff\n              and\n              dup2\n              mstore\n              0x20\n              add\n              swap1\n              dup2\n              mstore\n              0x20\n              add\n              0x00\n              keccak256\n                /* \"Governor.sol\":2454:2478  weight[msg.sender].votes */\n              0x02\n              add\n              sload\n                /* \"Governor.sol\":2425:2431  propID */\n              0x01\n                /* \"Governor.sol\":2425:2437  propID[prop] */\n              0x00\n                /* \"Governor.sol\":2432:2436  prop */\n              dup4\n                /* \"Governor.sol\":2425:2437  propID[prop] */\n              dup2\n              mstore\n              0x20\n              add\n              swap1\n              dup2\n              mstore\n              0x20\n              add\n              0x00\n              keccak256\n                /* \"Governor.sol\":2425:2451  propID[prop].votesreceived */\n              0x02\n              add\n                /* \"Governor.sol\":2425:2478  propID[prop].votesreceived = weight[msg.sender].votes */\n              dup2\n              swap1\n              sstore\n              pop\n                /* \"Governor.sol\":2321:2683  if(myvote){... */\n              jump(tag_38)\n            tag_37:\n                /* \"Governor.sol\":2571:2577  weight */\n              0x02\n                /* \"Governor.sol\":2571:2589  weight[msg.sender] */\n              0x00\n                /* \"Governor.sol\":2578:2588  msg.sender */\n              caller\n                /* \"Governor.sol\":2571:2589  weight[msg.sender] */\n              0xffffffffffffffffffffffffffffffffffffffff\n              and\n              0xffffffffffffffffffffffffffffffffffffffff\n              and\n              dup2\n              mstore\n              0x20\n              add\n              swap1\n              dup2\n              mstore\n              0x20\n              add\n              0x00\n              keccak256\n                /* \"Governor.sol\":2571:2595  weight[msg.sender].votes */\n              0x02\n              add\n              sload\n                /* \"Governor.sol\":2543:2549  propID */\n              0x01\n                /* \"Governor.sol\":2543:2555  propID[prop] */\n              0x00\n                /* \"Governor.sol\":2550:2554  prop */\n              dup4\n                /* \"Governor.sol\":2543:2555  propID[prop] */\n              dup2\n              mstore\n              0x20\n              add\n              swap1\n              dup2\n              mstore\n              0x20\n              add\n              0x00\n              keccak256\n                /* \"Governor.sol\":2543:2568  propID[prop].votesagainst */\n              0x04\n              add\n                /* \"Governor.sol\":2543:2595  propID[prop].votesagainst = weight[msg.sender].votes */\n              dup2\n              swap1\n              sstore\n              pop\n                /* \"Governor.sol\":2639:2645  weight */\n              0x02\n                /* \"Governor.sol\":2639:2657  weight[msg.sender] */\n              0x00\n                /* \"Governor.sol\":2646:2656  msg.sender */\n              caller\n                /* \"Governor.sol\":2639:2657  weight[msg.sender] */\n              0xffffffffffffffffffffffffffffffffffffffff\n              and\n              0xffffffffffffffffffffffffffffffffffffffff\n              and\n              dup2\n              mstore\n              0x20\n              add\n              swap1\n              dup2\n              mstore\n              0x20\n              add\n              0x00\n              keccak256\n                /* \"Governor.sol\":2639:2663  weight[msg.sender].votes */\n              0x02\n              add\n              sload\n                /* \"Governor.sol\":2610:2616  propID */\n              0x01\n                /* \"Governor.sol\":2610:2622  propID[prop] */\n              0x00\n                /* \"Governor.sol\":2617:2621  prop */\n              dup4\n                /* \"Governor.sol\":2610:2622  propID[prop] */\n              dup2\n              mstore\n              0x20\n              add\n              swap1\n              dup2\n              mstore\n              0x20\n              add\n              0x00\n              keccak256\n                /* \"Governor.sol\":2610:2636  propID[prop].votesreceived */\n              0x02\n              add\n                /* \"Governor.sol\":2610:2663  propID[prop].votesreceived = weight[msg.sender].votes */\n              dup2\n              swap1\n              sstore\n              pop\n                /* \"Governor.sol\":2321:2683  if(myvote){... */\n            tag_38:\n                /* \"Governor.sol\":2734:2738  true */\n              0x01\n                /* \"Governor.sol\":2701:2707  propID */\n              dup1\n                /* \"Governor.sol\":2701:2713  propID[prop] */\n              0x00\n                /* \"Governor.sol\":2708:2712  prop */\n              dup4\n                /* \"Governor.sol\":2701:2713  propID[prop] */\n              dup2\n              mstore\n              0x20\n              add\n              swap1\n              dup2\n              mstore\n              0x20\n              add\n              0x00\n              keccak256\n                /* \"Governor.sol\":2701:2719  propID[prop].voted */\n              0x05\n              add\n                /* \"Governor.sol\":2701:2731  propID[prop].voted[msg.sender] */\n              0x00\n                /* \"Governor.sol\":2720:2730  msg.sender */\n              caller\n                /* \"Governor.sol\":2701:2731  propID[prop].voted[msg.sender] */\n              0xffffffffffffffffffffffffffffffffffffffff\n              and\n              0xffffffffffffffffffffffffffffffffffffffff\n              and\n              dup2\n              mstore\n              0x20\n              add\n              swap1\n              dup2\n              mstore\n              0x20\n              add\n              0x00\n              keccak256\n              0x00\n                /* \"Governor.sol\":2701:2738  propID[prop].voted[msg.sender] = true */\n              0x0100\n              exp\n              dup2\n              sload\n              dup2\n              0xff\n              mul\n              not\n              and\n              swap1\n              dup4\n              iszero\n              iszero\n              mul\n              or\n              swap1\n              sstore\n              pop\n                /* \"Governor.sol\":2762:2780  Vote(myvote, prop) */\n              0xbe208d45c58104e0af5db364aff13523029085490c3ab5d3f485c6cd8e9abf0d\n                /* \"Governor.sol\":2767:2773  myvote */\n              dup3\n                /* \"Governor.sol\":2775:2779  prop */\n              dup3\n                /* \"Governor.sol\":2762:2780  Vote(myvote, prop) */\n              mload(0x40)\n              tag_39\n              swap3\n              swap2\n              swap1\n              tag_40\n              jump\t// in\n            tag_39:\n              mload(0x40)\n              dup1\n              swap2\n              sub\n              swap1\n              log1\n                /* \"Governor.sol\":2078:2787  function vote(bool myvote, uint256 prop) public {... */\n              pop\n              pop\n              jump\t// out\n                /* \"Governor.sol\":3977:4275  function combineWeight(address del)public{... */\n            tag_15:\n                /* \"Governor.sol\":4049:4055  weight */\n              0x02\n                /* \"Governor.sol\":4049:4067  weight[msg.sender] */\n              0x00\n                /* \"Governor.sol\":4056:4066  msg.sender */\n              caller\n                /* \"Governor.sol\":4049:4067  weight[msg.sender] */\n              0xffffffffffffffffffffffffffffffffffffffff\n              and\n              0xffffffffffffffffffffffffffffffffffffffff\n              and\n              dup2\n              mstore\n              0x20\n              add\n              swap1\n              dup2\n              mstore\n              0x20\n              add\n              0x00\n              keccak256\n                /* \"Governor.sol\":4049:4073  weight[msg.sender].votes */\n              0x02\n              add\n              sload\n                /* \"Governor.sol\":4028:4034  weight */\n              0x02\n                /* \"Governor.sol\":4028:4039  weight[del] */\n              0x00\n                /* \"Governor.sol\":4035:4038  del */\n              dup4\n                /* \"Governor.sol\":4028:4039  weight[del] */\n              0xffffffffffffffffffffffffffffffffffffffff\n              and\n              0xffffffffffffffffffffffffffffffffffffffff\n              and\n              dup2\n              mstore\n              0x20\n              add\n              swap1\n              dup2\n              mstore\n              0x20\n              add\n              0x00\n              keccak256\n                /* \"Governor.sol\":4028:4045  weight[del].votes */\n              0x02\n              add\n              0x00\n                /* \"Governor.sol\":4028:4073  weight[del].votes += weight[msg.sender].votes */\n              dup3\n              dup3\n              sload\n              tag_42\n              swap2\n              swap1\n              tag_43\n              jump\t// in\n            tag_42:\n              swap3\n              pop\n              pop\n              dup2\n              swap1\n              sstore\n              pop\n                /* \"Governor.sol\":4121:4127  weight */\n              0x02\n                /* \"Governor.sol\":4121:4139  weight[msg.sender] */\n              0x00\n                /* \"Governor.sol\":4128:4138  msg.sender */\n              caller\n                /* \"Governor.sol\":4121:4139  weight[msg.sender] */\n              0xffffffffffffffffffffffffffffffffffffffff\n              and\n              0xffffffffffffffffffffffffffffffffffffffff\n              and\n              dup2\n              mstore\n              0x20\n              add\n              swap1\n              dup2\n              mstore\n              0x20\n              add\n              0x00\n              keccak256\n                /* \"Governor.sol\":4121:4145  weight[msg.sender].votes */\n              0x02\n              add\n              sload\n                /* \"Governor.sol\":4084:4090  weight */\n              0x02\n                /* \"Governor.sol\":4084:4095  weight[del] */\n              0x00\n                /* \"Governor.sol\":4091:4094  del */\n              dup4\n                /* \"Governor.sol\":4084:4095  weight[del] */\n              0xffffffffffffffffffffffffffffffffffffffff\n              and\n              0xffffffffffffffffffffffffffffffffffffffff\n              and\n              dup2\n              mstore\n              0x20\n              add\n              swap1\n              dup2\n              mstore\n              0x20\n              add\n              0x00\n              keccak256\n                /* \"Governor.sol\":4084:4105  weight[del].delegated */\n              0x00\n              add\n                /* \"Governor.sol\":4084:4117  weight[del].delegated[msg.sender] */\n              0x00\n                /* \"Governor.sol\":4106:4116  msg.sender */\n              caller\n                /* \"Governor.sol\":4084:4117  weight[del].delegated[msg.sender] */\n              0xffffffffffffffffffffffffffffffffffffffff\n              and\n              0xffffffffffffffffffffffffffffffffffffffff\n              and\n              dup2\n              mstore\n              0x20\n              add\n              swap1\n              dup2\n              mstore\n              0x20\n              add\n              0x00\n              keccak256\n              0x00\n                /* \"Governor.sol\":4084:4145  weight[del].delegated[msg.sender] += weight[msg.sender].votes */\n              dup3\n              dup3\n              sload\n              tag_44\n              swap2\n              swap1\n              tag_43\n              jump\t// in\n            tag_44:\n              swap3\n              pop\n              pop\n              dup2\n              swap1\n              sstore\n              pop\n                /* \"Governor.sol\":4219:4229  msg.sender */\n              caller\n                /* \"Governor.sol\":4156:4162  weight */\n              0x02\n                /* \"Governor.sol\":4156:4167  weight[del] */\n              0x00\n                /* \"Governor.sol\":4163:4166  del */\n              dup4\n                /* \"Governor.sol\":4156:4167  weight[del] */\n              0xffffffffffffffffffffffffffffffffffffffff\n              and\n              0xffffffffffffffffffffffffffffffffffffffff\n              and\n              dup2\n              mstore\n              0x20\n              add\n              swap1\n              dup2\n              mstore\n              0x20\n              add\n              0x00\n              keccak256\n                /* \"Governor.sol\":4156:4178  weight[del].delegators */\n              0x01\n              add\n                /* \"Governor.sol\":4179:4185  weight */\n              0x02\n                /* \"Governor.sol\":4179:4197  weight[msg.sender] */\n              0x00\n                /* \"Governor.sol\":4186:4196  msg.sender */\n              caller\n                /* \"Governor.sol\":4179:4197  weight[msg.sender] */\n              0xffffffffffffffffffffffffffffffffffffffff\n              and\n              0xffffffffffffffffffffffffffffffffffffffff\n              and\n              dup2\n              mstore\n              0x20\n              add\n              swap1\n              dup2\n              mstore\n              0x20\n              add\n              0x00\n              keccak256\n                /* \"Governor.sol\":4179:4208  weight[msg.sender].delegators */\n              0x01\n              add\n                /* \"Governor.sol\":4179:4215  weight[msg.sender].delegators.length */\n              dup1\n              sload\n              swap1\n              pop\n                /* \"Governor.sol\":4156:4216  weight[del].delegators[weight[msg.sender].delegators.length] */\n              dup2\n              sload\n              dup2\n              lt\n              tag_45\n              jumpi\n              tag_46\n              tag_47\n              jump\t// in\n            tag_46:\n            tag_45:\n              swap1\n              0x00\n              mstore\n              keccak256(0x00, 0x20)\n              add\n              0x00\n                /* \"Governor.sol\":4156:4229  weight[del].delegators[weight[msg.sender].delegators.length] = msg.sender */\n              0x0100\n              exp\n              dup2\n              sload\n              dup2\n              0xffffffffffffffffffffffffffffffffffffffff\n              mul\n              not\n              and\n              swap1\n              dup4\n              0xffffffffffffffffffffffffffffffffffffffff\n              and\n              mul\n              or\n              swap1\n              sstore\n              pop\n                /* \"Governor.sol\":4267:4268  0 */\n              0x00\n                /* \"Governor.sol\":4240:4246  weight */\n              0x02\n                /* \"Governor.sol\":4240:4258  weight[msg.sender] */\n              0x00\n                /* \"Governor.sol\":4247:4257  msg.sender */\n              caller\n                /* \"Governor.sol\":4240:4258  weight[msg.sender] */\n              0xffffffffffffffffffffffffffffffffffffffff\n              and\n              0xffffffffffffffffffffffffffffffffffffffff\n              and\n              dup2\n              mstore\n              0x20\n              add\n              swap1\n              dup2\n              mstore\n              0x20\n              add\n              0x00\n              keccak256\n                /* \"Governor.sol\":4240:4264  weight[msg.sender].votes */\n              0x02\n              add\n                /* \"Governor.sol\":4240:4268  weight[msg.sender].votes = 0 */\n              dup2\n              swap1\n              sstore\n              pop\n                /* \"Governor.sol\":3977:4275  function combineWeight(address del)public{... */\n              pop\n              jump\t// out\n                /* \"Governor.sol\":623:650  address public tokenaddress */\n            tag_17:\n              0x00\n              dup1\n              sload\n              swap1\n              0x0100\n              exp\n              swap1\n              div\n              0xffffffffffffffffffffffffffffffffffffffff\n              and\n              dup2\n              jump\t// out\n                /* \"Governor.sol\":2793:3658  function initprop(string memory propmsg, uint256 _endtime) public {... */\n            tag_23:\n                /* \"Governor.sol\":2884:2885  0 */\n              0x00\n                /* \"Governor.sol\":2872:2880  currprop */\n              sload(0x04)\n                /* \"Governor.sol\":2872:2885  currprop == 0 */\n              sub\n                /* \"Governor.sol\":2869:2956  if(currprop == 0){propID[currprop].snapId = IGov(tokenaddress).getCurrentSnapshotId();} */\n              tag_50\n              jumpi\n                /* \"Governor.sol\":2918:2930  tokenaddress */\n              0x00\n              dup1\n              sload\n              swap1\n              0x0100\n              exp\n              swap1\n              div\n              0xffffffffffffffffffffffffffffffffffffffff\n              and\n                /* \"Governor.sol\":2913:2952  IGov(tokenaddress).getCurrentSnapshotId */\n              0xffffffffffffffffffffffffffffffffffffffff\n              and\n              0x5439ad86\n                /* \"Governor.sol\":2913:2954  IGov(tokenaddress).getCurrentSnapshotId() */\n              mload(0x40)\n              dup2\n              0xffffffff\n              and\n              0xe0\n              shl\n              dup2\n              mstore\n              0x04\n              add\n              0x20\n              mload(0x40)\n              dup1\n              dup4\n              sub\n              dup2\n              dup7\n              gas\n              staticcall\n              iszero\n              dup1\n              iszero\n              tag_52\n              jumpi\n              returndatasize\n              0x00\n              dup1\n              returndatacopy\n              revert(0x00, returndatasize)\n            tag_52:\n              pop\n              pop\n              pop\n              pop\n              mload(0x40)\n              returndatasize\n              not(0x1f)\n              0x1f\n              dup3\n              add\n              and\n              dup3\n              add\n              dup1\n              0x40\n              mstore\n              pop\n              dup2\n              add\n              swap1\n              tag_53\n              swap2\n              swap1\n              tag_54\n              jump\t// in\n            tag_53:\n                /* \"Governor.sol\":2887:2893  propID */\n              0x01\n                /* \"Governor.sol\":2887:2903  propID[currprop] */\n              0x00\n                /* \"Governor.sol\":2894:2902  currprop */\n              sload(0x04)\n                /* \"Governor.sol\":2887:2903  propID[currprop] */\n              dup2\n              mstore\n              0x20\n              add\n              swap1\n              dup2\n              mstore\n              0x20\n              add\n              0x00\n              keccak256\n                /* \"Governor.sol\":2887:2910  propID[currprop].snapId */\n              0x07\n              add\n                /* \"Governor.sol\":2887:2954  propID[currprop].snapId = IGov(tokenaddress).getCurrentSnapshotId() */\n              dup2\n              swap1\n              sstore\n              pop\n                /* \"Governor.sol\":2869:2956  if(currprop == 0){propID[currprop].snapId = IGov(tokenaddress).getCurrentSnapshotId();} */\n            tag_50:\n                /* \"Governor.sol\":2974:2984  uint256 wt */\n              0x00\n                /* \"Governor.sol\":2987:3006  getWeight(currprop) */\n              tag_55\n                /* \"Governor.sol\":2997:3005  currprop */\n              sload(0x04)\n                /* \"Governor.sol\":2987:2996  getWeight */\n              tag_36\n                /* \"Governor.sol\":2987:3006  getWeight(currprop) */\n              jump\t// in\n            tag_55:\n                /* \"Governor.sol\":2974:3006  uint256 wt = getWeight(currprop) */\n              swap1\n              pop\n                /* \"Governor.sol\":3017:3027  uint256 ts */\n              0x00\n                /* \"Governor.sol\":3030:3064  getSupply(propID[currprop].snapId) */\n              tag_56\n                /* \"Governor.sol\":3040:3046  propID */\n              0x01\n                /* \"Governor.sol\":3040:3056  propID[currprop] */\n              0x00\n                /* \"Governor.sol\":3047:3055  currprop */\n              sload(0x04)\n                /* \"Governor.sol\":3040:3056  propID[currprop] */\n              dup2\n              mstore\n              0x20\n              add\n              swap1\n              dup2\n              mstore\n              0x20\n              add\n              0x00\n              keccak256\n                /* \"Governor.sol\":3040:3063  propID[currprop].snapId */\n              0x07\n              add\n              sload\n                /* \"Governor.sol\":3030:3039  getSupply */\n              tag_57\n                /* \"Governor.sol\":3030:3064  getSupply(propID[currprop].snapId) */\n              jump\t// in\n            tag_56:\n                /* \"Governor.sol\":3017:3064  uint256 ts = getSupply(propID[currprop].snapId) */\n              swap1\n              pop\n                /* \"Governor.sol\":3092:3095  100 */\n              0x64\n                /* \"Governor.sol\":3089:3091  ts */\n              dup2\n                /* \"Governor.sol\":3089:3095  ts/100 */\n              tag_58\n              swap2\n              swap1\n              tag_59\n              jump\t// in\n            tag_58:\n                /* \"Governor.sol\":3083:3085  wt */\n              dup3\n                /* \"Governor.sol\":3083:3096  wt > (ts/100) */\n              gt\n                /* \"Governor.sol\":3075:3124  require(wt > (ts/100) , \"Need 1% to submit prop\") */\n              tag_60\n              jumpi\n              mload(0x40)\n              0x08c379a000000000000000000000000000000000000000000000000000000000\n              dup2\n              mstore\n              0x04\n              add\n              tag_61\n              swap1\n              tag_62\n              jump\t// in\n            tag_61:\n              mload(0x40)\n              dup1\n              swap2\n              sub\n              swap1\n              revert\n            tag_60:\n                /* \"Governor.sol\":3135:3143  currprop */\n              0x04\n              0x00\n                /* \"Governor.sol\":3135:3145  currprop++ */\n              dup2\n              sload\n              dup1\n              swap3\n              swap2\n              swap1\n              tag_63\n              swap1\n              tag_64\n              jump\t// in\n            tag_63:\n              swap2\n              swap1\n              pop\n              sstore\n              pop\n                /* \"Governor.sol\":3184:3191  propmsg */\n              dup4\n                /* \"Governor.sol\":3156:3162  propID */\n              0x01\n                /* \"Governor.sol\":3156:3172  propID[currprop] */\n              0x00\n                /* \"Governor.sol\":3163:3171  currprop */\n              sload(0x04)\n                /* \"Governor.sol\":3156:3172  propID[currprop] */\n              dup2\n              mstore\n              0x20\n              add\n              swap1\n              dup2\n              mstore\n              0x20\n              add\n              0x00\n              keccak256\n                /* \"Governor.sol\":3156:3181  propID[currprop].proposal */\n              0x06\n              add\n                /* \"Governor.sol\":3156:3191  propID[currprop].proposal = propmsg */\n              swap1\n              dup2\n              tag_65\n              swap2\n              swap1\n              tag_66\n              jump\t// in\n            tag_65:\n              pop\n                /* \"Governor.sol\":3231:3237  weight */\n              0x02\n                /* \"Governor.sol\":3231:3249  weight[msg.sender] */\n              0x00\n                /* \"Governor.sol\":3238:3248  msg.sender */\n              caller\n                /* \"Governor.sol\":3231:3249  weight[msg.sender] */\n              0xffffffffffffffffffffffffffffffffffffffff\n              and\n              0xffffffffffffffffffffffffffffffffffffffff\n              and\n              dup2\n              mstore\n              0x20\n              add\n              swap1\n              dup2\n              mstore\n              0x20\n              add\n              0x00\n              keccak256\n                /* \"Governor.sol\":3231:3255  weight[msg.sender].votes */\n              0x02\n              add\n              sload\n                /* \"Governor.sol\":3202:3208  propID */\n              0x01\n                /* \"Governor.sol\":3202:3218  propID[currprop] */\n              0x00\n                /* \"Governor.sol\":3209:3217  currprop */\n              sload(0x04)\n                /* \"Governor.sol\":3202:3218  propID[currprop] */\n              dup2\n              mstore\n              0x20\n              add\n              swap1\n              dup2\n              mstore\n              0x20\n              add\n              0x00\n              keccak256\n                /* \"Governor.sol\":3202:3227  propID[currprop].votesfor */\n              0x03\n              add\n              0x00\n                /* \"Governor.sol\":3202:3255  propID[currprop].votesfor += weight[msg.sender].votes */\n              dup3\n              dup3\n              sload\n              tag_67\n              swap2\n              swap1\n              tag_43\n              jump\t// in\n            tag_67:\n              swap3\n              pop\n              pop\n              dup2\n              swap1\n              sstore\n              pop\n                /* \"Governor.sol\":3303:3307  true */\n              0x01\n                /* \"Governor.sol\":3266:3272  propID */\n              dup1\n                /* \"Governor.sol\":3266:3282  propID[currprop] */\n              0x00\n                /* \"Governor.sol\":3273:3281  currprop */\n              sload(0x04)\n                /* \"Governor.sol\":3266:3282  propID[currprop] */\n              dup2\n              mstore\n              0x20\n              add\n              swap1\n              dup2\n              mstore\n              0x20\n              add\n              0x00\n              keccak256\n                /* \"Governor.sol\":3266:3288  propID[currprop].voted */\n              0x05\n              add\n                /* \"Governor.sol\":3266:3300  propID[currprop].voted[msg.sender] */\n              0x00\n                /* \"Governor.sol\":3289:3299  msg.sender */\n              caller\n                /* \"Governor.sol\":3266:3300  propID[currprop].voted[msg.sender] */\n              0xffffffffffffffffffffffffffffffffffffffff\n              and\n              0xffffffffffffffffffffffffffffffffffffffff\n              and\n              dup2\n              mstore\n              0x20\n              add\n              swap1\n              dup2\n              mstore\n              0x20\n              add\n              0x00\n              keccak256\n              0x00\n                /* \"Governor.sol\":3266:3307  propID[currprop].voted[msg.sender] = true */\n              0x0100\n              exp\n              dup2\n              sload\n              dup2\n              0xff\n              mul\n              not\n              and\n              swap1\n              dup4\n              iszero\n              iszero\n              mul\n              or\n              swap1\n              sstore\n              pop\n                /* \"Governor.sol\":3349:3361  tokenaddress */\n              0x00\n              dup1\n              sload\n              swap1\n              0x0100\n              exp\n              swap1\n              div\n              0xffffffffffffffffffffffffffffffffffffffff\n              and\n                /* \"Governor.sol\":3344:3371  IGov(tokenaddress).snapshot */\n              0xffffffffffffffffffffffffffffffffffffffff\n              and\n              0x9711715a\n                /* \"Governor.sol\":3344:3373  IGov(tokenaddress).snapshot() */\n              mload(0x40)\n              dup2\n              0xffffffff\n              and\n              0xe0\n              shl\n              dup2\n              mstore\n              0x04\n              add\n              0x20\n              mload(0x40)\n              dup1\n              dup4\n              sub\n              dup2\n              0x00\n              dup8\n              gas\n              call\n              iszero\n              dup1\n              iszero\n              tag_69\n              jumpi\n              returndatasize\n              0x00\n              dup1\n              returndatacopy\n              revert(0x00, returndatasize)\n            tag_69:\n              pop\n              pop\n              pop\n              pop\n              mload(0x40)\n              returndatasize\n              not(0x1f)\n              0x1f\n              dup3\n              add\n              and\n              dup3\n              add\n              dup1\n              0x40\n              mstore\n              pop\n              dup2\n              add\n              swap1\n              tag_70\n              swap2\n              swap1\n              tag_54\n              jump\t// in\n            tag_70:\n                /* \"Governor.sol\":3318:3324  propID */\n              0x01\n                /* \"Governor.sol\":3318:3334  propID[currprop] */\n              0x00\n                /* \"Governor.sol\":3325:3333  currprop */\n              sload(0x04)\n                /* \"Governor.sol\":3318:3334  propID[currprop] */\n              dup2\n              mstore\n              0x20\n              add\n              swap1\n              dup2\n              mstore\n              0x20\n              add\n              0x00\n              keccak256\n                /* \"Governor.sol\":3318:3341  propID[currprop].snapId */\n              0x07\n              add\n                /* \"Governor.sol\":3318:3373  propID[currprop].snapId = IGov(tokenaddress).snapshot() */\n              dup2\n              swap1\n              sstore\n              pop\n                /* \"Governor.sol\":3415:3430  block.timestamp */\n              timestamp\n                /* \"Governor.sol\":3384:3390  propID */\n              0x01\n                /* \"Governor.sol\":3384:3400  propID[currprop] */\n              0x00\n                /* \"Governor.sol\":3391:3399  currprop */\n              sload(0x04)\n                /* \"Governor.sol\":3384:3400  propID[currprop] */\n              dup2\n              mstore\n              0x20\n              add\n              swap1\n              dup2\n              mstore\n              0x20\n              add\n              0x00\n              keccak256\n                /* \"Governor.sol\":3384:3412  propID[currprop].createdtime */\n              0x00\n              add\n                /* \"Governor.sol\":3384:3430  propID[currprop].createdtime = block.timestamp */\n              dup2\n              swap1\n              sstore\n              pop\n                /* \"Governor.sol\":3486:3494  _endtime */\n              dup3\n                /* \"Governor.sol\":3468:3483  block.timestamp */\n              timestamp\n                /* \"Governor.sol\":3468:3494  block.timestamp + _endtime */\n              tag_71\n              swap2\n              swap1\n              tag_43\n              jump\t// in\n            tag_71:\n                /* \"Governor.sol\":3441:3447  propID */\n              0x01\n                /* \"Governor.sol\":3441:3457  propID[currprop] */\n              0x00\n                /* \"Governor.sol\":3448:3456  currprop */\n              sload(0x04)\n                /* \"Governor.sol\":3441:3457  propID[currprop] */\n              dup2\n              mstore\n              0x20\n              add\n              swap1\n              dup2\n              mstore\n              0x20\n              add\n              0x00\n              keccak256\n                /* \"Governor.sol\":3441:3465  propID[currprop].endtime */\n              0x01\n              add\n                /* \"Governor.sol\":3441:3494  propID[currprop].endtime = block.timestamp + _endtime */\n              dup2\n              swap1\n              sstore\n              pop\n                /* \"Governor.sol\":3555:3556  0 */\n              0x00\n                /* \"Governor.sol\":3516:3522  weight */\n              0x02\n                /* \"Governor.sol\":3516:3534  weight[msg.sender] */\n              0x00\n                /* \"Governor.sol\":3523:3533  msg.sender */\n              caller\n                /* \"Governor.sol\":3516:3534  weight[msg.sender] */\n              0xffffffffffffffffffffffffffffffffffffffff\n              and\n              0xffffffffffffffffffffffffffffffffffffffff\n              and\n              dup2\n              mstore\n              0x20\n              add\n              swap1\n              dup2\n              mstore\n              0x20\n              add\n              0x00\n              keccak256\n                /* \"Governor.sol\":3516:3545  weight[msg.sender].delegators */\n              0x01\n              add\n                /* \"Governor.sol\":3516:3552  weight[msg.sender].delegators.length */\n              dup1\n              sload\n              swap1\n              pop\n                /* \"Governor.sol\":3516:3556  weight[msg.sender].delegators.length > 0 */\n              gt\n                /* \"Governor.sol\":3513:3602  if(weight[msg.sender].delegators.length > 0){... */\n              iszero\n              tag_72\n              jumpi\n                /* \"Governor.sol\":3571:3591  removemydelegators() */\n              tag_73\n                /* \"Governor.sol\":3571:3589  removemydelegators */\n              tag_74\n                /* \"Governor.sol\":3571:3591  removemydelegators() */\n              jump\t// in\n            tag_73:\n                /* \"Governor.sol\":3513:3602  if(weight[msg.sender].delegators.length > 0){... */\n            tag_72:\n                /* \"Governor.sol\":3617:3648  newproposal(currprop , propmsg) */\n              0x92c8ebe2d9e3d6fae165e2a6b9ec45047969e4a69a779a5b833d98f100478139\n                /* \"Governor.sol\":3629:3637  currprop */\n              sload(0x04)\n                /* \"Governor.sol\":3640:3647  propmsg */\n              dup6\n                /* \"Governor.sol\":3617:3648  newproposal(currprop , propmsg) */\n              mload(0x40)\n              tag_75\n              swap3\n              swap2\n              swap1\n              tag_76\n              jump\t// in\n            tag_75:\n              mload(0x40)\n              dup1\n              swap2\n              sub\n              swap1\n              log1\n                /* \"Governor.sol\":2859:3658  {... */\n              pop\n              pop\n                /* \"Governor.sol\":2793:3658  function initprop(string memory propmsg, uint256 _endtime) public {... */\n              pop\n              pop\n              jump\t// out\n                /* \"Governor.sol\":3664:3971  function init(address tokenaddr, bool selsnap)external{... */\n            tag_27:\n                /* \"Governor.sol\":3738:3744  inited */\n              0x03\n              0x01\n              swap1\n              sload\n              swap1\n              0x0100\n              exp\n              swap1\n              div\n              0xff\n              and\n                /* \"Governor.sol\":3737:3744  !inited */\n              iszero\n                /* \"Governor.sol\":3728:3777  require( !inited , \"only factory can initialize\") */\n              tag_78\n              jumpi\n              mload(0x40)\n              0x08c379a000000000000000000000000000000000000000000000000000000000\n              dup2\n              mstore\n              0x04\n              add\n              tag_79\n              swap1\n              tag_80\n              jump\t// in\n            tag_79:\n              mload(0x40)\n              dup1\n              swap2\n              sub\n              swap1\n              revert\n            tag_78:\n                /* \"Governor.sol\":3807:3808  0 */\n              0x00\n                /* \"Governor.sol\":3796:3804  currprop */\n              0x04\n                /* \"Governor.sol\":3796:3808  currprop = 0 */\n              dup2\n              swap1\n              sstore\n              pop\n                /* \"Governor.sol\":3837:3841  snap */\n              0x03\n              0x00\n              swap1\n              sload\n              swap1\n              0x0100\n              exp\n              swap1\n              div\n              0xff\n              and\n                /* \"Governor.sol\":3827:3841  selsnap = snap */\n              swap1\n              pop\n                /* \"Governor.sol\":3875:3884  tokenaddr */\n              dup2\n                /* \"Governor.sol\":3860:3872  tokenaddress */\n              0x00\n              dup1\n                /* \"Governor.sol\":3860:3884  tokenaddress = tokenaddr */\n              0x0100\n              exp\n              dup2\n              sload\n              dup2\n              0xffffffffffffffffffffffffffffffffffffffff\n              mul\n              not\n              and\n              swap1\n              dup4\n              0xffffffffffffffffffffffffffffffffffffffff\n              and\n              mul\n              or\n              swap1\n              sstore\n              pop\n                /* \"Governor.sol\":3912:3916  true */\n              0x01\n                /* \"Governor.sol\":3903:3909  inited */\n              0x03\n              0x01\n                /* \"Governor.sol\":3903:3916  inited = true */\n              0x0100\n              exp\n              dup2\n              sload\n              dup2\n              0xff\n              mul\n              not\n              and\n              swap1\n              dup4\n              iszero\n              iszero\n              mul\n              or\n              swap1\n              sstore\n              pop\n                /* \"Governor.sol\":3940:3964  initialize(tokenaddress) */\n              0xc4d66de8473e8f74cb05df264ee8262da16b56717ef1f05d73bfdcea3adc85e5\n                /* \"Governor.sol\":3951:3963  tokenaddress */\n              0x00\n              dup1\n              sload\n              swap1\n              0x0100\n              exp\n              swap1\n              div\n              0xffffffffffffffffffffffffffffffffffffffff\n              and\n                /* \"Governor.sol\":3940:3964  initialize(tokenaddress) */\n              mload(0x40)\n              tag_81\n              swap2\n              swap1\n              tag_19\n              jump\t// in\n            tag_81:\n              mload(0x40)\n              dup1\n              swap2\n              sub\n              swap1\n              log1\n                /* \"Governor.sol\":3664:3971  function init(address tokenaddr, bool selsnap)external{... */\n              pop\n              pop\n              jump\t// out\n                /* \"Governor.sol\":1380:1764  function getWeight(uint256 _prop) internal returns (uint256){... */\n            tag_36:\n                /* \"Governor.sol\":1432:1439  uint256 */\n              0x00\n                /* \"Governor.sol\":1454:1458  snap */\n              0x03\n              0x00\n              swap1\n              sload\n              swap1\n              0x0100\n              exp\n              swap1\n              div\n              0xff\n              and\n                /* \"Governor.sol\":1451:1716  if(snap){... */\n              iszero\n              tag_83\n              jumpi\n                /* \"Governor.sol\":1514:1526  tokenaddress */\n              0x00\n              dup1\n              sload\n              swap1\n              0x0100\n              exp\n              swap1\n              div\n              0xffffffffffffffffffffffffffffffffffffffff\n              and\n                /* \"Governor.sol\":1509:1539  IGov(tokenaddress).balanceOfAt */\n              0xffffffffffffffffffffffffffffffffffffffff\n              and\n              0x4ee2cd7e\n                /* \"Governor.sol\":1540:1550  msg.sender */\n              caller\n                /* \"Governor.sol\":1552:1558  propID */\n              0x01\n                /* \"Governor.sol\":1552:1565  propID[_prop] */\n              0x00\n                /* \"Governor.sol\":1559:1564  _prop */\n              dup7\n                /* \"Governor.sol\":1552:1565  propID[_prop] */\n              dup2\n              mstore\n              0x20\n              add\n              swap1\n              dup2\n              mstore\n              0x20\n              add\n              0x00\n              keccak256\n                /* \"Governor.sol\":1552:1572  propID[_prop].snapId */\n              0x07\n              add\n              sload\n                /* \"Governor.sol\":1509:1573  IGov(tokenaddress).balanceOfAt(msg.sender, propID[_prop].snapId) */\n              mload(0x40)\n              dup4\n              0xffffffff\n              and\n              0xe0\n              shl\n              dup2\n              mstore\n              0x04\n              add\n              tag_84\n              swap3\n              swap2\n              swap1\n              tag_85\n              jump\t// in\n            tag_84:\n              0x20\n              mload(0x40)\n              dup1\n              dup4\n              sub\n              dup2\n              dup7\n              gas\n              staticcall\n              iszero\n              dup1\n              iszero\n              tag_87\n              jumpi\n              returndatasize\n              0x00\n              dup1\n              returndatacopy\n              revert(0x00, returndatasize)\n            tag_87:\n              pop\n              pop\n              pop\n              pop\n              mload(0x40)\n              returndatasize\n              not(0x1f)\n              0x1f\n              dup3\n              add\n              and\n              dup3\n              add\n              dup1\n              0x40\n              mstore\n              pop\n              dup2\n              add\n              swap1\n              tag_88\n              swap2\n              swap1\n              tag_54\n              jump\t// in\n            tag_88:\n                /* \"Governor.sol\":1482:1488  weight */\n              0x02\n                /* \"Governor.sol\":1482:1500  weight[msg.sender] */\n              0x00\n                /* \"Governor.sol\":1489:1499  msg.sender */\n              caller\n                /* \"Governor.sol\":1482:1500  weight[msg.sender] */\n              0xffffffffffffffffffffffffffffffffffffffff\n              and\n              0xffffffffffffffffffffffffffffffffffffffff\n              and\n              dup2\n              mstore\n              0x20\n              add\n              swap1\n              dup2\n              mstore\n              0x20\n              add\n              0x00\n              keccak256\n                /* \"Governor.sol\":1482:1506  weight[msg.sender].votes */\n              0x02\n              add\n                /* \"Governor.sol\":1482:1573  weight[msg.sender].votes = IGov(tokenaddress).balanceOfAt(msg.sender, propID[_prop].snapId) */\n              dup2\n              swap1\n              sstore\n              pop\n                /* \"Governor.sol\":1451:1716  if(snap){... */\n              jump(tag_89)\n            tag_83:\n                /* \"Governor.sol\":1661:1673  tokenaddress */\n              0x00\n              dup1\n              sload\n              swap1\n              0x0100\n              exp\n              swap1\n              div\n              0xffffffffffffffffffffffffffffffffffffffff\n              and\n                /* \"Governor.sol\":1656:1684  IGov(tokenaddress).balanceOf */\n              0xffffffffffffffffffffffffffffffffffffffff\n              and\n              0x70a08231\n                /* \"Governor.sol\":1685:1695  msg.sender */\n              caller\n                /* \"Governor.sol\":1656:1696  IGov(tokenaddress).balanceOf(msg.sender) */\n              mload(0x40)\n              dup3\n              0xffffffff\n              and\n              0xe0\n              shl\n              dup2\n              mstore\n              0x04\n              add\n              tag_90\n              swap2\n              swap1\n              tag_19\n              jump\t// in\n            tag_90:\n              0x20\n              mload(0x40)\n              dup1\n              dup4\n              sub\n              dup2\n              dup7\n              gas\n              staticcall\n              iszero\n              dup1\n              iszero\n              tag_92\n              jumpi\n              returndatasize\n              0x00\n              dup1\n              returndatacopy\n              revert(0x00, returndatasize)\n            tag_92:\n              pop\n              pop\n              pop\n              pop\n              mload(0x40)\n              returndatasize\n              not(0x1f)\n              0x1f\n              dup3\n              add\n              and\n              dup3\n              add\n              dup1\n              0x40\n              mstore\n              pop\n              dup2\n              add\n              swap1\n              tag_93\n              swap2\n              swap1\n              tag_54\n              jump\t// in\n            tag_93:\n                /* \"Governor.sol\":1629:1635  weight */\n              0x02\n                /* \"Governor.sol\":1629:1647  weight[msg.sender] */\n              0x00\n                /* \"Governor.sol\":1636:1646  msg.sender */\n              caller\n                /* \"Governor.sol\":1629:1647  weight[msg.sender] */\n              0xffffffffffffffffffffffffffffffffffffffff\n              and\n              0xffffffffffffffffffffffffffffffffffffffff\n              and\n              dup2\n              mstore\n              0x20\n              add\n              swap1\n              dup2\n              mstore\n              0x20\n              add\n              0x00\n              keccak256\n                /* \"Governor.sol\":1629:1653  weight[msg.sender].votes */\n              0x02\n              add\n                /* \"Governor.sol\":1629:1696  weight[msg.sender].votes = IGov(tokenaddress).balanceOf(msg.sender) */\n              dup2\n              swap1\n              sstore\n              pop\n                /* \"Governor.sol\":1451:1716  if(snap){... */\n            tag_89:\n                /* \"Governor.sol\":1733:1739  weight */\n              0x02\n                /* \"Governor.sol\":1733:1751  weight[msg.sender] */\n              0x00\n                /* \"Governor.sol\":1740:1750  msg.sender */\n              caller\n                /* \"Governor.sol\":1733:1751  weight[msg.sender] */\n              0xffffffffffffffffffffffffffffffffffffffff\n              and\n              0xffffffffffffffffffffffffffffffffffffffff\n              and\n              dup2\n              mstore\n              0x20\n              add\n              swap1\n              dup2\n              mstore\n              0x20\n              add\n              0x00\n              keccak256\n                /* \"Governor.sol\":1733:1757  weight[msg.sender].votes */\n              0x02\n              add\n              sload\n                /* \"Governor.sol\":1726:1757  return weight[msg.sender].votes */\n              swap1\n              pop\n                /* \"Governor.sol\":1380:1764  function getWeight(uint256 _prop) internal returns (uint256){... */\n              swap2\n              swap1\n              pop\n              jump\t// out\n                /* \"Governor.sol\":1770:2072  function getSupply(uint256 id) internal returns (uint256){... */\n            tag_57:\n                /* \"Governor.sol\":1819:1826  uint256 */\n              0x00\n                /* \"Governor.sol\":1837:1848  uint256 sup */\n              dup1\n                /* \"Governor.sol\":1861:1865  snap */\n              0x03\n              0x00\n              swap1\n              sload\n              swap1\n              0x0100\n              exp\n              swap1\n              div\n              0xff\n              and\n                /* \"Governor.sol\":1858:2045  if(snap){... */\n              iszero\n              tag_95\n              jumpi\n                /* \"Governor.sol\":1900:1912  tokenaddress */\n              0x00\n              dup1\n              sload\n              swap1\n              0x0100\n              exp\n              swap1\n              div\n              0xffffffffffffffffffffffffffffffffffffffff\n              and\n                /* \"Governor.sol\":1895:1927  IGov(tokenaddress).totalSupplyAt */\n              0xffffffffffffffffffffffffffffffffffffffff\n              and\n              0x981b24d0\n                /* \"Governor.sol\":1928:1930  id */\n              dup5\n                /* \"Governor.sol\":1895:1931  IGov(tokenaddress).totalSupplyAt(id) */\n              mload(0x40)\n              dup3\n              0xffffffff\n              and\n              0xe0\n              shl\n              dup2\n              mstore\n              0x04\n              add\n              tag_96\n              swap2\n              swap1\n              tag_97\n              jump\t// in\n            tag_96:\n              0x20\n              mload(0x40)\n              dup1\n              dup4\n              sub\n              dup2\n              dup7\n              gas\n              staticcall\n              iszero\n              dup1\n              iszero\n              tag_99\n              jumpi\n              returndatasize\n              0x00\n              dup1\n              returndatacopy\n              revert(0x00, returndatasize)\n            tag_99:\n              pop\n              pop\n              pop\n              pop\n              mload(0x40)\n              returndatasize\n              not(0x1f)\n              0x1f\n              dup3\n              add\n              and\n              dup3\n              add\n              dup1\n              0x40\n              mstore\n              pop\n              dup2\n              add\n              swap1\n              tag_100\n              swap2\n              swap1\n              tag_54\n              jump\t// in\n            tag_100:\n                /* \"Governor.sol\":1889:1931  sup = IGov(tokenaddress).totalSupplyAt(id) */\n              swap1\n              pop\n                /* \"Governor.sol\":1858:2045  if(snap){... */\n              jump(tag_101)\n            tag_95:\n                /* \"Governor.sol\":1998:2010  tokenaddress */\n              0x00\n              dup1\n              sload\n              swap1\n              0x0100\n              exp\n              swap1\n              div\n              0xffffffffffffffffffffffffffffffffffffffff\n              and\n                /* \"Governor.sol\":1993:2023  IGov(tokenaddress).totalSupply */\n              0xffffffffffffffffffffffffffffffffffffffff\n              and\n              0x18160ddd\n                /* \"Governor.sol\":1993:2025  IGov(tokenaddress).totalSupply() */\n              mload(0x40)\n              dup2\n              0xffffffff\n              and\n              0xe0\n              shl\n              dup2\n              mstore\n              0x04\n              add\n              0x20\n              mload(0x40)\n              dup1\n              dup4\n              sub\n              dup2\n              dup7\n              gas\n              staticcall\n              iszero\n              dup1\n              iszero\n              tag_103\n              jumpi\n              returndatasize\n              0x00\n              dup1\n              returndatacopy\n              revert(0x00, returndatasize)\n            tag_103:\n              pop\n              pop\n              pop\n              pop\n              mload(0x40)\n              returndatasize\n              not(0x1f)\n              0x1f\n              dup3\n              add\n              and\n              dup3\n              add\n              dup1\n              0x40\n              mstore\n              pop\n              dup2\n              add\n              swap1\n              tag_104\n              swap2\n              swap1\n              tag_54\n              jump\t// in\n            tag_104:\n                /* \"Governor.sol\":1987:2025  sup = IGov(tokenaddress).totalSupply() */\n              swap1\n              pop\n                /* \"Governor.sol\":1858:2045  if(snap){... */\n            tag_101:\n                /* \"Governor.sol\":2062:2065  sup */\n              dup1\n                /* \"Governor.sol\":2055:2065  return sup */\n              swap2\n              pop\n              pop\n                /* \"Governor.sol\":1770:2072  function getSupply(uint256 id) internal returns (uint256){... */\n              swap2\n              swap1\n              pop\n              jump\t// out\n                /* \"Governor.sol\":4285:4800  function removemydelegators() internal {... */\n            tag_74:\n                /* \"Governor.sol\":4334:4340  uint i */\n              0x00\n                /* \"Governor.sol\":4354:4794  for(i = 0; i < weight[msg.sender].delegators.length ; i++){... */\n            tag_106:\n                /* \"Governor.sol\":4369:4375  weight */\n              0x02\n                /* \"Governor.sol\":4369:4387  weight[msg.sender] */\n              0x00\n                /* \"Governor.sol\":4376:4386  msg.sender */\n              caller\n                /* \"Governor.sol\":4369:4387  weight[msg.sender] */\n              0xffffffffffffffffffffffffffffffffffffffff\n              and\n              0xffffffffffffffffffffffffffffffffffffffff\n              and\n              dup2\n              mstore\n              0x20\n              add\n              swap1\n              dup2\n              mstore\n              0x20\n              add\n              0x00\n              keccak256\n                /* \"Governor.sol\":4369:4398  weight[msg.sender].delegators */\n              0x01\n              add\n                /* \"Governor.sol\":4369:4405  weight[msg.sender].delegators.length */\n              dup1\n              sload\n              swap1\n              pop\n                /* \"Governor.sol\":4365:4366  i */\n              dup2\n                /* \"Governor.sol\":4365:4405  i < weight[msg.sender].delegators.length */\n              lt\n                /* \"Governor.sol\":4354:4794  for(i = 0; i < weight[msg.sender].delegators.length ; i++){... */\n              iszero\n              tag_107\n              jumpi\n                /* \"Governor.sol\":4427:4438  address del */\n              0x00\n                /* \"Governor.sol\":4459:4465  weight */\n              0x02\n                /* \"Governor.sol\":4459:4477  weight[msg.sender] */\n              0x00\n                /* \"Governor.sol\":4466:4476  msg.sender */\n              caller\n                /* \"Governor.sol\":4459:4477  weight[msg.sender] */\n              0xffffffffffffffffffffffffffffffffffffffff\n              and\n              0xffffffffffffffffffffffffffffffffffffffff\n              and\n              dup2\n              mstore\n              0x20\n              add\n              swap1\n              dup2\n              mstore\n              0x20\n              add\n              0x00\n              keccak256\n                /* \"Governor.sol\":4459:4488  weight[msg.sender].delegators */\n              0x01\n              add\n                /* \"Governor.sol\":4489:4490  i */\n              dup3\n                /* \"Governor.sol\":4459:4491  weight[msg.sender].delegators[i] */\n              dup2\n              sload\n              dup2\n              lt\n              tag_109\n              jumpi\n              tag_110\n              tag_47\n              jump\t// in\n            tag_110:\n            tag_109:\n              swap1\n              0x00\n              mstore\n              keccak256(0x00, 0x20)\n              add\n              0x00\n              swap1\n              sload\n              swap1\n              0x0100\n              exp\n              swap1\n              div\n              0xffffffffffffffffffffffffffffffffffffffff\n              and\n                /* \"Governor.sol\":4453:4491  del = weight[msg.sender].delegators[i] */\n              swap1\n              pop\n                /* \"Governor.sol\":4534:4540  weight */\n              0x02\n                /* \"Governor.sol\":4534:4552  weight[msg.sender] */\n              0x00\n                /* \"Governor.sol\":4541:4551  msg.sender */\n              caller\n                /* \"Governor.sol\":4534:4552  weight[msg.sender] */\n              0xffffffffffffffffffffffffffffffffffffffff\n              and\n              0xffffffffffffffffffffffffffffffffffffffff\n              and\n              dup2\n              mstore\n              0x20\n              add\n              swap1\n              dup2\n              mstore\n              0x20\n              add\n              0x00\n              keccak256\n                /* \"Governor.sol\":4534:4562  weight[msg.sender].delegated */\n              0x00\n              add\n                /* \"Governor.sol\":4534:4567  weight[msg.sender].delegated[del] */\n              0x00\n                /* \"Governor.sol\":4563:4566  del */\n              dup3\n                /* \"Governor.sol\":4534:4567  weight[msg.sender].delegated[del] */\n              0xffffffffffffffffffffffffffffffffffffffff\n              and\n              0xffffffffffffffffffffffffffffffffffffffff\n              and\n              dup2\n              mstore\n              0x20\n              add\n              swap1\n              dup2\n              mstore\n              0x20\n              add\n              0x00\n              keccak256\n              sload\n                /* \"Governor.sol\":4506:4512  weight */\n              0x02\n                /* \"Governor.sol\":4506:4524  weight[msg.sender] */\n              0x00\n                /* \"Governor.sol\":4513:4523  msg.sender */\n              caller\n                /* \"Governor.sol\":4506:4524  weight[msg.sender] */\n              0xffffffffffffffffffffffffffffffffffffffff\n              and\n              0xffffffffffffffffffffffffffffffffffffffff\n              and\n              dup2\n              mstore\n              0x20\n              add\n              swap1\n              dup2\n              mstore\n              0x20\n              add\n              0x00\n              keccak256\n                /* \"Governor.sol\":4506:4530  weight[msg.sender].votes */\n              0x02\n              add\n              0x00\n                /* \"Governor.sol\":4506:4567  weight[msg.sender].votes -= weight[msg.sender].delegated[del] */\n              dup3\n              dup3\n              sload\n              tag_112\n              swap2\n              swap1\n              tag_113\n              jump\t// in\n            tag_112:\n              swap3\n              pop\n              pop\n              dup2\n              swap1\n              sstore\n              pop\n                /* \"Governor.sol\":4602:4608  weight */\n              0x02\n                /* \"Governor.sol\":4602:4620  weight[msg.sender] */\n              0x00\n                /* \"Governor.sol\":4609:4619  msg.sender */\n              caller\n                /* \"Governor.sol\":4602:4620  weight[msg.sender] */\n              0xffffffffffffffffffffffffffffffffffffffff\n              and\n              0xffffffffffffffffffffffffffffffffffffffff\n              and\n              dup2\n              mstore\n              0x20\n              add\n              swap1\n              dup2\n              mstore\n              0x20\n              add\n              0x00\n              keccak256\n                /* \"Governor.sol\":4602:4630  weight[msg.sender].delegated */\n              0x00\n              add\n                /* \"Governor.sol\":4602:4635  weight[msg.sender].delegated[del] */\n              0x00\n                /* \"Governor.sol\":4631:4634  del */\n              dup3\n                /* \"Governor.sol\":4602:4635  weight[msg.sender].delegated[del] */\n              0xffffffffffffffffffffffffffffffffffffffff\n              and\n              0xffffffffffffffffffffffffffffffffffffffff\n              and\n              dup2\n              mstore\n              0x20\n              add\n              swap1\n              dup2\n              mstore\n              0x20\n              add\n              0x00\n              keccak256\n              sload\n                /* \"Governor.sol\":4582:4588  weight */\n              0x02\n                /* \"Governor.sol\":4582:4593  weight[del] */\n              0x00\n                /* \"Governor.sol\":4589:4592  del */\n              dup4\n                /* \"Governor.sol\":4582:4593  weight[del] */\n              0xffffffffffffffffffffffffffffffffffffffff\n              and\n              0xffffffffffffffffffffffffffffffffffffffff\n              and\n              dup2\n              mstore\n              0x20\n              add\n              swap1\n              dup2\n              mstore\n              0x20\n              add\n              0x00\n              keccak256\n                /* \"Governor.sol\":4582:4599  weight[del].votes */\n              0x02\n              add\n                /* \"Governor.sol\":4582:4635  weight[del].votes = weight[msg.sender].delegated[del] */\n              dup2\n              swap1\n              sstore\n              pop\n                /* \"Governor.sol\":4692:4696  true */\n              0x01\n                /* \"Governor.sol\":4662:4668  propID */\n              dup1\n                /* \"Governor.sol\":4662:4678  propID[currprop] */\n              0x00\n                /* \"Governor.sol\":4669:4677  currprop */\n              sload(0x04)\n                /* \"Governor.sol\":4662:4678  propID[currprop] */\n              dup2\n              mstore\n              0x20\n              add\n              swap1\n              dup2\n              mstore\n              0x20\n              add\n              0x00\n              keccak256\n                /* \"Governor.sol\":4662:4684  propID[currprop].voted */\n              0x05\n              add\n                /* \"Governor.sol\":4662:4689  propID[currprop].voted[del] */\n              0x00\n                /* \"Governor.sol\":4685:4688  del */\n              dup4\n                /* \"Governor.sol\":4662:4689  propID[currprop].voted[del] */\n              0xffffffffffffffffffffffffffffffffffffffff\n              and\n              0xffffffffffffffffffffffffffffffffffffffff\n              and\n              dup2\n              mstore\n              0x20\n              add\n              swap1\n              dup2\n              mstore\n              0x20\n              add\n              0x00\n              keccak256\n              0x00\n                /* \"Governor.sol\":4662:4696  propID[currprop].voted[del] = true */\n              0x0100\n              exp\n              dup2\n              sload\n              dup2\n              0xff\n              mul\n              not\n              and\n              swap1\n              dup4\n              iszero\n              iszero\n              mul\n              or\n              swap1\n              sstore\n              pop\n                /* \"Governor.sol\":4766:4769  0x0 */\n              0x00\n                /* \"Governor.sol\":4723:4729  weight */\n              0x02\n                /* \"Governor.sol\":4723:4741  weight[msg.sender] */\n              0x00\n                /* \"Governor.sol\":4730:4740  msg.sender */\n              caller\n                /* \"Governor.sol\":4723:4741  weight[msg.sender] */\n              0xffffffffffffffffffffffffffffffffffffffff\n              and\n              0xffffffffffffffffffffffffffffffffffffffff\n              and\n              dup2\n              mstore\n              0x20\n              add\n              swap1\n              dup2\n              mstore\n              0x20\n              add\n              0x00\n              keccak256\n                /* \"Governor.sol\":4723:4752  weight[msg.sender].delegators */\n              0x01\n              add\n                /* \"Governor.sol\":4753:4754  i */\n              dup4\n                /* \"Governor.sol\":4723:4755  weight[msg.sender].delegators[i] */\n              dup2\n              sload\n              dup2\n              lt\n              tag_114\n              jumpi\n              tag_115\n              tag_47\n              jump\t// in\n            tag_115:\n            tag_114:\n              swap1\n              0x00\n              mstore\n              keccak256(0x00, 0x20)\n              add\n              0x00\n                /* \"Governor.sol\":4723:4770  weight[msg.sender].delegators[i] = address(0x0) */\n              0x0100\n              exp\n              dup2\n              sload\n              dup2\n              0xffffffffffffffffffffffffffffffffffffffff\n              mul\n              not\n              and\n              swap1\n              dup4\n              0xffffffffffffffffffffffffffffffffffffffff\n              and\n              mul\n              or\n              swap1\n              sstore\n              pop\n                /* \"Governor.sol\":4412:4794  {... */\n              pop\n                /* \"Governor.sol\":4408:4411  i++ */\n              dup1\n              dup1\n              tag_117\n              swap1\n              tag_64\n              jump\t// in\n            tag_117:\n              swap2\n              pop\n              pop\n                /* \"Governor.sol\":4354:4794  for(i = 0; i < weight[msg.sender].delegators.length ; i++){... */\n              jump(tag_106)\n            tag_107:\n                /* \"Governor.sol\":4324:4800  {... */\n              pop\n                /* \"Governor.sol\":4285:4800  function removemydelegators() internal {... */\n              jump\t// out\n                /* \"#utility.yul\":7:82   */\n            tag_118:\n                /* \"#utility.yul\":40:46   */\n              0x00\n                /* \"#utility.yul\":73:75   */\n              0x40\n                /* \"#utility.yul\":67:76   */\n              mload\n                /* \"#utility.yul\":57:76   */\n              swap1\n              pop\n                /* \"#utility.yul\":7:82   */\n              swap1\n              jump\t// out\n                /* \"#utility.yul\":88:205   */\n            tag_119:\n                /* \"#utility.yul\":197:198   */\n              0x00\n                /* \"#utility.yul\":194:195   */\n              dup1\n                /* \"#utility.yul\":187:199   */\n              revert\n                /* \"#utility.yul\":211:328   */\n            tag_120:\n                /* \"#utility.yul\":320:321   */\n              0x00\n                /* \"#utility.yul\":317:318   */\n              dup1\n                /* \"#utility.yul\":310:322   */\n              revert\n                /* \"#utility.yul\":334:424   */\n            tag_121:\n                /* \"#utility.yul\":368:375   */\n              0x00\n                /* \"#utility.yul\":411:416   */\n              dup2\n                /* \"#utility.yul\":404:417   */\n              iszero\n                /* \"#utility.yul\":397:418   */\n              iszero\n                /* \"#utility.yul\":386:418   */\n              swap1\n              pop\n                /* \"#utility.yul\":334:424   */\n              swap2\n              swap1\n              pop\n              jump\t// out\n                /* \"#utility.yul\":430:546   */\n            tag_122:\n                /* \"#utility.yul\":500:521   */\n              tag_182\n                /* \"#utility.yul\":515:520   */\n              dup2\n                /* \"#utility.yul\":500:521   */\n              tag_121\n              jump\t// in\n            tag_182:\n                /* \"#utility.yul\":493:498   */\n              dup2\n                /* \"#utility.yul\":490:522   */\n              eq\n                /* \"#utility.yul\":480:540   */\n              tag_183\n              jumpi\n                /* \"#utility.yul\":536:537   */\n              0x00\n                /* \"#utility.yul\":533:534   */\n              dup1\n                /* \"#utility.yul\":526:538   */\n              revert\n                /* \"#utility.yul\":480:540   */\n            tag_183:\n                /* \"#utility.yul\":430:546   */\n              pop\n              jump\t// out\n                /* \"#utility.yul\":552:685   */\n            tag_123:\n                /* \"#utility.yul\":595:600   */\n              0x00\n                /* \"#utility.yul\":633:639   */\n              dup2\n                /* \"#utility.yul\":620:640   */\n              calldataload\n                /* \"#utility.yul\":611:640   */\n              swap1\n              pop\n                /* \"#utility.yul\":649:679   */\n              tag_185\n                /* \"#utility.yul\":673:678   */\n              dup2\n                /* \"#utility.yul\":649:679   */\n              tag_122\n              jump\t// in\n            tag_185:\n                /* \"#utility.yul\":552:685   */\n              swap3\n              swap2\n              pop\n              pop\n              jump\t// out\n                /* \"#utility.yul\":691:768   */\n            tag_124:\n                /* \"#utility.yul\":728:735   */\n              0x00\n                /* \"#utility.yul\":757:762   */\n              dup2\n                /* \"#utility.yul\":746:762   */\n              swap1\n              pop\n                /* \"#utility.yul\":691:768   */\n              swap2\n              swap1\n              pop\n              jump\t// out\n                /* \"#utility.yul\":774:896   */\n            tag_125:\n                /* \"#utility.yul\":847:871   */\n              tag_188\n                /* \"#utility.yul\":865:870   */\n              dup2\n                /* \"#utility.yul\":847:871   */\n              tag_124\n              jump\t// in\n            tag_188:\n                /* \"#utility.yul\":840:845   */\n              dup2\n                /* \"#utility.yul\":837:872   */\n              eq\n                /* \"#utility.yul\":827:890   */\n              tag_189\n              jumpi\n                /* \"#utility.yul\":886:887   */\n              0x00\n                /* \"#utility.yul\":883:884   */\n              dup1\n                /* \"#utility.yul\":876:888   */\n              revert\n                /* \"#utility.yul\":827:890   */\n            tag_189:\n                /* \"#utility.yul\":774:896   */\n              pop\n              jump\t// out\n                /* \"#utility.yul\":902:1041   */\n            tag_126:\n                /* \"#utility.yul\":948:953   */\n              0x00\n                /* \"#utility.yul\":986:992   */\n              dup2\n                /* \"#utility.yul\":973:993   */\n              calldataload\n                /* \"#utility.yul\":964:993   */\n              swap1\n              pop\n                /* \"#utility.yul\":1002:1035   */\n              tag_191\n                /* \"#utility.yul\":1029:1034   */\n              dup2\n                /* \"#utility.yul\":1002:1035   */\n              tag_125\n              jump\t// in\n            tag_191:\n                /* \"#utility.yul\":902:1041   */\n              swap3\n              swap2\n              pop\n              pop\n              jump\t// out\n                /* \"#utility.yul\":1047:1515   */\n            tag_10:\n                /* \"#utility.yul\":1112:1118   */\n              0x00\n                /* \"#utility.yul\":1120:1126   */\n              dup1\n                /* \"#utility.yul\":1169:1171   */\n              0x40\n                /* \"#utility.yul\":1157:1166   */\n              dup4\n                /* \"#utility.yul\":1148:1155   */\n              dup6\n                /* \"#utility.yul\":1144:1167   */\n              sub\n                /* \"#utility.yul\":1140:1172   */\n              slt\n                /* \"#utility.yul\":1137:1256   */\n              iszero\n              tag_193\n              jumpi\n                /* \"#utility.yul\":1175:1254   */\n              tag_194\n              tag_119\n              jump\t// in\n            tag_194:\n                /* \"#utility.yul\":1137:1256   */\n            tag_193:\n                /* \"#utility.yul\":1295:1296   */\n              0x00\n                /* \"#utility.yul\":1320:1370   */\n              tag_195\n                /* \"#utility.yul\":1362:1369   */\n              dup6\n                /* \"#utility.yul\":1353:1359   */\n              dup3\n                /* \"#utility.yul\":1342:1351   */\n              dup7\n                /* \"#utility.yul\":1338:1360   */\n              add\n                /* \"#utility.yul\":1320:1370   */\n              tag_123\n              jump\t// in\n            tag_195:\n                /* \"#utility.yul\":1310:1370   */\n              swap3\n              pop\n                /* \"#utility.yul\":1266:1380   */\n              pop\n                /* \"#utility.yul\":1419:1421   */\n              0x20\n                /* \"#utility.yul\":1445:1498   */\n              tag_196\n                /* \"#utility.yul\":1490:1497   */\n              dup6\n                /* \"#utility.yul\":1481:1487   */\n              dup3\n                /* \"#utility.yul\":1470:1479   */\n              dup7\n                /* \"#utility.yul\":1466:1488   */\n              add\n                /* \"#utility.yul\":1445:1498   */\n              tag_126\n              jump\t// in\n            tag_196:\n                /* \"#utility.yul\":1435:1498   */\n              swap2\n              pop\n                /* \"#utility.yul\":1390:1508   */\n              pop\n                /* \"#utility.yul\":1047:1515   */\n              swap3\n              pop\n              swap3\n              swap1\n              pop\n              jump\t// out\n                /* \"#utility.yul\":1521:1647   */\n            tag_127:\n                /* \"#utility.yul\":1558:1565   */\n              0x00\n                /* \"#utility.yul\":1598:1640   */\n              0xffffffffffffffffffffffffffffffffffffffff\n                /* \"#utility.yul\":1591:1596   */\n              dup3\n                /* \"#utility.yul\":1587:1641   */\n              and\n                /* \"#utility.yul\":1576:1641   */\n              swap1\n              pop\n                /* \"#utility.yul\":1521:1647   */\n              swap2\n              swap1\n              pop\n              jump\t// out\n                /* \"#utility.yul\":1653:1749   */\n            tag_128:\n                /* \"#utility.yul\":1690:1697   */\n              0x00\n                /* \"#utility.yul\":1719:1743   */\n              tag_199\n                /* \"#utility.yul\":1737:1742   */\n              dup3\n                /* \"#utility.yul\":1719:1743   */\n              tag_127\n              jump\t// in\n            tag_199:\n                /* \"#utility.yul\":1708:1743   */\n              swap1\n              pop\n                /* \"#utility.yul\":1653:1749   */\n              swap2\n              swap1\n              pop\n              jump\t// out\n                /* \"#utility.yul\":1755:1877   */\n            tag_129:\n                /* \"#utility.yul\":1828:1852   */\n              tag_201\n                /* \"#utility.yul\":1846:1851   */\n              dup2\n                /* \"#utility.yul\":1828:1852   */\n              tag_128\n              jump\t// in\n            tag_201:\n                /* \"#utility.yul\":1821:1826   */\n              dup2\n                /* \"#utility.yul\":1818:1853   */\n              eq\n                /* \"#utility.yul\":1808:1871   */\n              tag_202\n              jumpi\n                /* \"#utility.yul\":1867:1868   */\n              0x00\n                /* \"#utility.yul\":1864:1865   */\n              dup1\n                /* \"#utility.yul\":1857:1869   */\n              revert\n                /* \"#utility.yul\":1808:1871   */\n            tag_202:\n                /* \"#utility.yul\":1755:1877   */\n              pop\n              jump\t// out\n                /* \"#utility.yul\":1883:2022   */\n            tag_130:\n                /* \"#utility.yul\":1929:1934   */\n              0x00\n                /* \"#utility.yul\":1967:1973   */\n              dup2\n                /* \"#utility.yul\":1954:1974   */\n              calldataload\n                /* \"#utility.yul\":1945:1974   */\n              swap1\n              pop\n                /* \"#utility.yul\":1983:2016   */\n              tag_204\n                /* \"#utility.yul\":2010:2015   */\n              dup2\n                /* \"#utility.yul\":1983:2016   */\n              tag_129\n              jump\t// in\n            tag_204:\n                /* \"#utility.yul\":1883:2022   */\n              swap3\n              swap2\n              pop\n              pop\n              jump\t// out\n                /* \"#utility.yul\":2028:2357   */\n            tag_14:\n                /* \"#utility.yul\":2087:2093   */\n              0x00\n                /* \"#utility.yul\":2136:2138   */\n              0x20\n                /* \"#utility.yul\":2124:2133   */\n              dup3\n                /* \"#utility.yul\":2115:2122   */\n              dup5\n                /* \"#utility.yul\":2111:2134   */\n              sub\n                /* \"#utility.yul\":2107:2139   */\n              slt\n                /* \"#utility.yul\":2104:2223   */\n              iszero\n              tag_206\n              jumpi\n                /* \"#utility.yul\":2142:2221   */\n              tag_207\n              tag_119\n              jump\t// in\n            tag_207:\n                /* \"#utility.yul\":2104:2223   */\n            tag_206:\n                /* \"#utility.yul\":2262:2263   */\n              0x00\n                /* \"#utility.yul\":2287:2340   */\n              tag_208\n                /* \"#utility.yul\":2332:2339   */\n              dup5\n                /* \"#utility.yul\":2323:2329   */\n              dup3\n                /* \"#utility.yul\":2312:2321   */\n              dup6\n                /* \"#utility.yul\":2308:2330   */\n              add\n                /* \"#utility.yul\":2287:2340   */\n              tag_130\n              jump\t// in\n            tag_208:\n                /* \"#utility.yul\":2277:2340   */\n              swap2\n              pop\n                /* \"#utility.yul\":2233:2350   */\n              pop\n                /* \"#utility.yul\":2028:2357   */\n              swap3\n              swap2\n              pop\n              pop\n              jump\t// out\n                /* \"#utility.yul\":2363:2481   */\n            tag_131:\n                /* \"#utility.yul\":2450:2474   */\n              tag_210\n                /* \"#utility.yul\":2468:2473   */\n              dup2\n                /* \"#utility.yul\":2450:2474   */\n              tag_128\n              jump\t// in\n            tag_210:\n                /* \"#utility.yul\":2445:2448   */\n              dup3\n                /* \"#utility.yul\":2438:2475   */\n              mstore\n                /* \"#utility.yul\":2363:2481   */\n              pop\n              pop\n              jump\t// out\n                /* \"#utility.yul\":2487:2709   */\n            tag_19:\n                /* \"#utility.yul\":2580:2584   */\n              0x00\n                /* \"#utility.yul\":2618:2620   */\n              0x20\n                /* \"#utility.yul\":2607:2616   */\n              dup3\n                /* \"#utility.yul\":2603:2621   */\n              add\n                /* \"#utility.yul\":2595:2621   */\n              swap1\n              pop\n                /* \"#utility.yul\":2631:2702   */\n              tag_212\n                /* \"#utility.yul\":2699:2700   */\n              0x00\n                /* \"#utility.yul\":2688:2697   */\n              dup4\n                /* \"#utility.yul\":2684:2701   */\n              add\n                /* \"#utility.yul\":2675:2681   */\n              dup5\n                /* \"#utility.yul\":2631:2702   */\n              tag_131\n              jump\t// in\n            tag_212:\n                /* \"#utility.yul\":2487:2709   */\n              swap3\n              swap2\n              pop\n              pop\n              jump\t// out\n                /* \"#utility.yul\":2715:2832   */\n            tag_132:\n                /* \"#utility.yul\":2824:2825   */\n              0x00\n                /* \"#utility.yul\":2821:2822   */\n              dup1\n                /* \"#utility.yul\":2814:2826   */\n              revert\n                /* \"#utility.yul\":2838:2955   */\n            tag_133:\n                /* \"#utility.yul\":2947:2948   */\n              0x00\n                /* \"#utility.yul\":2944:2945   */\n              dup1\n                /* \"#utility.yul\":2937:2949   */\n              revert\n                /* \"#utility.yul\":2961:3063   */\n            tag_134:\n                /* \"#utility.yul\":3002:3008   */\n              0x00\n                /* \"#utility.yul\":3053:3055   */\n              0x1f\n                /* \"#utility.yul\":3049:3056   */\n              not\n                /* \"#utility.yul\":3044:3046   */\n              0x1f\n                /* \"#utility.yul\":3037:3042   */\n              dup4\n                /* \"#utility.yul\":3033:3047   */\n              add\n                /* \"#utility.yul\":3029:3057   */\n              and\n                /* \"#utility.yul\":3019:3057   */\n              swap1\n              pop\n                /* \"#utility.yul\":2961:3063   */\n              swap2\n              swap1\n              pop\n              jump\t// out\n                /* \"#utility.yul\":3069:3249   */\n            tag_135:\n                /* \"#utility.yul\":3117:3194   */\n              0x4e487b7100000000000000000000000000000000000000000000000000000000\n                /* \"#utility.yul\":3114:3115   */\n              0x00\n                /* \"#utility.yul\":3107:3195   */\n              mstore\n                /* \"#utility.yul\":3214:3218   */\n              0x41\n                /* \"#utility.yul\":3211:3212   */\n              0x04\n                /* \"#utility.yul\":3204:3219   */\n              mstore\n                /* \"#utility.yul\":3238:3242   */\n              0x24\n                /* \"#utility.yul\":3235:3236   */\n              0x00\n                /* \"#utility.yul\":3228:3243   */\n              revert\n                /* \"#utility.yul\":3255:3536   */\n            tag_136:\n                /* \"#utility.yul\":3338:3365   */\n              tag_218\n                /* \"#utility.yul\":3360:3364   */\n              dup3\n                /* \"#utility.yul\":3338:3365   */\n              tag_134\n              jump\t// in\n            tag_218:\n                /* \"#utility.yul\":3330:3336   */\n              dup2\n                /* \"#utility.yul\":3326:3366   */\n              add\n                /* \"#utility.yul\":3468:3474   */\n              dup2\n                /* \"#utility.yul\":3456:3466   */\n              dup2\n                /* \"#utility.yul\":3453:3475   */\n              lt\n                /* \"#utility.yul\":3432:3450   */\n              0xffffffffffffffff\n                /* \"#utility.yul\":3420:3430   */\n              dup3\n                /* \"#utility.yul\":3417:3451   */\n              gt\n                /* \"#utility.yul\":3414:3476   */\n              or\n                /* \"#utility.yul\":3411:3499   */\n              iszero\n              tag_219\n              jumpi\n                /* \"#utility.yul\":3479:3497   */\n              tag_220\n              tag_135\n              jump\t// in\n            tag_220:\n                /* \"#utility.yul\":3411:3499   */\n            tag_219:\n                /* \"#utility.yul\":3519:3529   */\n              dup1\n                /* \"#utility.yul\":3515:3517   */\n              0x40\n                /* \"#utility.yul\":3508:3530   */\n              mstore\n                /* \"#utility.yul\":3298:3536   */\n              pop\n                /* \"#utility.yul\":3255:3536   */\n              pop\n              pop\n              jump\t// out\n                /* \"#utility.yul\":3542:3671   */\n            tag_137:\n                /* \"#utility.yul\":3576:3582   */\n              0x00\n                /* \"#utility.yul\":3603:3623   */\n              tag_222\n              tag_118\n              jump\t// in\n            tag_222:\n                /* \"#utility.yul\":3593:3623   */\n              swap1\n              pop\n                /* \"#utility.yul\":3632:3665   */\n              tag_223\n                /* \"#utility.yul\":3660:3664   */\n              dup3\n                /* \"#utility.yul\":3652:3658   */\n              dup3\n                /* \"#utility.yul\":3632:3665   */\n              tag_136\n              jump\t// in\n            tag_223:\n                /* \"#utility.yul\":3542:3671   */\n              swap2\n              swap1\n              pop\n              jump\t// out\n                /* \"#utility.yul\":3677:3985   */\n            tag_138:\n                /* \"#utility.yul\":3739:3743   */\n              0x00\n                /* \"#utility.yul\":3829:3847   */\n              0xffffffffffffffff\n                /* \"#utility.yul\":3821:3827   */\n              dup3\n                /* \"#utility.yul\":3818:3848   */\n              gt\n                /* \"#utility.yul\":3815:3871   */\n              iszero\n              tag_225\n              jumpi\n                /* \"#utility.yul\":3851:3869   */\n              tag_226\n              tag_135\n              jump\t// in\n            tag_226:\n                /* \"#utility.yul\":3815:3871   */\n            tag_225:\n                /* \"#utility.yul\":3889:3918   */\n              tag_227\n                /* \"#utility.yul\":3911:3917   */\n              dup3\n                /* \"#utility.yul\":3889:3918   */\n              tag_134\n              jump\t// in\n            tag_227:\n                /* \"#utility.yul\":3881:3918   */\n              swap1\n              pop\n                /* \"#utility.yul\":3973:3977   */\n              0x20\n                /* \"#utility.yul\":3967:3971   */\n              dup2\n                /* \"#utility.yul\":3963:3978   */\n              add\n                /* \"#utility.yul\":3955:3978   */\n              swap1\n              pop\n                /* \"#utility.yul\":3677:3985   */\n              swap2\n              swap1\n              pop\n              jump\t// out\n                /* \"#utility.yul\":3991:4137   */\n            tag_139:\n                /* \"#utility.yul\":4088:4094   */\n              dup3\n                /* \"#utility.yul\":4083:4086   */\n              dup2\n                /* \"#utility.yul\":4078:4081   */\n              dup4\n                /* \"#utility.yul\":4065:4095   */\n              calldatacopy\n                /* \"#utility.yul\":4129:4130   */\n              0x00\n                /* \"#utility.yul\":4120:4126   */\n              dup4\n                /* \"#utility.yul\":4115:4118   */\n              dup4\n                /* \"#utility.yul\":4111:4127   */\n              add\n                /* \"#utility.yul\":4104:4131   */\n              mstore\n                /* \"#utility.yul\":3991:4137   */\n              pop\n              pop\n              pop\n              jump\t// out\n                /* \"#utility.yul\":4143:4568   */\n            tag_140:\n                /* \"#utility.yul\":4221:4226   */\n              0x00\n                /* \"#utility.yul\":4246:4312   */\n              tag_230\n                /* \"#utility.yul\":4262:4311   */\n              tag_231\n                /* \"#utility.yul\":4304:4310   */\n              dup5\n                /* \"#utility.yul\":4262:4311   */\n              tag_138\n              jump\t// in\n            tag_231:\n                /* \"#utility.yul\":4246:4312   */\n              tag_137\n              jump\t// in\n            tag_230:\n                /* \"#utility.yul\":4237:4312   */\n              swap1\n              pop\n                /* \"#utility.yul\":4335:4341   */\n              dup3\n                /* \"#utility.yul\":4328:4333   */\n              dup2\n                /* \"#utility.yul\":4321:4342   */\n              mstore\n                /* \"#utility.yul\":4373:4377   */\n              0x20\n                /* \"#utility.yul\":4366:4371   */\n              dup2\n                /* \"#utility.yul\":4362:4378   */\n              add\n                /* \"#utility.yul\":4411:4414   */\n              dup5\n                /* \"#utility.yul\":4402:4408   */\n              dup5\n                /* \"#utility.yul\":4397:4400   */\n              dup5\n                /* \"#utility.yul\":4393:4409   */\n              add\n                /* \"#utility.yul\":4390:4415   */\n              gt\n                /* \"#utility.yul\":4387:4499   */\n              iszero\n              tag_232\n              jumpi\n                /* \"#utility.yul\":4418:4497   */\n              tag_233\n              tag_133\n              jump\t// in\n            tag_233:\n                /* \"#utility.yul\":4387:4499   */\n            tag_232:\n                /* \"#utility.yul\":4508:4562   */\n              tag_234\n                /* \"#utility.yul\":4555:4561   */\n              dup5\n                /* \"#utility.yul\":4550:4553   */\n              dup3\n                /* \"#utility.yul\":4545:4548   */\n              dup6\n                /* \"#utility.yul\":4508:4562   */\n              tag_139\n              jump\t// in\n            tag_234:\n                /* \"#utility.yul\":4227:4568   */\n              pop\n                /* \"#utility.yul\":4143:4568   */\n              swap4\n              swap3\n              pop\n              pop\n              pop\n              jump\t// out\n                /* \"#utility.yul\":4588:4928   */\n            tag_141:\n                /* \"#utility.yul\":4644:4649   */\n              0x00\n                /* \"#utility.yul\":4693:4696   */\n              dup3\n                /* \"#utility.yul\":4686:4690   */\n              0x1f\n                /* \"#utility.yul\":4678:4684   */\n              dup4\n                /* \"#utility.yul\":4674:4691   */\n              add\n                /* \"#utility.yul\":4670:4697   */\n              slt\n                /* \"#utility.yul\":4660:4782   */\n              tag_236\n              jumpi\n                /* \"#utility.yul\":4701:4780   */\n              tag_237\n              tag_132\n              jump\t// in\n            tag_237:\n                /* \"#utility.yul\":4660:4782   */\n            tag_236:\n                /* \"#utility.yul\":4818:4824   */\n              dup2\n                /* \"#utility.yul\":4805:4825   */\n              calldataload\n                /* \"#utility.yul\":4843:4922   */\n              tag_238\n                /* \"#utility.yul\":4918:4921   */\n              dup5\n                /* \"#utility.yul\":4910:4916   */\n              dup3\n                /* \"#utility.yul\":4903:4907   */\n              0x20\n                /* \"#utility.yul\":4895:4901   */\n              dup7\n                /* \"#utility.yul\":4891:4908   */\n              add\n                /* \"#utility.yul\":4843:4922   */\n              tag_140\n              jump\t// in\n            tag_238:\n                /* \"#utility.yul\":4834:4922   */\n              swap2\n              pop\n                /* \"#utility.yul\":4650:4928   */\n              pop\n                /* \"#utility.yul\":4588:4928   */\n              swap3\n              swap2\n              pop\n              pop\n              jump\t// out\n                /* \"#utility.yul\":4934:5588   */\n            tag_22:\n                /* \"#utility.yul\":5012:5018   */\n              0x00\n                /* \"#utility.yul\":5020:5026   */\n              dup1\n                /* \"#utility.yul\":5069:5071   */\n              0x40\n                /* \"#utility.yul\":5057:5066   */\n              dup4\n                /* \"#utility.yul\":5048:5055   */\n              dup6\n                /* \"#utility.yul\":5044:5067   */\n              sub\n                /* \"#utility.yul\":5040:5072   */\n              slt\n                /* \"#utility.yul\":5037:5156   */\n              iszero\n              tag_240\n              jumpi\n                /* \"#utility.yul\":5075:5154   */\n              tag_241\n              tag_119\n              jump\t// in\n            tag_241:\n                /* \"#utility.yul\":5037:5156   */\n            tag_240:\n                /* \"#utility.yul\":5223:5224   */\n              0x00\n                /* \"#utility.yul\":5212:5221   */\n              dup4\n                /* \"#utility.yul\":5208:5225   */\n              add\n                /* \"#utility.yul\":5195:5226   */\n              calldataload\n                /* \"#utility.yul\":5253:5271   */\n              0xffffffffffffffff\n                /* \"#utility.yul\":5245:5251   */\n              dup2\n                /* \"#utility.yul\":5242:5272   */\n              gt\n                /* \"#utility.yul\":5239:5356   */\n              iszero\n              tag_242\n              jumpi\n                /* \"#utility.yul\":5275:5354   */\n              tag_243\n              tag_120\n              jump\t// in\n            tag_243:\n                /* \"#utility.yul\":5239:5356   */\n            tag_242:\n                /* \"#utility.yul\":5380:5443   */\n              tag_244\n                /* \"#utility.yul\":5435:5442   */\n              dup6\n                /* \"#utility.yul\":5426:5432   */\n              dup3\n                /* \"#utility.yul\":5415:5424   */\n              dup7\n                /* \"#utility.yul\":5411:5433   */\n              add\n                /* \"#utility.yul\":5380:5443   */\n              tag_141\n              jump\t// in\n            tag_244:\n                /* \"#utility.yul\":5370:5443   */\n              swap3\n              pop\n                /* \"#utility.yul\":5166:5453   */\n              pop\n                /* \"#utility.yul\":5492:5494   */\n              0x20\n                /* \"#utility.yul\":5518:5571   */\n              tag_245\n                /* \"#utility.yul\":5563:5570   */\n              dup6\n                /* \"#utility.yul\":5554:5560   */\n              dup3\n                /* \"#utility.yul\":5543:5552   */\n              dup7\n                /* \"#utility.yul\":5539:5561   */\n              add\n                /* \"#utility.yul\":5518:5571   */\n              tag_126\n              jump\t// in\n            tag_245:\n                /* \"#utility.yul\":5508:5571   */\n              swap2\n              pop\n                /* \"#utility.yul\":5463:5581   */\n              pop\n                /* \"#utility.yul\":4934:5588   */\n              swap3\n              pop\n              swap3\n              swap1\n              pop\n              jump\t// out\n                /* \"#utility.yul\":5594:6062   */\n            tag_26:\n                /* \"#utility.yul\":5659:5665   */\n              0x00\n                /* \"#utility.yul\":5667:5673   */\n              dup1\n                /* \"#utility.yul\":5716:5718   */\n              0x40\n                /* \"#utility.yul\":5704:5713   */\n              dup4\n                /* \"#utility.yul\":5695:5702   */\n              dup6\n                /* \"#utility.yul\":5691:5714   */\n              sub\n                /* \"#utility.yul\":5687:5719   */\n              slt\n                /* \"#utility.yul\":5684:5803   */\n              iszero\n              tag_247\n              jumpi\n                /* \"#utility.yul\":5722:5801   */\n              tag_248\n              tag_119\n              jump\t// in\n            tag_248:\n                /* \"#utility.yul\":5684:5803   */\n            tag_247:\n                /* \"#utility.yul\":5842:5843   */\n              0x00\n                /* \"#utility.yul\":5867:5920   */\n              tag_249\n                /* \"#utility.yul\":5912:5919   */\n              dup6\n                /* \"#utility.yul\":5903:5909   */\n              dup3\n                /* \"#utility.yul\":5892:5901   */\n              dup7\n                /* \"#utility.yul\":5888:5910   */\n              add\n                /* \"#utility.yul\":5867:5920   */\n              tag_130\n              jump\t// in\n            tag_249:\n                /* \"#utility.yul\":5857:5920   */\n              swap3\n              pop\n                /* \"#utility.yul\":5813:5930   */\n              pop\n                /* \"#utility.yul\":5969:5971   */\n              0x20\n                /* \"#utility.yul\":5995:6045   */\n              tag_250\n                /* \"#utility.yul\":6037:6044   */\n              dup6\n                /* \"#utility.yul\":6028:6034   */\n              dup3\n                /* \"#utility.yul\":6017:6026   */\n              dup7\n                /* \"#utility.yul\":6013:6035   */\n              add\n                /* \"#utility.yul\":5995:6045   */\n              tag_123\n              jump\t// in\n            tag_250:\n                /* \"#utility.yul\":5985:6045   */\n              swap2\n              pop\n                /* \"#utility.yul\":5940:6055   */\n              pop\n                /* \"#utility.yul\":5594:6062   */\n              swap3\n              pop\n              swap3\n              swap1\n              pop\n              jump\t// out\n                /* \"#utility.yul\":6068:6237   */\n            tag_142:\n                /* \"#utility.yul\":6152:6163   */\n              0x00\n                /* \"#utility.yul\":6186:6192   */\n              dup3\n                /* \"#utility.yul\":6181:6184   */\n              dup3\n                /* \"#utility.yul\":6174:6193   */\n              mstore\n                /* \"#utility.yul\":6226:6230   */\n              0x20\n                /* \"#utility.yul\":6221:6224   */\n              dup3\n                /* \"#utility.yul\":6217:6231   */\n              add\n                /* \"#utility.yul\":6202:6231   */\n              swap1\n              pop\n                /* \"#utility.yul\":6068:6237   */\n              swap3\n              swap2\n              pop\n              pop\n              jump\t// out\n                /* \"#utility.yul\":6243:6405   */\n            tag_143:\n                /* \"#utility.yul\":6383:6397   */\n              0x566f74696e6720656e6465640000000000000000000000000000000000000000\n                /* \"#utility.yul\":6379:6380   */\n              0x00\n                /* \"#utility.yul\":6371:6377   */\n              dup3\n                /* \"#utility.yul\":6367:6381   */\n              add\n                /* \"#utility.yul\":6360:6398   */\n              mstore\n                /* \"#utility.yul\":6243:6405   */\n              pop\n              jump\t// out\n                /* \"#utility.yul\":6411:6777   */\n            tag_144:\n                /* \"#utility.yul\":6553:6556   */\n              0x00\n                /* \"#utility.yul\":6574:6641   */\n              tag_254\n                /* \"#utility.yul\":6638:6640   */\n              0x0c\n                /* \"#utility.yul\":6633:6636   */\n              dup4\n                /* \"#utility.yul\":6574:6641   */\n              tag_142\n              jump\t// in\n            tag_254:\n                /* \"#utility.yul\":6567:6641   */\n              swap2\n              pop\n                /* \"#utility.yul\":6650:6743   */\n              tag_255\n                /* \"#utility.yul\":6739:6742   */\n              dup3\n                /* \"#utility.yul\":6650:6743   */\n              tag_143\n              jump\t// in\n            tag_255:\n                /* \"#utility.yul\":6768:6770   */\n              0x20\n                /* \"#utility.yul\":6763:6766   */\n              dup3\n                /* \"#utility.yul\":6759:6771   */\n              add\n                /* \"#utility.yul\":6752:6771   */\n              swap1\n              pop\n                /* \"#utility.yul\":6411:6777   */\n              swap2\n              swap1\n              pop\n              jump\t// out\n                /* \"#utility.yul\":6783:7202   */\n            tag_31:\n                /* \"#utility.yul\":6949:6953   */\n              0x00\n                /* \"#utility.yul\":6987:6989   */\n              0x20\n                /* \"#utility.yul\":6976:6985   */\n              dup3\n                /* \"#utility.yul\":6972:6990   */\n              add\n                /* \"#utility.yul\":6964:6990   */\n              swap1\n              pop\n                /* \"#utility.yul\":7036:7045   */\n              dup2\n                /* \"#utility.yul\":7030:7034   */\n              dup2\n                /* \"#utility.yul\":7026:7046   */\n              sub\n                /* \"#utility.yul\":7022:7023   */\n              0x00\n                /* \"#utility.yul\":7011:7020   */\n              dup4\n                /* \"#utility.yul\":7007:7024   */\n              add\n                /* \"#utility.yul\":7000:7047   */\n              mstore\n                /* \"#utility.yul\":7064:7195   */\n              tag_257\n                /* \"#utility.yul\":7190:7194   */\n              dup2\n                /* \"#utility.yul\":7064:7195   */\n              tag_144\n              jump\t// in\n            tag_257:\n                /* \"#utility.yul\":7056:7195   */\n              swap1\n              pop\n                /* \"#utility.yul\":6783:7202   */\n              swap2\n              swap1\n              pop\n              jump\t// out\n                /* \"#utility.yul\":7208:7371   */\n            tag_145:\n                /* \"#utility.yul\":7348:7363   */\n              0x416c726561647920766f74656400000000000000000000000000000000000000\n                /* \"#utility.yul\":7344:7345   */\n              0x00\n                /* \"#utility.yul\":7336:7342   */\n              dup3\n                /* \"#utility.yul\":7332:7346   */\n              add\n                /* \"#utility.yul\":7325:7364   */\n              mstore\n                /* \"#utility.yul\":7208:7371   */\n              pop\n              jump\t// out\n                /* \"#utility.yul\":7377:7743   */\n            tag_146:\n                /* \"#utility.yul\":7519:7522   */\n              0x00\n                /* \"#utility.yul\":7540:7607   */\n              tag_260\n                /* \"#utility.yul\":7604:7606   */\n              0x0d\n                /* \"#utility.yul\":7599:7602   */\n              dup4\n                /* \"#utility.yul\":7540:7607   */\n              tag_142\n              jump\t// in\n            tag_260:\n                /* \"#utility.yul\":7533:7607   */\n              swap2\n              pop\n                /* \"#utility.yul\":7616:7709   */\n              tag_261\n                /* \"#utility.yul\":7705:7708   */\n              dup3\n                /* \"#utility.yul\":7616:7709   */\n              tag_145\n              jump\t// in\n            tag_261:\n                /* \"#utility.yul\":7734:7736   */\n              0x20\n                /* \"#utility.yul\":7729:7732   */\n              dup3\n                /* \"#utility.yul\":7725:7737   */\n              add\n                /* \"#utility.yul\":7718:7737   */\n              swap1\n              pop\n                /* \"#utility.yul\":7377:7743   */\n              swap2\n              swap1\n              pop\n              jump\t// out\n                /* \"#utility.yul\":7749:8168   */\n            tag_34:\n                /* \"#utility.yul\":7915:7919   */\n              0x00\n                /* \"#utility.yul\":7953:7955   */\n              0x20\n                /* \"#utility.yul\":7942:7951   */\n              dup3\n                /* \"#utility.yul\":7938:7956   */\n              add\n                /* \"#utility.yul\":7930:7956   */\n              swap1\n              pop\n                /* \"#utility.yul\":8002:8011   */\n              dup2\n                /* \"#utility.yul\":7996:8000   */\n              dup2\n                /* \"#utility.yul\":7992:8012   */\n              sub\n                /* \"#utility.yul\":7988:7989   */\n              0x00\n                /* \"#utility.yul\":7977:7986   */\n              dup4\n                /* \"#utility.yul\":7973:7990   */\n              add\n                /* \"#utility.yul\":7966:8013   */\n              mstore\n                /* \"#utility.yul\":8030:8161   */\n              tag_263\n                /* \"#utility.yul\":8156:8160   */\n              dup2\n                /* \"#utility.yul\":8030:8161   */\n              tag_146\n              jump\t// in\n            tag_263:\n                /* \"#utility.yul\":8022:8161   */\n              swap1\n              pop\n                /* \"#utility.yul\":7749:8168   */\n              swap2\n              swap1\n              pop\n              jump\t// out\n                /* \"#utility.yul\":8174:8283   */\n            tag_147:\n                /* \"#utility.yul\":8255:8276   */\n              tag_265\n                /* \"#utility.yul\":8270:8275   */\n              dup2\n                /* \"#utility.yul\":8255:8276   */\n              tag_121\n              jump\t// in\n            tag_265:\n                /* \"#utility.yul\":8250:8253   */\n              dup3\n                /* \"#utility.yul\":8243:8277   */\n              mstore\n                /* \"#utility.yul\":8174:8283   */\n              pop\n              pop\n              jump\t// out\n                /* \"#utility.yul\":8289:8407   */\n            tag_148:\n                /* \"#utility.yul\":8376:8400   */\n              tag_267\n                /* \"#utility.yul\":8394:8399   */\n              dup2\n                /* \"#utility.yul\":8376:8400   */\n              tag_124\n              jump\t// in\n            tag_267:\n                /* \"#utility.yul\":8371:8374   */\n              dup3\n                /* \"#utility.yul\":8364:8401   */\n              mstore\n                /* \"#utility.yul\":8289:8407   */\n              pop\n              pop\n              jump\t// out\n                /* \"#utility.yul\":8413:8733   */\n            tag_40:\n                /* \"#utility.yul\":8528:8532   */\n              0x00\n                /* \"#utility.yul\":8566:8568   */\n              0x40\n                /* \"#utility.yul\":8555:8564   */\n              dup3\n                /* \"#utility.yul\":8551:8569   */\n              add\n                /* \"#utility.yul\":8543:8569   */\n              swap1\n              pop\n                /* \"#utility.yul\":8579:8644   */\n              tag_269\n                /* \"#utility.yul\":8641:8642   */\n              0x00\n                /* \"#utility.yul\":8630:8639   */\n              dup4\n                /* \"#utility.yul\":8626:8643   */\n              add\n                /* \"#utility.yul\":8617:8623   */\n              dup6\n                /* \"#utility.yul\":8579:8644   */\n              tag_147\n              jump\t// in\n            tag_269:\n                /* \"#utility.yul\":8654:8726   */\n              tag_270\n                /* \"#utility.yul\":8722:8724   */\n              0x20\n                /* \"#utility.yul\":8711:8720   */\n              dup4\n                /* \"#utility.yul\":8707:8725   */\n              add\n                /* \"#utility.yul\":8698:8704   */\n              dup5\n                /* \"#utility.yul\":8654:8726   */\n              tag_148\n              jump\t// in\n            tag_270:\n                /* \"#utility.yul\":8413:8733   */\n              swap4\n              swap3\n              pop\n              pop\n              pop\n              jump\t// out\n                /* \"#utility.yul\":8739:8919   */\n            tag_149:\n                /* \"#utility.yul\":8787:8864   */\n              0x4e487b7100000000000000000000000000000000000000000000000000000000\n                /* \"#utility.yul\":8784:8785   */\n              0x00\n                /* \"#utility.yul\":8777:8865   */\n              mstore\n                /* \"#utility.yul\":8884:8888   */\n              0x11\n                /* \"#utility.yul\":8881:8882   */\n              0x04\n                /* \"#utility.yul\":8874:8889   */\n              mstore\n                /* \"#utility.yul\":8908:8912   */\n              0x24\n                /* \"#utility.yul\":8905:8906   */\n              0x00\n                /* \"#utility.yul\":8898:8913   */\n              revert\n                /* \"#utility.yul\":8925:9116   */\n            tag_43:\n                /* \"#utility.yul\":8965:8968   */\n              0x00\n                /* \"#utility.yul\":8984:9004   */\n              tag_273\n                /* \"#utility.yul\":9002:9003   */\n              dup3\n                /* \"#utility.yul\":8984:9004   */\n              tag_124\n              jump\t// in\n            tag_273:\n                /* \"#utility.yul\":8979:9004   */\n              swap2\n              pop\n                /* \"#utility.yul\":9018:9038   */\n              tag_274\n                /* \"#utility.yul\":9036:9037   */\n              dup4\n                /* \"#utility.yul\":9018:9038   */\n              tag_124\n              jump\t// in\n            tag_274:\n                /* \"#utility.yul\":9013:9038   */\n              swap3\n              pop\n                /* \"#utility.yul\":9061:9062   */\n              dup3\n                /* \"#utility.yul\":9058:9059   */\n              dup3\n                /* \"#utility.yul\":9054:9063   */\n              add\n                /* \"#utility.yul\":9047:9063   */\n              swap1\n              pop\n                /* \"#utility.yul\":9082:9085   */\n              dup1\n                /* \"#utility.yul\":9079:9080   */\n              dup3\n                /* \"#utility.yul\":9076:9086   */\n              gt\n                /* \"#utility.yul\":9073:9109   */\n              iszero\n              tag_275\n              jumpi\n                /* \"#utility.yul\":9089:9107   */\n              tag_276\n              tag_149\n              jump\t// in\n            tag_276:\n                /* \"#utility.yul\":9073:9109   */\n            tag_275:\n                /* \"#utility.yul\":8925:9116   */\n              swap3\n              swap2\n              pop\n              pop\n              jump\t// out\n                /* \"#utility.yul\":9122:9302   */\n            tag_47:\n                /* \"#utility.yul\":9170:9247   */\n              0x4e487b7100000000000000000000000000000000000000000000000000000000\n                /* \"#utility.yul\":9167:9168   */\n              0x00\n                /* \"#utility.yul\":9160:9248   */\n              mstore\n                /* \"#utility.yul\":9267:9271   */\n              0x32\n                /* \"#utility.yul\":9264:9265   */\n              0x04\n                /* \"#utility.yul\":9257:9272   */\n              mstore\n                /* \"#utility.yul\":9291:9295   */\n              0x24\n                /* \"#utility.yul\":9288:9289   */\n              0x00\n                /* \"#utility.yul\":9281:9296   */\n              revert\n                /* \"#utility.yul\":9308:9451   */\n            tag_150:\n                /* \"#utility.yul\":9365:9370   */\n              0x00\n                /* \"#utility.yul\":9396:9402   */\n              dup2\n                /* \"#utility.yul\":9390:9403   */\n              mload\n                /* \"#utility.yul\":9381:9403   */\n              swap1\n              pop\n                /* \"#utility.yul\":9412:9445   */\n              tag_279\n                /* \"#utility.yul\":9439:9444   */\n              dup2\n                /* \"#utility.yul\":9412:9445   */\n              tag_125\n              jump\t// in\n            tag_279:\n                /* \"#utility.yul\":9308:9451   */\n              swap3\n              swap2\n              pop\n              pop\n              jump\t// out\n                /* \"#utility.yul\":9457:9808   */\n            tag_54:\n                /* \"#utility.yul\":9527:9533   */\n              0x00\n                /* \"#utility.yul\":9576:9578   */\n              0x20\n                /* \"#utility.yul\":9564:9573   */\n              dup3\n                /* \"#utility.yul\":9555:9562   */\n              dup5\n                /* \"#utility.yul\":9551:9574   */\n              sub\n                /* \"#utility.yul\":9547:9579   */\n              slt\n                /* \"#utility.yul\":9544:9663   */\n              iszero\n              tag_281\n              jumpi\n                /* \"#utility.yul\":9582:9661   */\n              tag_282\n              tag_119\n              jump\t// in\n            tag_282:\n                /* \"#utility.yul\":9544:9663   */\n            tag_281:\n                /* \"#utility.yul\":9702:9703   */\n              0x00\n                /* \"#utility.yul\":9727:9791   */\n              tag_283\n                /* \"#utility.yul\":9783:9790   */\n              dup5\n                /* \"#utility.yul\":9774:9780   */\n              dup3\n                /* \"#utility.yul\":9763:9772   */\n              dup6\n                /* \"#utility.yul\":9759:9781   */\n              add\n                /* \"#utility.yul\":9727:9791   */\n              tag_150\n              jump\t// in\n            tag_283:\n                /* \"#utility.yul\":9717:9791   */\n              swap2\n              pop\n                /* \"#utility.yul\":9673:9801   */\n              pop\n                /* \"#utility.yul\":9457:9808   */\n              swap3\n              swap2\n              pop\n              pop\n              jump\t// out\n                /* \"#utility.yul\":9814:9994   */\n            tag_151:\n                /* \"#utility.yul\":9862:9939   */\n              0x4e487b7100000000000000000000000000000000000000000000000000000000\n                /* \"#utility.yul\":9859:9860   */\n              0x00\n                /* \"#utility.yul\":9852:9940   */\n              mstore\n                /* \"#utility.yul\":9959:9963   */\n              0x12\n                /* \"#utility.yul\":9956:9957   */\n              0x04\n                /* \"#utility.yul\":9949:9964   */\n              mstore\n                /* \"#utility.yul\":9983:9987   */\n              0x24\n                /* \"#utility.yul\":9980:9981   */\n              0x00\n                /* \"#utility.yul\":9973:9988   */\n              revert\n                /* \"#utility.yul\":10000:10185   */\n            tag_59:\n                /* \"#utility.yul\":10040:10041   */\n              0x00\n                /* \"#utility.yul\":10057:10077   */\n              tag_286\n                /* \"#utility.yul\":10075:10076   */\n              dup3\n                /* \"#utility.yul\":10057:10077   */\n              tag_124\n              jump\t// in\n            tag_286:\n                /* \"#utility.yul\":10052:10077   */\n              swap2\n              pop\n                /* \"#utility.yul\":10091:10111   */\n              tag_287\n                /* \"#utility.yul\":10109:10110   */\n              dup4\n                /* \"#utility.yul\":10091:10111   */\n              tag_124\n              jump\t// in\n            tag_287:\n                /* \"#utility.yul\":10086:10111   */\n              swap3\n              pop\n                /* \"#utility.yul\":10130:10131   */\n              dup3\n                /* \"#utility.yul\":10120:10155   */\n              tag_288\n              jumpi\n                /* \"#utility.yul\":10135:10153   */\n              tag_289\n              tag_151\n              jump\t// in\n            tag_289:\n                /* \"#utility.yul\":10120:10155   */\n            tag_288:\n                /* \"#utility.yul\":10177:10178   */\n              dup3\n                /* \"#utility.yul\":10174:10175   */\n              dup3\n                /* \"#utility.yul\":10170:10179   */\n              div\n                /* \"#utility.yul\":10165:10179   */\n              swap1\n              pop\n                /* \"#utility.yul\":10000:10185   */\n              swap3\n              swap2\n              pop\n              pop\n              jump\t// out\n                /* \"#utility.yul\":10191:10363   */\n            tag_152:\n                /* \"#utility.yul\":10331:10355   */\n              0x4e65656420312520746f207375626d69742070726f7000000000000000000000\n                /* \"#utility.yul\":10327:10328   */\n              0x00\n                /* \"#utility.yul\":10319:10325   */\n              dup3\n                /* \"#utility.yul\":10315:10329   */\n              add\n                /* \"#utility.yul\":10308:10356   */\n              mstore\n                /* \"#utility.yul\":10191:10363   */\n              pop\n              jump\t// out\n                /* \"#utility.yul\":10369:10735   */\n            tag_153:\n                /* \"#utility.yul\":10511:10514   */\n              0x00\n                /* \"#utility.yul\":10532:10599   */\n              tag_292\n                /* \"#utility.yul\":10596:10598   */\n              0x16\n                /* \"#utility.yul\":10591:10594   */\n              dup4\n                /* \"#utility.yul\":10532:10599   */\n              tag_142\n              jump\t// in\n            tag_292:\n                /* \"#utility.yul\":10525:10599   */\n              swap2\n              pop\n                /* \"#utility.yul\":10608:10701   */\n              tag_293\n                /* \"#utility.yul\":10697:10700   */\n              dup3\n                /* \"#utility.yul\":10608:10701   */\n              tag_152\n              jump\t// in\n            tag_293:\n                /* \"#utility.yul\":10726:10728   */\n              0x20\n                /* \"#utility.yul\":10721:10724   */\n              dup3\n                /* \"#utility.yul\":10717:10729   */\n              add\n                /* \"#utility.yul\":10710:10729   */\n              swap1\n              pop\n                /* \"#utility.yul\":10369:10735   */\n              swap2\n              swap1\n              pop\n              jump\t// out\n                /* \"#utility.yul\":10741:11160   */\n            tag_62:\n                /* \"#utility.yul\":10907:10911   */\n              0x00\n                /* \"#utility.yul\":10945:10947   */\n              0x20\n                /* \"#utility.yul\":10934:10943   */\n              dup3\n                /* \"#utility.yul\":10930:10948   */\n              add\n                /* \"#utility.yul\":10922:10948   */\n              swap1\n              pop\n                /* \"#utility.yul\":10994:11003   */\n              dup2\n                /* \"#utility.yul\":10988:10992   */\n              dup2\n                /* \"#utility.yul\":10984:11004   */\n              sub\n                /* \"#utility.yul\":10980:10981   */\n              0x00\n                /* \"#utility.yul\":10969:10978   */\n              dup4\n                /* \"#utility.yul\":10965:10982   */\n              add\n                /* \"#utility.yul\":10958:11005   */\n              mstore\n                /* \"#utility.yul\":11022:11153   */\n              tag_295\n                /* \"#utility.yul\":11148:11152   */\n              dup2\n                /* \"#utility.yul\":11022:11153   */\n              tag_153\n              jump\t// in\n            tag_295:\n                /* \"#utility.yul\":11014:11153   */\n              swap1\n              pop\n                /* \"#utility.yul\":10741:11160   */\n              swap2\n              swap1\n              pop\n              jump\t// out\n                /* \"#utility.yul\":11166:11399   */\n            tag_64:\n                /* \"#utility.yul\":11205:11208   */\n              0x00\n                /* \"#utility.yul\":11228:11252   */\n              tag_297\n                /* \"#utility.yul\":11246:11251   */\n              dup3\n                /* \"#utility.yul\":11228:11252   */\n              tag_124\n              jump\t// in\n            tag_297:\n                /* \"#utility.yul\":11219:11252   */\n              swap2\n              pop\n                /* \"#utility.yul\":11274:11340   */\n              0xffffffffffffffffffffffffffffffffffffffffffffffffffffffffffffffff\n                /* \"#utility.yul\":11267:11272   */\n              dup3\n                /* \"#utility.yul\":11264:11341   */\n              sub\n                /* \"#utility.yul\":11261:11364   */\n              tag_298\n              jumpi\n                /* \"#utility.yul\":11344:11362   */\n              tag_299\n              tag_149\n              jump\t// in\n            tag_299:\n                /* \"#utility.yul\":11261:11364   */\n            tag_298:\n                /* \"#utility.yul\":11391:11392   */\n              0x01\n                /* \"#utility.yul\":11384:11389   */\n              dup3\n                /* \"#utility.yul\":11380:11393   */\n              add\n                /* \"#utility.yul\":11373:11393   */\n              swap1\n              pop\n                /* \"#utility.yul\":11166:11399   */\n              swap2\n              swap1\n              pop\n              jump\t// out\n                /* \"#utility.yul\":11405:11504   */\n            tag_154:\n                /* \"#utility.yul\":11457:11463   */\n              0x00\n                /* \"#utility.yul\":11491:11496   */\n              dup2\n                /* \"#utility.yul\":11485:11497   */\n              mload\n                /* \"#utility.yul\":11475:11497   */\n              swap1\n              pop\n                /* \"#utility.yul\":11405:11504   */\n              swap2\n              swap1\n              pop\n              jump\t// out\n                /* \"#utility.yul\":11510:11690   */\n            tag_155:\n                /* \"#utility.yul\":11558:11635   */\n              0x4e487b7100000000000000000000000000000000000000000000000000000000\n                /* \"#utility.yul\":11555:11556   */\n              0x00\n                /* \"#utility.yul\":11548:11636   */\n              mstore\n                /* \"#utility.yul\":11655:11659   */\n              0x22\n                /* \"#utility.yul\":11652:11653   */\n              0x04\n                /* \"#utility.yul\":11645:11660   */\n              mstore\n                /* \"#utility.yul\":11679:11683   */\n              0x24\n                /* \"#utility.yul\":11676:11677   */\n              0x00\n                /* \"#utility.yul\":11669:11684   */\n              revert\n                /* \"#utility.yul\":11696:12016   */\n            tag_156:\n                /* \"#utility.yul\":11740:11746   */\n              0x00\n                /* \"#utility.yul\":11777:11778   */\n              0x02\n                /* \"#utility.yul\":11771:11775   */\n              dup3\n                /* \"#utility.yul\":11767:11779   */\n              div\n                /* \"#utility.yul\":11757:11779   */\n              swap1\n              pop\n                /* \"#utility.yul\":11824:11825   */\n              0x01\n                /* \"#utility.yul\":11818:11822   */\n              dup3\n                /* \"#utility.yul\":11814:11826   */\n              and\n                /* \"#utility.yul\":11845:11863   */\n              dup1\n                /* \"#utility.yul\":11835:11916   */\n              tag_303\n              jumpi\n                /* \"#utility.yul\":11901:11905   */\n              0x7f\n                /* \"#utility.yul\":11893:11899   */\n              dup3\n                /* \"#utility.yul\":11889:11906   */\n              and\n                /* \"#utility.yul\":11879:11906   */\n              swap2\n              pop\n                /* \"#utility.yul\":11835:11916   */\n            tag_303:\n                /* \"#utility.yul\":11963:11965   */\n              0x20\n                /* \"#utility.yul\":11955:11961   */\n              dup3\n                /* \"#utility.yul\":11952:11966   */\n              lt\n                /* \"#utility.yul\":11932:11950   */\n              dup2\n                /* \"#utility.yul\":11929:11967   */\n              sub\n                /* \"#utility.yul\":11926:12010   */\n              tag_304\n              jumpi\n                /* \"#utility.yul\":11982:12000   */\n              tag_305\n              tag_155\n              jump\t// in\n            tag_305:\n                /* \"#utility.yul\":11926:12010   */\n            tag_304:\n                /* \"#utility.yul\":11747:12016   */\n              pop\n                /* \"#utility.yul\":11696:12016   */\n              swap2\n              swap1\n              pop\n              jump\t// out\n                /* \"#utility.yul\":12022:12163   */\n            tag_157:\n                /* \"#utility.yul\":12071:12075   */\n              0x00\n                /* \"#utility.yul\":12094:12097   */\n              dup2\n                /* \"#utility.yul\":12086:12097   */\n              swap1\n              pop\n                /* \"#utility.yul\":12117:12120   */\n              dup2\n                /* \"#utility.yul\":12114:12115   */\n              0x00\n                /* \"#utility.yul\":12107:12121   */\n              mstore\n                /* \"#utility.yul\":12151:12155   */\n              0x20\n                /* \"#utility.yul\":12148:12149   */\n              0x00\n                /* \"#utility.yul\":12138:12156   */\n              keccak256\n                /* \"#utility.yul\":12130:12156   */\n              swap1\n              pop\n                /* \"#utility.yul\":12022:12163   */\n              swap2\n              swap1\n              pop\n              jump\t// out\n                /* \"#utility.yul\":12169:12262   */\n            tag_158:\n                /* \"#utility.yul\":12206:12212   */\n              0x00\n                /* \"#utility.yul\":12253:12255   */\n              0x20\n                /* \"#utility.yul\":12248:12250   */\n              0x1f\n                /* \"#utility.yul\":12241:12246   */\n              dup4\n                /* \"#utility.yul\":12237:12251   */\n              add\n                /* \"#utility.yul\":12233:12256   */\n              div\n                /* \"#utility.yul\":12223:12256   */\n              swap1\n              pop\n                /* \"#utility.yul\":12169:12262   */\n              swap2\n              swap1\n              pop\n              jump\t// out\n                /* \"#utility.yul\":12268:12375   */\n            tag_159:\n                /* \"#utility.yul\":12312:12320   */\n              0x00\n                /* \"#utility.yul\":12362:12367   */\n              dup3\n                /* \"#utility.yul\":12356:12360   */\n              dup3\n                /* \"#utility.yul\":12352:12368   */\n              shl\n                /* \"#utility.yul\":12331:12368   */\n              swap1\n              pop\n                /* \"#utility.yul\":12268:12375   */\n              swap3\n              swap2\n              pop\n              pop\n              jump\t// out\n                /* \"#utility.yul\":12381:12774   */\n            tag_160:\n                /* \"#utility.yul\":12450:12456   */\n              0x00\n                /* \"#utility.yul\":12500:12501   */\n              0x08\n                /* \"#utility.yul\":12488:12498   */\n              dup4\n                /* \"#utility.yul\":12484:12502   */\n              mul\n                /* \"#utility.yul\":12523:12620   */\n              tag_310\n                /* \"#utility.yul\":12553:12619   */\n              0xffffffffffffffffffffffffffffffffffffffffffffffffffffffffffffffff\n                /* \"#utility.yul\":12542:12551   */\n              dup3\n                /* \"#utility.yul\":12523:12620   */\n              tag_159\n              jump\t// in\n            tag_310:\n                /* \"#utility.yul\":12641:12680   */\n              tag_311\n                /* \"#utility.yul\":12671:12679   */\n              dup7\n                /* \"#utility.yul\":12660:12669   */\n              dup4\n                /* \"#utility.yul\":12641:12680   */\n              tag_159\n              jump\t// in\n            tag_311:\n                /* \"#utility.yul\":12629:12680   */\n              swap6\n              pop\n                /* \"#utility.yul\":12713:12717   */\n              dup1\n                /* \"#utility.yul\":12709:12718   */\n              not\n                /* \"#utility.yul\":12702:12707   */\n              dup5\n                /* \"#utility.yul\":12698:12719   */\n              and\n                /* \"#utility.yul\":12689:12719   */\n              swap4\n              pop\n                /* \"#utility.yul\":12762:12766   */\n              dup1\n                /* \"#utility.yul\":12752:12760   */\n              dup7\n                /* \"#utility.yul\":12748:12767   */\n              and\n                /* \"#utility.yul\":12741:12746   */\n              dup5\n                /* \"#utility.yul\":12738:12768   */\n              or\n                /* \"#utility.yul\":12728:12768   */\n              swap3\n              pop\n                /* \"#utility.yul\":12457:12774   */\n              pop\n              pop\n                /* \"#utility.yul\":12381:12774   */\n              swap4\n              swap3\n              pop\n              pop\n              pop\n              jump\t// out\n                /* \"#utility.yul\":12780:12840   */\n            tag_161:\n                /* \"#utility.yul\":12808:12811   */\n              0x00\n                /* \"#utility.yul\":12829:12834   */\n              dup2\n                /* \"#utility.yul\":12822:12834   */\n              swap1\n              pop\n                /* \"#utility.yul\":12780:12840   */\n              swap2\n              swap1\n              pop\n              jump\t// out\n                /* \"#utility.yul\":12846:12988   */\n            tag_162:\n                /* \"#utility.yul\":12896:12905   */\n              0x00\n                /* \"#utility.yul\":12929:12982   */\n              tag_314\n                /* \"#utility.yul\":12947:12981   */\n              tag_315\n                /* \"#utility.yul\":12956:12980   */\n              tag_316\n                /* \"#utility.yul\":12974:12979   */\n              dup5\n                /* \"#utility.yul\":12956:12980   */\n              tag_124\n              jump\t// in\n            tag_316:\n                /* \"#utility.yul\":12947:12981   */\n              tag_161\n              jump\t// in\n            tag_315:\n                /* \"#utility.yul\":12929:12982   */\n              tag_124\n              jump\t// in\n            tag_314:\n                /* \"#utility.yul\":12916:12982   */\n              swap1\n              pop\n                /* \"#utility.yul\":12846:12988   */\n              swap2\n              swap1\n              pop\n              jump\t// out\n                /* \"#utility.yul\":12994:13069   */\n            tag_163:\n                /* \"#utility.yul\":13037:13040   */\n              0x00\n                /* \"#utility.yul\":13058:13063   */\n              dup2\n                /* \"#utility.yul\":13051:13063   */\n              swap1\n              pop\n                /* \"#utility.yul\":12994:13069   */\n              swap2\n              swap1\n              pop\n              jump\t// out\n                /* \"#utility.yul\":13075:13344   */\n            tag_164:\n                /* \"#utility.yul\":13185:13224   */\n              tag_319\n                /* \"#utility.yul\":13216:13223   */\n              dup4\n                /* \"#utility.yul\":13185:13224   */\n              tag_162\n              jump\t// in\n            tag_319:\n                /* \"#utility.yul\":13246:13337   */\n              tag_320\n                /* \"#utility.yul\":13295:13336   */\n              tag_321\n                /* \"#utility.yul\":13319:13335   */\n              dup3\n                /* \"#utility.yul\":13295:13336   */\n              tag_163\n              jump\t// in\n            tag_321:\n                /* \"#utility.yul\":13287:13293   */\n              dup5\n                /* \"#utility.yul\":13280:13284   */\n              dup5\n                /* \"#utility.yul\":13274:13285   */\n              sload\n                /* \"#utility.yul\":13246:13337   */\n              tag_160\n              jump\t// in\n            tag_320:\n                /* \"#utility.yul\":13240:13244   */\n              dup3\n                /* \"#utility.yul\":13233:13338   */\n              sstore\n                /* \"#utility.yul\":13151:13344   */\n              pop\n                /* \"#utility.yul\":13075:13344   */\n              pop\n              pop\n              pop\n              jump\t// out\n                /* \"#utility.yul\":13350:13423   */\n            tag_165:\n                /* \"#utility.yul\":13395:13398   */\n              0x00\n                /* \"#utility.yul\":13350:13423   */\n              swap1\n              jump\t// out\n                /* \"#utility.yul\":13429:13618   */\n            tag_166:\n                /* \"#utility.yul\":13506:13538   */\n              tag_324\n              tag_165\n              jump\t// in\n            tag_324:\n                /* \"#utility.yul\":13547:13612   */\n              tag_325\n                /* \"#utility.yul\":13605:13611   */\n              dup2\n                /* \"#utility.yul\":13597:13603   */\n              dup5\n                /* \"#utility.yul\":13591:13595   */\n              dup5\n                /* \"#utility.yul\":13547:13612   */\n              tag_164\n              jump\t// in\n            tag_325:\n                /* \"#utility.yul\":13482:13618   */\n              pop\n                /* \"#utility.yul\":13429:13618   */\n              pop\n              pop\n              jump\t// out\n                /* \"#utility.yul\":13624:13810   */\n            tag_167:\n                /* \"#utility.yul\":13684:13804   */\n            tag_327:\n                /* \"#utility.yul\":13701:13704   */\n              dup2\n                /* \"#utility.yul\":13694:13699   */\n              dup2\n                /* \"#utility.yul\":13691:13705   */\n              lt\n                /* \"#utility.yul\":13684:13804   */\n              iszero\n              tag_329\n              jumpi\n                /* \"#utility.yul\":13755:13794   */\n              tag_330\n                /* \"#utility.yul\":13792:13793   */\n              0x00\n                /* \"#utility.yul\":13785:13790   */\n              dup3\n                /* \"#utility.yul\":13755:13794   */\n              tag_166\n              jump\t// in\n            tag_330:\n                /* \"#utility.yul\":13728:13729   */\n              0x01\n                /* \"#utility.yul\":13721:13726   */\n              dup2\n                /* \"#utility.yul\":13717:13730   */\n              add\n                /* \"#utility.yul\":13708:13730   */\n              swap1\n              pop\n                /* \"#utility.yul\":13684:13804   */\n              jump(tag_327)\n            tag_329:\n                /* \"#utility.yul\":13624:13810   */\n              pop\n              pop\n              jump\t// out\n                /* \"#utility.yul\":13816:14359   */\n            tag_168:\n                /* \"#utility.yul\":13917:13919   */\n              0x1f\n                /* \"#utility.yul\":13912:13915   */\n              dup3\n                /* \"#utility.yul\":13909:13920   */\n              gt\n                /* \"#utility.yul\":13906:14352   */\n              iszero\n              tag_332\n              jumpi\n                /* \"#utility.yul\":13951:13989   */\n              tag_333\n                /* \"#utility.yul\":13983:13988   */\n              dup2\n                /* \"#utility.yul\":13951:13989   */\n              tag_157\n              jump\t// in\n            tag_333:\n                /* \"#utility.yul\":14035:14064   */\n              tag_334\n                /* \"#utility.yul\":14053:14063   */\n              dup5\n                /* \"#utility.yul\":14035:14064   */\n              tag_158\n              jump\t// in\n            tag_334:\n                /* \"#utility.yul\":14025:14033   */\n              dup2\n                /* \"#utility.yul\":14021:14065   */\n              add\n                /* \"#utility.yul\":14218:14220   */\n              0x20\n                /* \"#utility.yul\":14206:14216   */\n              dup6\n                /* \"#utility.yul\":14203:14221   */\n              lt\n                /* \"#utility.yul\":14200:14249   */\n              iszero\n              tag_335\n              jumpi\n                /* \"#utility.yul\":14239:14247   */\n              dup2\n                /* \"#utility.yul\":14224:14247   */\n              swap1\n              pop\n                /* \"#utility.yul\":14200:14249   */\n            tag_335:\n                /* \"#utility.yul\":14262:14342   */\n              tag_336\n                /* \"#utility.yul\":14318:14340   */\n              tag_337\n                /* \"#utility.yul\":14336:14339   */\n              dup6\n                /* \"#utility.yul\":14318:14340   */\n              tag_158\n              jump\t// in\n            tag_337:\n                /* \"#utility.yul\":14308:14316   */\n              dup4\n                /* \"#utility.yul\":14304:14341   */\n              add\n                /* \"#utility.yul\":14291:14302   */\n              dup3\n                /* \"#utility.yul\":14262:14342   */\n              tag_167\n              jump\t// in\n            tag_336:\n                /* \"#utility.yul\":13921:14352   */\n              pop\n              pop\n                /* \"#utility.yul\":13906:14352   */\n            tag_332:\n                /* \"#utility.yul\":13816:14359   */\n              pop\n              pop\n              pop\n              jump\t// out\n                /* \"#utility.yul\":14365:14482   */\n            tag_169:\n                /* \"#utility.yul\":14419:14427   */\n              0x00\n                /* \"#utility.yul\":14469:14474   */\n              dup3\n                /* \"#utility.yul\":14463:14467   */\n              dup3\n                /* \"#utility.yul\":14459:14475   */\n              shr\n                /* \"#utility.yul\":14438:14475   */\n              swap1\n              pop\n                /* \"#utility.yul\":14365:14482   */\n              swap3\n              swap2\n              pop\n              pop\n              jump\t// out\n                /* \"#utility.yul\":14488:14657   */\n            tag_170:\n                /* \"#utility.yul\":14532:14538   */\n              0x00\n                /* \"#utility.yul\":14565:14616   */\n              tag_340\n                /* \"#utility.yul\":14613:14614   */\n              0x00\n                /* \"#utility.yul\":14609:14615   */\n              not\n                /* \"#utility.yul\":14601:14606   */\n              dup5\n                /* \"#utility.yul\":14598:14599   */\n              0x08\n                /* \"#utility.yul\":14594:14607   */\n              mul\n                /* \"#utility.yul\":14565:14616   */\n              tag_169\n              jump\t// in\n            tag_340:\n                /* \"#utility.yul\":14561:14617   */\n              not\n                /* \"#utility.yul\":14646:14650   */\n              dup1\n                /* \"#utility.yul\":14640:14644   */\n              dup4\n                /* \"#utility.yul\":14636:14651   */\n              and\n                /* \"#utility.yul\":14626:14651   */\n              swap2\n              pop\n                /* \"#utility.yul\":14539:14657   */\n              pop\n                /* \"#utility.yul\":14488:14657   */\n              swap3\n              swap2\n              pop\n              pop\n              jump\t// out\n                /* \"#utility.yul\":14662:14957   */\n            tag_171:\n                /* \"#utility.yul\":14738:14742   */\n              0x00\n                /* \"#utility.yul\":14884:14913   */\n              tag_342\n                /* \"#utility.yul\":14909:14912   */\n              dup4\n                /* \"#utility.yul\":14903:14907   */\n              dup4\n                /* \"#utility.yul\":14884:14913   */\n              tag_170\n              jump\t// in\n            tag_342:\n                /* \"#utility.yul\":14876:14913   */\n              swap2\n              pop\n                /* \"#utility.yul\":14946:14949   */\n              dup3\n                /* \"#utility.yul\":14943:14944   */\n              0x02\n                /* \"#utility.yul\":14939:14950   */\n              mul\n                /* \"#utility.yul\":14933:14937   */\n              dup3\n                /* \"#utility.yul\":14930:14951   */\n              or\n                /* \"#utility.yul\":14922:14951   */\n              swap1\n              pop\n                /* \"#utility.yul\":14662:14957   */\n              swap3\n              swap2\n              pop\n              pop\n              jump\t// out\n                /* \"#utility.yul\":14962:16357   */\n            tag_66:\n                /* \"#utility.yul\":15079:15116   */\n              tag_344\n                /* \"#utility.yul\":15112:15115   */\n              dup3\n                /* \"#utility.yul\":15079:15116   */\n              tag_154\n              jump\t// in\n            tag_344:\n                /* \"#utility.yul\":15181:15199   */\n              0xffffffffffffffff\n                /* \"#utility.yul\":15173:15179   */\n              dup2\n                /* \"#utility.yul\":15170:15200   */\n              gt\n                /* \"#utility.yul\":15167:15223   */\n              iszero\n              tag_345\n              jumpi\n                /* \"#utility.yul\":15203:15221   */\n              tag_346\n              tag_135\n              jump\t// in\n            tag_346:\n                /* \"#utility.yul\":15167:15223   */\n            tag_345:\n                /* \"#utility.yul\":15247:15285   */\n              tag_347\n                /* \"#utility.yul\":15279:15283   */\n              dup3\n                /* \"#utility.yul\":15273:15284   */\n              sload\n                /* \"#utility.yul\":15247:15285   */\n              tag_156\n              jump\t// in\n            tag_347:\n                /* \"#utility.yul\":15332:15399   */\n              tag_348\n                /* \"#utility.yul\":15392:15398   */\n              dup3\n                /* \"#utility.yul\":15384:15390   */\n              dup3\n                /* \"#utility.yul\":15378:15382   */\n              dup6\n                /* \"#utility.yul\":15332:15399   */\n              tag_168\n              jump\t// in\n            tag_348:\n                /* \"#utility.yul\":15426:15427   */\n              0x00\n                /* \"#utility.yul\":15450:15454   */\n              0x20\n                /* \"#utility.yul\":15437:15454   */\n              swap1\n              pop\n                /* \"#utility.yul\":15482:15484   */\n              0x1f\n                /* \"#utility.yul\":15474:15480   */\n              dup4\n                /* \"#utility.yul\":15471:15485   */\n              gt\n                /* \"#utility.yul\":15499:15500   */\n              0x01\n                /* \"#utility.yul\":15494:16112   */\n              dup2\n              eq\n              tag_350\n              jumpi\n                /* \"#utility.yul\":16156:16157   */\n              0x00\n                /* \"#utility.yul\":16173:16179   */\n              dup5\n                /* \"#utility.yul\":16170:16247   */\n              iszero\n              tag_351\n              jumpi\n                /* \"#utility.yul\":16222:16231   */\n              dup3\n                /* \"#utility.yul\":16217:16220   */\n              dup8\n                /* \"#utility.yul\":16213:16232   */\n              add\n                /* \"#utility.yul\":16207:16233   */\n              mload\n                /* \"#utility.yul\":16198:16233   */\n              swap1\n              pop\n                /* \"#utility.yul\":16170:16247   */\n            tag_351:\n                /* \"#utility.yul\":16273:16340   */\n              tag_352\n                /* \"#utility.yul\":16333:16339   */\n              dup6\n                /* \"#utility.yul\":16326:16331   */\n              dup3\n                /* \"#utility.yul\":16273:16340   */\n              tag_171\n              jump\t// in\n            tag_352:\n                /* \"#utility.yul\":16267:16271   */\n              dup7\n                /* \"#utility.yul\":16260:16341   */\n              sstore\n                /* \"#utility.yul\":16129:16351   */\n              pop\n                /* \"#utility.yul\":15464:16351   */\n              jump(tag_349)\n                /* \"#utility.yul\":15494:16112   */\n            tag_350:\n                /* \"#utility.yul\":15546:15550   */\n              0x1f\n                /* \"#utility.yul\":15542:15551   */\n              not\n                /* \"#utility.yul\":15534:15540   */\n              dup5\n                /* \"#utility.yul\":15530:15552   */\n              and\n                /* \"#utility.yul\":15580:15617   */\n              tag_353\n                /* \"#utility.yul\":15612:15616   */\n              dup7\n                /* \"#utility.yul\":15580:15617   */\n              tag_157\n              jump\t// in\n            tag_353:\n                /* \"#utility.yul\":15639:15640   */\n              0x00\n                /* \"#utility.yul\":15653:15861   */\n            tag_354:\n                /* \"#utility.yul\":15667:15674   */\n              dup3\n                /* \"#utility.yul\":15664:15665   */\n              dup2\n                /* \"#utility.yul\":15661:15675   */\n              lt\n                /* \"#utility.yul\":15653:15861   */\n              iszero\n              tag_356\n              jumpi\n                /* \"#utility.yul\":15746:15755   */\n              dup5\n                /* \"#utility.yul\":15741:15744   */\n              dup10\n                /* \"#utility.yul\":15737:15756   */\n              add\n                /* \"#utility.yul\":15731:15757   */\n              mload\n                /* \"#utility.yul\":15723:15729   */\n              dup3\n                /* \"#utility.yul\":15716:15758   */\n              sstore\n                /* \"#utility.yul\":15797:15798   */\n              0x01\n                /* \"#utility.yul\":15789:15795   */\n              dup3\n                /* \"#utility.yul\":15785:15799   */\n              add\n                /* \"#utility.yul\":15775:15799   */\n              swap2\n              pop\n                /* \"#utility.yul\":15844:15846   */\n              0x20\n                /* \"#utility.yul\":15833:15842   */\n              dup6\n                /* \"#utility.yul\":15829:15847   */\n              add\n                /* \"#utility.yul\":15816:15847   */\n              swap5\n              pop\n                /* \"#utility.yul\":15690:15694   */\n              0x20\n                /* \"#utility.yul\":15687:15688   */\n              dup2\n                /* \"#utility.yul\":15683:15695   */\n              add\n                /* \"#utility.yul\":15678:15695   */\n              swap1\n              pop\n                /* \"#utility.yul\":15653:15861   */\n              jump(tag_354)\n            tag_356:\n                /* \"#utility.yul\":15889:15895   */\n              dup7\n                /* \"#utility.yul\":15880:15887   */\n              dup4\n                /* \"#utility.yul\":15877:15896   */\n              lt\n                /* \"#utility.yul\":15874:16053   */\n              iszero\n              tag_357\n              jumpi\n                /* \"#utility.yul\":15947:15956   */\n              dup5\n                /* \"#utility.yul\":15942:15945   */\n              dup10\n                /* \"#utility.yul\":15938:15957   */\n              add\n                /* \"#utility.yul\":15932:15958   */\n              mload\n                /* \"#utility.yul\":15990:16038   */\n              tag_358\n                /* \"#utility.yul\":16032:16036   */\n              0x1f\n                /* \"#utility.yul\":16024:16030   */\n              dup10\n                /* \"#utility.yul\":16020:16037   */\n              and\n                /* \"#utility.yul\":16009:16018   */\n              dup3\n                /* \"#utility.yul\":15990:16038   */\n              tag_170\n              jump\t// in\n            tag_358:\n                /* \"#utility.yul\":15982:15988   */\n              dup4\n                /* \"#utility.yul\":15975:16039   */\n              sstore\n                /* \"#utility.yul\":15897:16053   */\n              pop\n                /* \"#utility.yul\":15874:16053   */\n            tag_357:\n                /* \"#utility.yul\":16099:16100   */\n              0x01\n                /* \"#utility.yul\":16095:16096   */\n              0x02\n                /* \"#utility.yul\":16087:16093   */\n              dup9\n                /* \"#utility.yul\":16083:16097   */\n              mul\n                /* \"#utility.yul\":16079:16101   */\n              add\n                /* \"#utility.yul\":16073:16077   */\n              dup9\n                /* \"#utility.yul\":16066:16102   */\n              sstore\n                /* \"#utility.yul\":15501:16112   */\n              pop\n              pop\n              pop\n                /* \"#utility.yul\":15464:16351   */\n            tag_349:\n              pop\n                /* \"#utility.yul\":15054:16357   */\n              pop\n              pop\n              pop\n                /* \"#utility.yul\":14962:16357   */\n              pop\n              pop\n              jump\t// out\n                /* \"#utility.yul\":16363:16609   */\n            tag_172:\n                /* \"#utility.yul\":16444:16445   */\n              0x00\n                /* \"#utility.yul\":16454:16567   */\n            tag_360:\n                /* \"#utility.yul\":16468:16474   */\n              dup4\n                /* \"#utility.yul\":16465:16466   */\n              dup2\n                /* \"#utility.yul\":16462:16475   */\n              lt\n                /* \"#utility.yul\":16454:16567   */\n              iszero\n              tag_362\n              jumpi\n                /* \"#utility.yul\":16553:16554   */\n              dup1\n                /* \"#utility.yul\":16548:16551   */\n              dup3\n                /* \"#utility.yul\":16544:16555   */\n              add\n                /* \"#utility.yul\":16538:16556   */\n              mload\n                /* \"#utility.yul\":16534:16535   */\n              dup2\n                /* \"#utility.yul\":16529:16532   */\n              dup5\n                /* \"#utility.yul\":16525:16536   */\n              add\n                /* \"#utility.yul\":16518:16557   */\n              mstore\n                /* \"#utility.yul\":16490:16492   */\n              0x20\n                /* \"#utility.yul\":16487:16488   */\n              dup2\n                /* \"#utility.yul\":16483:16493   */\n              add\n                /* \"#utility.yul\":16478:16493   */\n              swap1\n              pop\n                /* \"#utility.yul\":16454:16567   */\n              jump(tag_360)\n            tag_362:\n                /* \"#utility.yul\":16601:16602   */\n              0x00\n                /* \"#utility.yul\":16592:16598   */\n              dup5\n                /* \"#utility.yul\":16587:16590   */\n              dup5\n                /* \"#utility.yul\":16583:16599   */\n              add\n                /* \"#utility.yul\":16576:16603   */\n              mstore\n                /* \"#utility.yul\":16425:16609   */\n              pop\n                /* \"#utility.yul\":16363:16609   */\n              pop\n              pop\n              pop\n              jump\t// out\n                /* \"#utility.yul\":16615:16992   */\n            tag_173:\n                /* \"#utility.yul\":16703:16706   */\n              0x00\n                /* \"#utility.yul\":16731:16770   */\n              tag_364\n                /* \"#utility.yul\":16764:16769   */\n              dup3\n                /* \"#utility.yul\":16731:16770   */\n              tag_154\n              jump\t// in\n            tag_364:\n                /* \"#utility.yul\":16786:16857   */\n              tag_365\n                /* \"#utility.yul\":16850:16856   */\n              dup2\n                /* \"#utility.yul\":16845:16848   */\n              dup6\n                /* \"#utility.yul\":16786:16857   */\n              tag_142\n              jump\t// in\n            tag_365:\n                /* \"#utility.yul\":16779:16857   */\n              swap4\n              pop\n                /* \"#utility.yul\":16866:16931   */\n              tag_366\n                /* \"#utility.yul\":16924:16930   */\n              dup2\n                /* \"#utility.yul\":16919:16922   */\n              dup6\n                /* \"#utility.yul\":16912:16916   */\n              0x20\n                /* \"#utility.yul\":16905:16910   */\n              dup7\n                /* \"#utility.yul\":16901:16917   */\n              add\n                /* \"#utility.yul\":16866:16931   */\n              tag_172\n              jump\t// in\n            tag_366:\n                /* \"#utility.yul\":16956:16985   */\n              tag_367\n                /* \"#utility.yul\":16978:16984   */\n              dup2\n                /* \"#utility.yul\":16956:16985   */\n              tag_134\n              jump\t// in\n            tag_367:\n                /* \"#utility.yul\":16951:16954   */\n              dup5\n                /* \"#utility.yul\":16947:16986   */\n              add\n                /* \"#utility.yul\":16940:16986   */\n              swap2\n              pop\n                /* \"#utility.yul\":16707:16992   */\n              pop\n                /* \"#utility.yul\":16615:16992   */\n              swap3\n              swap2\n              pop\n              pop\n              jump\t// out\n                /* \"#utility.yul\":16998:17421   */\n            tag_76:\n                /* \"#utility.yul\":17139:17143   */\n              0x00\n                /* \"#utility.yul\":17177:17179   */\n              0x40\n                /* \"#utility.yul\":17166:17175   */\n              dup3\n                /* \"#utility.yul\":17162:17180   */\n              add\n                /* \"#utility.yul\":17154:17180   */\n              swap1\n              pop\n                /* \"#utility.yul\":17190:17261   */\n              tag_369\n                /* \"#utility.yul\":17258:17259   */\n              0x00\n                /* \"#utility.yul\":17247:17256   */\n              dup4\n                /* \"#utility.yul\":17243:17260   */\n              add\n                /* \"#utility.yul\":17234:17240   */\n              dup6\n                /* \"#utility.yul\":17190:17261   */\n              tag_148\n              jump\t// in\n            tag_369:\n                /* \"#utility.yul\":17308:17317   */\n              dup2\n                /* \"#utility.yul\":17302:17306   */\n              dup2\n                /* \"#utility.yul\":17298:17318   */\n              sub\n                /* \"#utility.yul\":17293:17295   */\n              0x20\n                /* \"#utility.yul\":17282:17291   */\n              dup4\n                /* \"#utility.yul\":17278:17296   */\n              add\n                /* \"#utility.yul\":17271:17319   */\n              mstore\n                /* \"#utility.yul\":17336:17414   */\n              tag_370\n                /* \"#utility.yul\":17409:17413   */\n              dup2\n                /* \"#utility.yul\":17400:17406   */\n              dup5\n                /* \"#utility.yul\":17336:17414   */\n              tag_173\n              jump\t// in\n            tag_370:\n                /* \"#utility.yul\":17328:17414   */\n              swap1\n              pop\n                /* \"#utility.yul\":16998:17421   */\n              swap4\n              swap3\n              pop\n              pop\n              pop\n              jump\t// out\n                /* \"#utility.yul\":17427:17604   */\n            tag_174:\n                /* \"#utility.yul\":17567:17596   */\n              0x6f6e6c7920666163746f72792063616e20696e697469616c697a650000000000\n                /* \"#utility.yul\":17563:17564   */\n              0x00\n                /* \"#utility.yul\":17555:17561   */\n              dup3\n                /* \"#utility.yul\":17551:17565   */\n              add\n                /* \"#utility.yul\":17544:17597   */\n              mstore\n                /* \"#utility.yul\":17427:17604   */\n              pop\n              jump\t// out\n                /* \"#utility.yul\":17610:17976   */\n            tag_175:\n                /* \"#utility.yul\":17752:17755   */\n              0x00\n                /* \"#utility.yul\":17773:17840   */\n              tag_373\n                /* \"#utility.yul\":17837:17839   */\n              0x1b\n                /* \"#utility.yul\":17832:17835   */\n              dup4\n                /* \"#utility.yul\":17773:17840   */\n              tag_142\n              jump\t// in\n            tag_373:\n                /* \"#utility.yul\":17766:17840   */\n              swap2\n              pop\n                /* \"#utility.yul\":17849:17942   */\n              tag_374\n                /* \"#utility.yul\":17938:17941   */\n              dup3\n                /* \"#utility.yul\":17849:17942   */\n              tag_174\n              jump\t// in\n            tag_374:\n                /* \"#utility.yul\":17967:17969   */\n              0x20\n                /* \"#utility.yul\":17962:17965   */\n              dup3\n                /* \"#utility.yul\":17958:17970   */\n              add\n                /* \"#utility.yul\":17951:17970   */\n              swap1\n              pop\n                /* \"#utility.yul\":17610:17976   */\n              swap2\n              swap1\n              pop\n              jump\t// out\n                /* \"#utility.yul\":17982:18401   */\n            tag_80:\n                /* \"#utility.yul\":18148:18152   */\n              0x00\n                /* \"#utility.yul\":18186:18188   */\n              0x20\n                /* \"#utility.yul\":18175:18184   */\n              dup3\n                /* \"#utility.yul\":18171:18189   */\n              add\n                /* \"#utility.yul\":18163:18189   */\n              swap1\n              pop\n                /* \"#utility.yul\":18235:18244   */\n              dup2\n                /* \"#utility.yul\":18229:18233   */\n              dup2\n                /* \"#utility.yul\":18225:18245   */\n              sub\n                /* \"#utility.yul\":18221:18222   */\n              0x00\n                /* \"#utility.yul\":18210:18219   */\n              dup4\n                /* \"#utility.yul\":18206:18223   */\n              add\n                /* \"#utility.yul\":18199:18246   */\n              mstore\n                /* \"#utility.yul\":18263:18394   */\n              tag_376\n                /* \"#utility.yul\":18389:18393   */\n              dup2\n                /* \"#utility.yul\":18263:18394   */\n              tag_175\n              jump\t// in\n            tag_376:\n                /* \"#utility.yul\":18255:18394   */\n              swap1\n              pop\n                /* \"#utility.yul\":17982:18401   */\n              swap2\n              swap1\n              pop\n              jump\t// out\n                /* \"#utility.yul\":18407:18739   */\n            tag_85:\n                /* \"#utility.yul\":18528:18532   */\n              0x00\n                /* \"#utility.yul\":18566:18568   */\n              0x40\n                /* \"#utility.yul\":18555:18564   */\n              dup3\n                /* \"#utility.yul\":18551:18569   */\n              add\n                /* \"#utility.yul\":18543:18569   */\n              swap1\n              pop\n                /* \"#utility.yul\":18579:18650   */\n              tag_378\n                /* \"#utility.yul\":18647:18648   */\n              0x00\n                /* \"#utility.yul\":18636:18645   */\n              dup4\n                /* \"#utility.yul\":18632:18649   */\n              add\n                /* \"#utility.yul\":18623:18629   */\n              dup6\n                /* \"#utility.yul\":18579:18650   */\n              tag_131\n              jump\t// in\n            tag_378:\n                /* \"#utility.yul\":18660:18732   */\n              tag_379\n                /* \"#utility.yul\":18728:18730   */\n              0x20\n                /* \"#utility.yul\":18717:18726   */\n              dup4\n                /* \"#utility.yul\":18713:18731   */\n              add\n                /* \"#utility.yul\":18704:18710   */\n              dup5\n                /* \"#utility.yul\":18660:18732   */\n              tag_148\n              jump\t// in\n            tag_379:\n                /* \"#utility.yul\":18407:18739   */\n              swap4\n              swap3\n              pop\n              pop\n              pop\n              jump\t// out\n                /* \"#utility.yul\":18745:18967   */\n            tag_97:\n                /* \"#utility.yul\":18838:18842   */\n              0x00\n                /* \"#utility.yul\":18876:18878   */\n              0x20\n                /* \"#utility.yul\":18865:18874   */\n              dup3\n                /* \"#utility.yul\":18861:18879   */\n              add\n                /* \"#utility.yul\":18853:18879   */\n              swap1\n              pop\n                /* \"#utility.yul\":18889:18960   */\n              tag_381\n                /* \"#utility.yul\":18957:18958   */\n              0x00\n                /* \"#utility.yul\":18946:18955   */\n              dup4\n                /* \"#utility.yul\":18942:18959   */\n              add\n                /* \"#utility.yul\":18933:18939   */\n              dup5\n                /* \"#utility.yul\":18889:18960   */\n              tag_148\n              jump\t// in\n            tag_381:\n                /* \"#utility.yul\":18745:18967   */\n              swap3\n              swap2\n              pop\n              pop\n              jump\t// out\n                /* \"#utility.yul\":18973:19167   */\n            tag_113:\n                /* \"#utility.yul\":19013:19017   */\n              0x00\n                /* \"#utility.yul\":19033:19053   */\n              tag_383\n                /* \"#utility.yul\":19051:19052   */\n              dup3\n                /* \"#utility.yul\":19033:19053   */\n              tag_124\n              jump\t// in\n            tag_383:\n                /* \"#utility.yul\":19028:19053   */\n              swap2\n              pop\n                /* \"#utility.yul\":19067:19087   */\n              tag_384\n                /* \"#utility.yul\":19085:19086   */\n              dup4\n                /* \"#utility.yul\":19067:19087   */\n              tag_124\n              jump\t// in\n            tag_384:\n                /* \"#utility.yul\":19062:19087   */\n              swap3\n              pop\n                /* \"#utility.yul\":19111:19112   */\n              dup3\n                /* \"#utility.yul\":19108:19109   */\n              dup3\n                /* \"#utility.yul\":19104:19113   */\n              sub\n                /* \"#utility.yul\":19096:19113   */\n              swap1\n              pop\n                /* \"#utility.yul\":19135:19136   */\n              dup2\n                /* \"#utility.yul\":19129:19133   */\n              dup2\n                /* \"#utility.yul\":19126:19137   */\n              gt\n                /* \"#utility.yul\":19123:19160   */\n              iszero\n              tag_385\n              jumpi\n                /* \"#utility.yul\":19140:19158   */\n              tag_386\n              tag_149\n              jump\t// in\n            tag_386:\n                /* \"#utility.yul\":19123:19160   */\n            tag_385:\n                /* \"#utility.yul\":18973:19167   */\n              swap3\n              swap2\n              pop\n              pop\n              jump\t// out\n\n            auxdata: 0xa2646970667358221220aa2d4128540c51cf4ef42dfa16fefab4aee83a2553c0dc014277e8708eb44eee64736f6c63430008110033\n        }\n    }\n\n    auxdata: 0xa26469706673582212206b713760b8b4666ca64242e964dafb3c11cf7640d6b23e2427c7bbd4330797d764736f6c63430008110033\n}\n",
				"bytecode": {
					"linkReferences": {},
					"object": "6080604052600060015534801561001557600080fd5b50612466806100256000396000f3fe608060405234801561001057600080fd5b50600436106100365760003560e01c8063990a7fb81461003b578063b79962a314610059575b600080fd5b610043610089565b6040516100509190610329565b60405180910390f35b610073600480360381019061006e91906103df565b610093565b604051610080919061042e565b60405180910390f35b6000600154905090565b60008073ffffffffffffffffffffffffffffffffffffffff166000808573ffffffffffffffffffffffffffffffffffffffff1673ffffffffffffffffffffffffffffffffffffffff16815260200190815260200160002060009054906101000a900473ffffffffffffffffffffffffffffffffffffffff1673ffffffffffffffffffffffffffffffffffffffff1614610161576040517f08c379a0000000000000000000000000000000000000000000000000000000008152600401610158906104a6565b60405180910390fd5b60006040518060200161017390610303565b6020820181038252601f19601f82011660405250905060008460405160200161019c919061050e565b604051602081830303815290604052805190602001209050808251602084016000f59250826000808773ffffffffffffffffffffffffffffffffffffffff1673ffffffffffffffffffffffffffffffffffffffff16815260200190815260200160002060006101000a81548173ffffffffffffffffffffffffffffffffffffffff021916908373ffffffffffffffffffffffffffffffffffffffff1602179055508273ffffffffffffffffffffffffffffffffffffffff1663cb9fa36686866040518363ffffffff1660e01b8152600401610278929190610538565b600060405180830381600087803b15801561029257600080fd5b505af11580156102a6573d6000803e3d6000fd5b505050507f133cf1d1c688fe9ff341b3c73812a4e88008f45ea55669a9f7bf6b316a9ed7c185846040516102db929190610561565b60405180910390a1600160008154809291906102f6906105b9565b9190505550505092915050565b611e2f8061060283390190565b6000819050919050565b61032381610310565b82525050565b600060208201905061033e600083018461031a565b92915050565b600080fd5b600073ffffffffffffffffffffffffffffffffffffffff82169050919050565b600061037482610349565b9050919050565b61038481610369565b811461038f57600080fd5b50565b6000813590506103a18161037b565b92915050565b60008115159050919050565b6103bc816103a7565b81146103c757600080fd5b50565b6000813590506103d9816103b3565b92915050565b600080604083850312156103f6576103f5610344565b5b600061040485828601610392565b9250506020610415858286016103ca565b9150509250929050565b61042881610369565b82525050565b6000602082019050610443600083018461041f565b92915050565b600082825260208201905092915050565b7f537061636520616c72656164792065786973747320666f7220746f6b656e0000600082015250565b6000610490601e83610449565b915061049b8261045a565b602082019050919050565b600060208201905081810360008301526104bf81610483565b9050919050565b60008160601b9050919050565b60006104de826104c6565b9050919050565b60006104f0826104d3565b9050919050565b61050861050382610369565b6104e5565b82525050565b600061051a82846104f7565b60148201915081905092915050565b610532816103a7565b82525050565b600060408201905061054d600083018561041f565b61055a6020830184610529565b9392505050565b6000604082019050610576600083018561041f565b610583602083018461041f565b9392505050565b7f4e487b7100000000000000000000000000000000000000000000000000000000600052601160045260246000fd5b60006105c482610310565b91507fffffffffffffffffffffffffffffffffffffffffffffffffffffffffffffffff82036105f6576105f561058a565b5b60018201905091905056fe6080604052600060045534801561001557600080fd5b50611e0a806100256000396000f3fe608060405234801561001057600080fd5b50600436106100575760003560e01c806310e6e06c1461005c578063292636b3146100785780633feff76d14610094578063bbdeab9f146100b2578063cb9fa366146100ce575b600080fd5b61007660048036038101906100719190611385565b6100ea565b005b610092600480360381019061008d9190611423565b61041b565b005b61009c6106bb565b6040516100a9919061145f565b60405180910390f35b6100cc60048036038101906100c791906115c0565b6106df565b005b6100e860048036038101906100e3919061161c565b610abd565b005b42600160008381526020019081526020016000206001015411610142576040517f08c379a0000000000000000000000000000000000000000000000000000000008152600401610139906116b9565b60405180910390fd5b600115156001600083815260200190815260200160002060050160003373ffffffffffffffffffffffffffffffffffffffff1673ffffffffffffffffffffffffffffffffffffffff16815260200190815260200160002060009054906101000a900460ff161515036101e9576040517f08c379a00000000000000000000000000000000000000000000000000000000081526004016101e090611725565b60405180910390fd5b6101f281610bdd565b5081156102b857600260003373ffffffffffffffffffffffffffffffffffffffff1673ffffffffffffffffffffffffffffffffffffffff168152602001908152602001600020600201546001600083815260200190815260200160002060030181905550600260003373ffffffffffffffffffffffffffffffffffffffff1673ffffffffffffffffffffffffffffffffffffffff168152602001908152602001600020600201546001600083815260200190815260200160002060020181905550610373565b600260003373ffffffffffffffffffffffffffffffffffffffff1673ffffffffffffffffffffffffffffffffffffffff168152602001908152602001600020600201546001600083815260200190815260200160002060040181905550600260003373ffffffffffffffffffffffffffffffffffffffff1673ffffffffffffffffffffffffffffffffffffffff1681526020019081526020016000206002015460016000838152602001908152602001600020600201819055505b600180600083815260200190815260200160002060050160003373ffffffffffffffffffffffffffffffffffffffff1673ffffffffffffffffffffffffffffffffffffffff16815260200190815260200160002060006101000a81548160ff0219169083151502179055507fbe208d45c58104e0af5db364aff13523029085490c3ab5d3f485c6cd8e9abf0d828260405161040f929190611763565b60405180910390a15050565b600260003373ffffffffffffffffffffffffffffffffffffffff1673ffffffffffffffffffffffffffffffffffffffff16815260200190815260200160002060020154600260008373ffffffffffffffffffffffffffffffffffffffff1673ffffffffffffffffffffffffffffffffffffffff16815260200190815260200160002060020160008282546104af91906117bb565b92505081905550600260003373ffffffffffffffffffffffffffffffffffffffff1673ffffffffffffffffffffffffffffffffffffffff16815260200190815260200160002060020154600260008373ffffffffffffffffffffffffffffffffffffffff1673ffffffffffffffffffffffffffffffffffffffff16815260200190815260200160002060000160003373ffffffffffffffffffffffffffffffffffffffff1673ffffffffffffffffffffffffffffffffffffffff168152602001908152602001600020600082825461058791906117bb565b9250508190555033600260008373ffffffffffffffffffffffffffffffffffffffff1673ffffffffffffffffffffffffffffffffffffffff168152602001908152602001600020600101600260003373ffffffffffffffffffffffffffffffffffffffff1673ffffffffffffffffffffffffffffffffffffffff1681526020019081526020016000206001018054905081548110610628576106276117ef565b5b9060005260206000200160006101000a81548173ffffffffffffffffffffffffffffffffffffffff021916908373ffffffffffffffffffffffffffffffffffffffff1602179055506000600260003373ffffffffffffffffffffffffffffffffffffffff1673ffffffffffffffffffffffffffffffffffffffff1681526020019081526020016000206002018190555050565b60008054906101000a900473ffffffffffffffffffffffffffffffffffffffff1681565b6000600454036107955760008054906101000a900473ffffffffffffffffffffffffffffffffffffffff1673ffffffffffffffffffffffffffffffffffffffff16635439ad866040518163ffffffff1660e01b8152600401602060405180830381865afa158015610754573d6000803e3d6000fd5b505050506040513d601f19601f820116820180604052508101906107789190611833565b600160006004548152602001908152602001600020600701819055505b60006107a2600454610bdd565b905060006107c760016000600454815260200190815260200160002060070154610e1c565b90506064816107d6919061188f565b8211610817576040517f08c379a000000000000000000000000000000000000000000000000000000000815260040161080e9061190c565b60405180910390fd5b6004600081548092919061082a9061192c565b91905055508360016000600454815260200190815260200160002060060190816108549190611b8b565b50600260003373ffffffffffffffffffffffffffffffffffffffff1673ffffffffffffffffffffffffffffffffffffffff1681526020019081526020016000206002015460016000600454815260200190815260200160002060030160008282546108bf91906117bb565b925050819055506001806000600454815260200190815260200160002060050160003373ffffffffffffffffffffffffffffffffffffffff1673ffffffffffffffffffffffffffffffffffffffff16815260200190815260200160002060006101000a81548160ff02191690831515021790555060008054906101000a900473ffffffffffffffffffffffffffffffffffffffff1673ffffffffffffffffffffffffffffffffffffffff16639711715a6040518163ffffffff1660e01b81526004016020604051808303816000875af11580156109a0573d6000803e3d6000fd5b505050506040513d601f19601f820116820180604052508101906109c49190611833565b6001600060045481526020019081526020016000206007018190555042600160006004548152602001908152602001600020600001819055508242610a0991906117bb565b600160006004548152602001908152602001600020600101819055506000600260003373ffffffffffffffffffffffffffffffffffffffff1673ffffffffffffffffffffffffffffffffffffffff168152602001908152602001600020600101805490501115610a7c57610a7b610f70565b5b7f92c8ebe2d9e3d6fae165e2a6b9ec45047969e4a69a779a5b833d98f10047813960045485604051610aaf929190611cc0565b60405180910390a150505050565b600360019054906101000a900460ff1615610b0d576040517f08c379a0000000000000000000000000000000000000000000000000000000008152600401610b0490611d3c565b60405180910390fd5b6000600481905550600360009054906101000a900460ff169050816000806101000a81548173ffffffffffffffffffffffffffffffffffffffff021916908373ffffffffffffffffffffffffffffffffffffffff1602179055506001600360016101000a81548160ff0219169083151502179055507fc4d66de8473e8f74cb05df264ee8262da16b56717ef1f05d73bfdcea3adc85e560008054906101000a900473ffffffffffffffffffffffffffffffffffffffff16604051610bd1919061145f565b60405180910390a15050565b6000600360009054906101000a900460ff1615610cf15760008054906101000a900473ffffffffffffffffffffffffffffffffffffffff1673ffffffffffffffffffffffffffffffffffffffff16634ee2cd7e3360016000868152602001908152602001600020600701546040518363ffffffff1660e01b8152600401610c65929190611d5c565b602060405180830381865afa158015610c82573d6000803e3d6000fd5b505050506040513d601f19601f82011682018060405250810190610ca69190611833565b600260003373ffffffffffffffffffffffffffffffffffffffff1673ffffffffffffffffffffffffffffffffffffffff16815260200190815260200160002060020181905550610dd2565b60008054906101000a900473ffffffffffffffffffffffffffffffffffffffff1673ffffffffffffffffffffffffffffffffffffffff166370a08231336040518263ffffffff1660e01b8152600401610d4a919061145f565b602060405180830381865afa158015610d67573d6000803e3d6000fd5b505050506040513d601f19601f82011682018060405250810190610d8b9190611833565b600260003373ffffffffffffffffffffffffffffffffffffffff1673ffffffffffffffffffffffffffffffffffffffff168152602001908152602001600020600201819055505b600260003373ffffffffffffffffffffffffffffffffffffffff1673ffffffffffffffffffffffffffffffffffffffff168152602001908152602001600020600201549050919050565b600080600360009054906101000a900460ff1615610ed55760008054906101000a900473ffffffffffffffffffffffffffffffffffffffff1673ffffffffffffffffffffffffffffffffffffffff1663981b24d0846040518263ffffffff1660e01b8152600401610e8d9190611d85565b602060405180830381865afa158015610eaa573d6000803e3d6000fd5b505050506040513d601f19601f82011682018060405250810190610ece9190611833565b9050610f67565b60008054906101000a900473ffffffffffffffffffffffffffffffffffffffff1673ffffffffffffffffffffffffffffffffffffffff166318160ddd6040518163ffffffff1660e01b8152600401602060405180830381865afa158015610f40573d6000803e3d6000fd5b505050506040513d601f19601f82011682018060405250810190610f649190611833565b90505b80915050919050565b60005b600260003373ffffffffffffffffffffffffffffffffffffffff1673ffffffffffffffffffffffffffffffffffffffff16815260200190815260200160002060010180549050811015611300576000600260003373ffffffffffffffffffffffffffffffffffffffff1673ffffffffffffffffffffffffffffffffffffffff1681526020019081526020016000206001018281548110611016576110156117ef565b5b9060005260206000200160009054906101000a900473ffffffffffffffffffffffffffffffffffffffff169050600260003373ffffffffffffffffffffffffffffffffffffffff1673ffffffffffffffffffffffffffffffffffffffff16815260200190815260200160002060000160008273ffffffffffffffffffffffffffffffffffffffff1673ffffffffffffffffffffffffffffffffffffffff16815260200190815260200160002054600260003373ffffffffffffffffffffffffffffffffffffffff1673ffffffffffffffffffffffffffffffffffffffff16815260200190815260200160002060020160008282546111149190611da0565b92505081905550600260003373ffffffffffffffffffffffffffffffffffffffff1673ffffffffffffffffffffffffffffffffffffffff16815260200190815260200160002060000160008273ffffffffffffffffffffffffffffffffffffffff1673ffffffffffffffffffffffffffffffffffffffff16815260200190815260200160002054600260008373ffffffffffffffffffffffffffffffffffffffff1673ffffffffffffffffffffffffffffffffffffffff168152602001908152602001600020600201819055506001806000600454815260200190815260200160002060050160008373ffffffffffffffffffffffffffffffffffffffff1673ffffffffffffffffffffffffffffffffffffffff16815260200190815260200160002060006101000a81548160ff0219169083151502179055506000600260003373ffffffffffffffffffffffffffffffffffffffff1673ffffffffffffffffffffffffffffffffffffffff16815260200190815260200160002060010183815481106112a4576112a36117ef565b5b9060005260206000200160006101000a81548173ffffffffffffffffffffffffffffffffffffffff021916908373ffffffffffffffffffffffffffffffffffffffff1602179055505080806112f89061192c565b915050610f73565b50565b6000604051905090565b600080fd5b600080fd5b60008115159050919050565b61132c81611317565b811461133757600080fd5b50565b60008135905061134981611323565b92915050565b6000819050919050565b6113628161134f565b811461136d57600080fd5b50565b60008135905061137f81611359565b92915050565b6000806040838503121561139c5761139b61130d565b5b60006113aa8582860161133a565b92505060206113bb85828601611370565b9150509250929050565b600073ffffffffffffffffffffffffffffffffffffffff82169050919050565b60006113f0826113c5565b9050919050565b611400816113e5565b811461140b57600080fd5b50565b60008135905061141d816113f7565b92915050565b6000602082840312156114395761143861130d565b5b60006114478482850161140e565b91505092915050565b611459816113e5565b82525050565b60006020820190506114746000830184611450565b92915050565b600080fd5b600080fd5b6000601f19601f8301169050919050565b7f4e487b7100000000000000000000000000000000000000000000000000000000600052604160045260246000fd5b6114cd82611484565b810181811067ffffffffffffffff821117156114ec576114eb611495565b5b80604052505050565b60006114ff611303565b905061150b82826114c4565b919050565b600067ffffffffffffffff82111561152b5761152a611495565b5b61153482611484565b9050602081019050919050565b82818337600083830152505050565b600061156361155e84611510565b6114f5565b90508281526020810184848401111561157f5761157e61147f565b5b61158a848285611541565b509392505050565b600082601f8301126115a7576115a661147a565b5b81356115b7848260208601611550565b91505092915050565b600080604083850312156115d7576115d661130d565b5b600083013567ffffffffffffffff8111156115f5576115f4611312565b5b61160185828601611592565b925050602061161285828601611370565b9150509250929050565b600080604083850312156116335761163261130d565b5b60006116418582860161140e565b92505060206116528582860161133a565b9150509250929050565b600082825260208201905092915050565b7f566f74696e6720656e6465640000000000000000000000000000000000000000600082015250565b60006116a3600c8361165c565b91506116ae8261166d565b602082019050919050565b600060208201905081810360008301526116d281611696565b9050919050565b7f416c726561647920766f74656400000000000000000000000000000000000000600082015250565b600061170f600d8361165c565b915061171a826116d9565b602082019050919050565b6000602082019050818103600083015261173e81611702565b9050919050565b61174e81611317565b82525050565b61175d8161134f565b82525050565b60006040820190506117786000830185611745565b6117856020830184611754565b9392505050565b7f4e487b7100000000000000000000000000000000000000000000000000000000600052601160045260246000fd5b60006117c68261134f565b91506117d18361134f565b92508282019050808211156117e9576117e861178c565b5b92915050565b7f4e487b7100000000000000000000000000000000000000000000000000000000600052603260045260246000fd5b60008151905061182d81611359565b92915050565b6000602082840312156118495761184861130d565b5b60006118578482850161181e565b91505092915050565b7f4e487b7100000000000000000000000000000000000000000000000000000000600052601260045260246000fd5b600061189a8261134f565b91506118a58361134f565b9250826118b5576118b4611860565b5b828204905092915050565b7f4e65656420312520746f207375626d69742070726f7000000000000000000000600082015250565b60006118f660168361165c565b9150611901826118c0565b602082019050919050565b60006020820190508181036000830152611925816118e9565b9050919050565b60006119378261134f565b91507fffffffffffffffffffffffffffffffffffffffffffffffffffffffffffffffff82036119695761196861178c565b5b600182019050919050565b600081519050919050565b7f4e487b7100000000000000000000000000000000000000000000000000000000600052602260045260246000fd5b600060028204905060018216806119c657607f821691505b6020821081036119d9576119d861197f565b5b50919050565b60008190508160005260206000209050919050565b60006020601f8301049050919050565b600082821b905092915050565b600060088302611a417fffffffffffffffffffffffffffffffffffffffffffffffffffffffffffffffff82611a04565b611a4b8683611a04565b95508019841693508086168417925050509392505050565b6000819050919050565b6000611a88611a83611a7e8461134f565b611a63565b61134f565b9050919050565b6000819050919050565b611aa283611a6d565b611ab6611aae82611a8f565b848454611a11565b825550505050565b600090565b611acb611abe565b611ad6818484611a99565b505050565b5b81811015611afa57611aef600082611ac3565b600181019050611adc565b5050565b601f821115611b3f57611b10816119df565b611b19846119f4565b81016020851015611b28578190505b611b3c611b34856119f4565b830182611adb565b50505b505050565b600082821c905092915050565b6000611b6260001984600802611b44565b1980831691505092915050565b6000611b7b8383611b51565b9150826002028217905092915050565b611b9482611974565b67ffffffffffffffff811115611bad57611bac611495565b5b611bb782546119ae565b611bc2828285611afe565b600060209050601f831160018114611bf55760008415611be3578287015190505b611bed8582611b6f565b865550611c55565b601f198416611c03866119df565b60005b82811015611c2b57848901518255600182019150602085019450602081019050611c06565b86831015611c485784890151611c44601f891682611b51565b8355505b6001600288020188555050505b505050505050565b60005b83811015611c7b578082015181840152602081019050611c60565b60008484015250505050565b6000611c9282611974565b611c9c818561165c565b9350611cac818560208601611c5d565b611cb581611484565b840191505092915050565b6000604082019050611cd56000830185611754565b8181036020830152611ce78184611c87565b90509392505050565b7f6f6e6c7920666163746f72792063616e20696e697469616c697a650000000000600082015250565b6000611d26601b8361165c565b9150611d3182611cf0565b602082019050919050565b60006020820190508181036000830152611d5581611d19565b9050919050565b6000604082019050611d716000830185611450565b611d7e6020830184611754565b9392505050565b6000602082019050611d9a6000830184611754565b92915050565b6000611dab8261134f565b9150611db68361134f565b9250828203905081811115611dce57611dcd61178c565b5b9291505056fea2646970667358221220aa2d4128540c51cf4ef42dfa16fefab4aee83a2553c0dc014277e8708eb44eee64736f6c63430008110033a26469706673582212206b713760b8b4666ca64242e964dafb3c11cf7640d6b23e2427c7bbd4330797d764736f6c63430008110033",
					"opcodes": "PUSH1 0x80 PUSH1 0x40 MSTORE PUSH1 0x0 PUSH1 0x1 SSTORE CALLVALUE DUP1 ISZERO PUSH2 0x15 JUMPI PUSH1 0x0 DUP1 REVERT JUMPDEST POP PUSH2 0x2466 DUP1 PUSH2 0x25 PUSH1 0x0 CODECOPY PUSH1 0x0 RETURN INVALID PUSH1 0x80 PUSH1 0x40 MSTORE CALLVALUE DUP1 ISZERO PUSH2 0x10 JUMPI PUSH1 0x0 DUP1 REVERT JUMPDEST POP PUSH1 0x4 CALLDATASIZE LT PUSH2 0x36 JUMPI PUSH1 0x0 CALLDATALOAD PUSH1 0xE0 SHR DUP1 PUSH4 0x990A7FB8 EQ PUSH2 0x3B JUMPI DUP1 PUSH4 0xB79962A3 EQ PUSH2 0x59 JUMPI JUMPDEST PUSH1 0x0 DUP1 REVERT JUMPDEST PUSH2 0x43 PUSH2 0x89 JUMP JUMPDEST PUSH1 0x40 MLOAD PUSH2 0x50 SWAP2 SWAP1 PUSH2 0x329 JUMP JUMPDEST PUSH1 0x40 MLOAD DUP1 SWAP2 SUB SWAP1 RETURN JUMPDEST PUSH2 0x73 PUSH1 0x4 DUP1 CALLDATASIZE SUB DUP2 ADD SWAP1 PUSH2 0x6E SWAP2 SWAP1 PUSH2 0x3DF JUMP JUMPDEST PUSH2 0x93 JUMP JUMPDEST PUSH1 0x40 MLOAD PUSH2 0x80 SWAP2 SWAP1 PUSH2 0x42E JUMP JUMPDEST PUSH1 0x40 MLOAD DUP1 SWAP2 SUB SWAP1 RETURN JUMPDEST PUSH1 0x0 PUSH1 0x1 SLOAD SWAP1 POP SWAP1 JUMP JUMPDEST PUSH1 0x0 DUP1 PUSH20 0xFFFFFFFFFFFFFFFFFFFFFFFFFFFFFFFFFFFFFFFF AND PUSH1 0x0 DUP1 DUP6 PUSH20 0xFFFFFFFFFFFFFFFFFFFFFFFFFFFFFFFFFFFFFFFF AND PUSH20 0xFFFFFFFFFFFFFFFFFFFFFFFFFFFFFFFFFFFFFFFF AND DUP2 MSTORE PUSH1 0x20 ADD SWAP1 DUP2 MSTORE PUSH1 0x20 ADD PUSH1 0x0 KECCAK256 PUSH1 0x0 SWAP1 SLOAD SWAP1 PUSH2 0x100 EXP SWAP1 DIV PUSH20 0xFFFFFFFFFFFFFFFFFFFFFFFFFFFFFFFFFFFFFFFF AND PUSH20 0xFFFFFFFFFFFFFFFFFFFFFFFFFFFFFFFFFFFFFFFF AND EQ PUSH2 0x161 JUMPI PUSH1 0x40 MLOAD PUSH32 0x8C379A000000000000000000000000000000000000000000000000000000000 DUP2 MSTORE PUSH1 0x4 ADD PUSH2 0x158 SWAP1 PUSH2 0x4A6 JUMP JUMPDEST PUSH1 0x40 MLOAD DUP1 SWAP2 SUB SWAP1 REVERT JUMPDEST PUSH1 0x0 PUSH1 0x40 MLOAD DUP1 PUSH1 0x20 ADD PUSH2 0x173 SWAP1 PUSH2 0x303 JUMP JUMPDEST PUSH1 0x20 DUP3 ADD DUP2 SUB DUP3 MSTORE PUSH1 0x1F NOT PUSH1 0x1F DUP3 ADD AND PUSH1 0x40 MSTORE POP SWAP1 POP PUSH1 0x0 DUP5 PUSH1 0x40 MLOAD PUSH1 0x20 ADD PUSH2 0x19C SWAP2 SWAP1 PUSH2 0x50E JUMP JUMPDEST PUSH1 0x40 MLOAD PUSH1 0x20 DUP2 DUP4 SUB SUB DUP2 MSTORE SWAP1 PUSH1 0x40 MSTORE DUP1 MLOAD SWAP1 PUSH1 0x20 ADD KECCAK256 SWAP1 POP DUP1 DUP3 MLOAD PUSH1 0x20 DUP5 ADD PUSH1 0x0 CREATE2 SWAP3 POP DUP3 PUSH1 0x0 DUP1 DUP8 PUSH20 0xFFFFFFFFFFFFFFFFFFFFFFFFFFFFFFFFFFFFFFFF AND PUSH20 0xFFFFFFFFFFFFFFFFFFFFFFFFFFFFFFFFFFFFFFFF AND DUP2 MSTORE PUSH1 0x20 ADD SWAP1 DUP2 MSTORE PUSH1 0x20 ADD PUSH1 0x0 KECCAK256 PUSH1 0x0 PUSH2 0x100 EXP DUP2 SLOAD DUP2 PUSH20 0xFFFFFFFFFFFFFFFFFFFFFFFFFFFFFFFFFFFFFFFF MUL NOT AND SWAP1 DUP4 PUSH20 0xFFFFFFFFFFFFFFFFFFFFFFFFFFFFFFFFFFFFFFFF AND MUL OR SWAP1 SSTORE POP DUP3 PUSH20 0xFFFFFFFFFFFFFFFFFFFFFFFFFFFFFFFFFFFFFFFF AND PUSH4 0xCB9FA366 DUP7 DUP7 PUSH1 0x40 MLOAD DUP4 PUSH4 0xFFFFFFFF AND PUSH1 0xE0 SHL DUP2 MSTORE PUSH1 0x4 ADD PUSH2 0x278 SWAP3 SWAP2 SWAP1 PUSH2 0x538 JUMP JUMPDEST PUSH1 0x0 PUSH1 0x40 MLOAD DUP1 DUP4 SUB DUP2 PUSH1 0x0 DUP8 DUP1 EXTCODESIZE ISZERO DUP1 ISZERO PUSH2 0x292 JUMPI PUSH1 0x0 DUP1 REVERT JUMPDEST POP GAS CALL ISZERO DUP1 ISZERO PUSH2 0x2A6 JUMPI RETURNDATASIZE PUSH1 0x0 DUP1 RETURNDATACOPY RETURNDATASIZE PUSH1 0x0 REVERT JUMPDEST POP POP POP POP PUSH32 0x133CF1D1C688FE9FF341B3C73812A4E88008F45EA55669A9F7BF6B316A9ED7C1 DUP6 DUP5 PUSH1 0x40 MLOAD PUSH2 0x2DB SWAP3 SWAP2 SWAP1 PUSH2 0x561 JUMP JUMPDEST PUSH1 0x40 MLOAD DUP1 SWAP2 SUB SWAP1 LOG1 PUSH1 0x1 PUSH1 0x0 DUP2 SLOAD DUP1 SWAP3 SWAP2 SWAP1 PUSH2 0x2F6 SWAP1 PUSH2 0x5B9 JUMP JUMPDEST SWAP2 SWAP1 POP SSTORE POP POP POP SWAP3 SWAP2 POP POP JUMP JUMPDEST PUSH2 0x1E2F DUP1 PUSH2 0x602 DUP4 CODECOPY ADD SWAP1 JUMP JUMPDEST PUSH1 0x0 DUP2 SWAP1 POP SWAP2 SWAP1 POP JUMP JUMPDEST PUSH2 0x323 DUP2 PUSH2 0x310 JUMP JUMPDEST DUP3 MSTORE POP POP JUMP JUMPDEST PUSH1 0x0 PUSH1 0x20 DUP3 ADD SWAP1 POP PUSH2 0x33E PUSH1 0x0 DUP4 ADD DUP5 PUSH2 0x31A JUMP JUMPDEST SWAP3 SWAP2 POP POP JUMP JUMPDEST PUSH1 0x0 DUP1 REVERT JUMPDEST PUSH1 0x0 PUSH20 0xFFFFFFFFFFFFFFFFFFFFFFFFFFFFFFFFFFFFFFFF DUP3 AND SWAP1 POP SWAP2 SWAP1 POP JUMP JUMPDEST PUSH1 0x0 PUSH2 0x374 DUP3 PUSH2 0x349 JUMP JUMPDEST SWAP1 POP SWAP2 SWAP1 POP JUMP JUMPDEST PUSH2 0x384 DUP2 PUSH2 0x369 JUMP JUMPDEST DUP2 EQ PUSH2 0x38F JUMPI PUSH1 0x0 DUP1 REVERT JUMPDEST POP JUMP JUMPDEST PUSH1 0x0 DUP2 CALLDATALOAD SWAP1 POP PUSH2 0x3A1 DUP2 PUSH2 0x37B JUMP JUMPDEST SWAP3 SWAP2 POP POP JUMP JUMPDEST PUSH1 0x0 DUP2 ISZERO ISZERO SWAP1 POP SWAP2 SWAP1 POP JUMP JUMPDEST PUSH2 0x3BC DUP2 PUSH2 0x3A7 JUMP JUMPDEST DUP2 EQ PUSH2 0x3C7 JUMPI PUSH1 0x0 DUP1 REVERT JUMPDEST POP JUMP JUMPDEST PUSH1 0x0 DUP2 CALLDATALOAD SWAP1 POP PUSH2 0x3D9 DUP2 PUSH2 0x3B3 JUMP JUMPDEST SWAP3 SWAP2 POP POP JUMP JUMPDEST PUSH1 0x0 DUP1 PUSH1 0x40 DUP4 DUP6 SUB SLT ISZERO PUSH2 0x3F6 JUMPI PUSH2 0x3F5 PUSH2 0x344 JUMP JUMPDEST JUMPDEST PUSH1 0x0 PUSH2 0x404 DUP6 DUP3 DUP7 ADD PUSH2 0x392 JUMP JUMPDEST SWAP3 POP POP PUSH1 0x20 PUSH2 0x415 DUP6 DUP3 DUP7 ADD PUSH2 0x3CA JUMP JUMPDEST SWAP2 POP POP SWAP3 POP SWAP3 SWAP1 POP JUMP JUMPDEST PUSH2 0x428 DUP2 PUSH2 0x369 JUMP JUMPDEST DUP3 MSTORE POP POP JUMP JUMPDEST PUSH1 0x0 PUSH1 0x20 DUP3 ADD SWAP1 POP PUSH2 0x443 PUSH1 0x0 DUP4 ADD DUP5 PUSH2 0x41F JUMP JUMPDEST SWAP3 SWAP2 POP POP JUMP JUMPDEST PUSH1 0x0 DUP3 DUP3 MSTORE PUSH1 0x20 DUP3 ADD SWAP1 POP SWAP3 SWAP2 POP POP JUMP JUMPDEST PUSH32 0x537061636520616C72656164792065786973747320666F7220746F6B656E0000 PUSH1 0x0 DUP3 ADD MSTORE POP JUMP JUMPDEST PUSH1 0x0 PUSH2 0x490 PUSH1 0x1E DUP4 PUSH2 0x449 JUMP JUMPDEST SWAP2 POP PUSH2 0x49B DUP3 PUSH2 0x45A JUMP JUMPDEST PUSH1 0x20 DUP3 ADD SWAP1 POP SWAP2 SWAP1 POP JUMP JUMPDEST PUSH1 0x0 PUSH1 0x20 DUP3 ADD SWAP1 POP DUP2 DUP2 SUB PUSH1 0x0 DUP4 ADD MSTORE PUSH2 0x4BF DUP2 PUSH2 0x483 JUMP JUMPDEST SWAP1 POP SWAP2 SWAP1 POP JUMP JUMPDEST PUSH1 0x0 DUP2 PUSH1 0x60 SHL SWAP1 POP SWAP2 SWAP1 POP JUMP JUMPDEST PUSH1 0x0 PUSH2 0x4DE DUP3 PUSH2 0x4C6 JUMP JUMPDEST SWAP1 POP SWAP2 SWAP1 POP JUMP JUMPDEST PUSH1 0x0 PUSH2 0x4F0 DUP3 PUSH2 0x4D3 JUMP JUMPDEST SWAP1 POP SWAP2 SWAP1 POP JUMP JUMPDEST PUSH2 0x508 PUSH2 0x503 DUP3 PUSH2 0x369 JUMP JUMPDEST PUSH2 0x4E5 JUMP JUMPDEST DUP3 MSTORE POP POP JUMP JUMPDEST PUSH1 0x0 PUSH2 0x51A DUP3 DUP5 PUSH2 0x4F7 JUMP JUMPDEST PUSH1 0x14 DUP3 ADD SWAP2 POP DUP2 SWAP1 POP SWAP3 SWAP2 POP POP JUMP JUMPDEST PUSH2 0x532 DUP2 PUSH2 0x3A7 JUMP JUMPDEST DUP3 MSTORE POP POP JUMP JUMPDEST PUSH1 0x0 PUSH1 0x40 DUP3 ADD SWAP1 POP PUSH2 0x54D PUSH1 0x0 DUP4 ADD DUP6 PUSH2 0x41F JUMP JUMPDEST PUSH2 0x55A PUSH1 0x20 DUP4 ADD DUP5 PUSH2 0x529 JUMP JUMPDEST SWAP4 SWAP3 POP POP POP JUMP JUMPDEST PUSH1 0x0 PUSH1 0x40 DUP3 ADD SWAP1 POP PUSH2 0x576 PUSH1 0x0 DUP4 ADD DUP6 PUSH2 0x41F JUMP JUMPDEST PUSH2 0x583 PUSH1 0x20 DUP4 ADD DUP5 PUSH2 0x41F JUMP JUMPDEST SWAP4 SWAP3 POP POP POP JUMP JUMPDEST PUSH32 0x4E487B7100000000000000000000000000000000000000000000000000000000 PUSH1 0x0 MSTORE PUSH1 0x11 PUSH1 0x4 MSTORE PUSH1 0x24 PUSH1 0x0 REVERT JUMPDEST PUSH1 0x0 PUSH2 0x5C4 DUP3 PUSH2 0x310 JUMP JUMPDEST SWAP2 POP PUSH32 0xFFFFFFFFFFFFFFFFFFFFFFFFFFFFFFFFFFFFFFFFFFFFFFFFFFFFFFFFFFFFFFFF DUP3 SUB PUSH2 0x5F6 JUMPI PUSH2 0x5F5 PUSH2 0x58A JUMP JUMPDEST JUMPDEST PUSH1 0x1 DUP3 ADD SWAP1 POP SWAP2 SWAP1 POP JUMP INVALID PUSH1 0x80 PUSH1 0x40 MSTORE PUSH1 0x0 PUSH1 0x4 SSTORE CALLVALUE DUP1 ISZERO PUSH2 0x15 JUMPI PUSH1 0x0 DUP1 REVERT JUMPDEST POP PUSH2 0x1E0A DUP1 PUSH2 0x25 PUSH1 0x0 CODECOPY PUSH1 0x0 RETURN INVALID PUSH1 0x80 PUSH1 0x40 MSTORE CALLVALUE DUP1 ISZERO PUSH2 0x10 JUMPI PUSH1 0x0 DUP1 REVERT JUMPDEST POP PUSH1 0x4 CALLDATASIZE LT PUSH2 0x57 JUMPI PUSH1 0x0 CALLDATALOAD PUSH1 0xE0 SHR DUP1 PUSH4 0x10E6E06C EQ PUSH2 0x5C JUMPI DUP1 PUSH4 0x292636B3 EQ PUSH2 0x78 JUMPI DUP1 PUSH4 0x3FEFF76D EQ PUSH2 0x94 JUMPI DUP1 PUSH4 0xBBDEAB9F EQ PUSH2 0xB2 JUMPI DUP1 PUSH4 0xCB9FA366 EQ PUSH2 0xCE JUMPI JUMPDEST PUSH1 0x0 DUP1 REVERT JUMPDEST PUSH2 0x76 PUSH1 0x4 DUP1 CALLDATASIZE SUB DUP2 ADD SWAP1 PUSH2 0x71 SWAP2 SWAP1 PUSH2 0x1385 JUMP JUMPDEST PUSH2 0xEA JUMP JUMPDEST STOP JUMPDEST PUSH2 0x92 PUSH1 0x4 DUP1 CALLDATASIZE SUB DUP2 ADD SWAP1 PUSH2 0x8D SWAP2 SWAP1 PUSH2 0x1423 JUMP JUMPDEST PUSH2 0x41B JUMP JUMPDEST STOP JUMPDEST PUSH2 0x9C PUSH2 0x6BB JUMP JUMPDEST PUSH1 0x40 MLOAD PUSH2 0xA9 SWAP2 SWAP1 PUSH2 0x145F JUMP JUMPDEST PUSH1 0x40 MLOAD DUP1 SWAP2 SUB SWAP1 RETURN JUMPDEST PUSH2 0xCC PUSH1 0x4 DUP1 CALLDATASIZE SUB DUP2 ADD SWAP1 PUSH2 0xC7 SWAP2 SWAP1 PUSH2 0x15C0 JUMP JUMPDEST PUSH2 0x6DF JUMP JUMPDEST STOP JUMPDEST PUSH2 0xE8 PUSH1 0x4 DUP1 CALLDATASIZE SUB DUP2 ADD SWAP1 PUSH2 0xE3 SWAP2 SWAP1 PUSH2 0x161C JUMP JUMPDEST PUSH2 0xABD JUMP JUMPDEST STOP JUMPDEST TIMESTAMP PUSH1 0x1 PUSH1 0x0 DUP4 DUP2 MSTORE PUSH1 0x20 ADD SWAP1 DUP2 MSTORE PUSH1 0x20 ADD PUSH1 0x0 KECCAK256 PUSH1 0x1 ADD SLOAD GT PUSH2 0x142 JUMPI PUSH1 0x40 MLOAD PUSH32 0x8C379A000000000000000000000000000000000000000000000000000000000 DUP2 MSTORE PUSH1 0x4 ADD PUSH2 0x139 SWAP1 PUSH2 0x16B9 JUMP JUMPDEST PUSH1 0x40 MLOAD DUP1 SWAP2 SUB SWAP1 REVERT JUMPDEST PUSH1 0x1 ISZERO ISZERO PUSH1 0x1 PUSH1 0x0 DUP4 DUP2 MSTORE PUSH1 0x20 ADD SWAP1 DUP2 MSTORE PUSH1 0x20 ADD PUSH1 0x0 KECCAK256 PUSH1 0x5 ADD PUSH1 0x0 CALLER PUSH20 0xFFFFFFFFFFFFFFFFFFFFFFFFFFFFFFFFFFFFFFFF AND PUSH20 0xFFFFFFFFFFFFFFFFFFFFFFFFFFFFFFFFFFFFFFFF AND DUP2 MSTORE PUSH1 0x20 ADD SWAP1 DUP2 MSTORE PUSH1 0x20 ADD PUSH1 0x0 KECCAK256 PUSH1 0x0 SWAP1 SLOAD SWAP1 PUSH2 0x100 EXP SWAP1 DIV PUSH1 0xFF AND ISZERO ISZERO SUB PUSH2 0x1E9 JUMPI PUSH1 0x40 MLOAD PUSH32 0x8C379A000000000000000000000000000000000000000000000000000000000 DUP2 MSTORE PUSH1 0x4 ADD PUSH2 0x1E0 SWAP1 PUSH2 0x1725 JUMP JUMPDEST PUSH1 0x40 MLOAD DUP1 SWAP2 SUB SWAP1 REVERT JUMPDEST PUSH2 0x1F2 DUP2 PUSH2 0xBDD JUMP JUMPDEST POP DUP2 ISZERO PUSH2 0x2B8 JUMPI PUSH1 0x2 PUSH1 0x0 CALLER PUSH20 0xFFFFFFFFFFFFFFFFFFFFFFFFFFFFFFFFFFFFFFFF AND PUSH20 0xFFFFFFFFFFFFFFFFFFFFFFFFFFFFFFFFFFFFFFFF AND DUP2 MSTORE PUSH1 0x20 ADD SWAP1 DUP2 MSTORE PUSH1 0x20 ADD PUSH1 0x0 KECCAK256 PUSH1 0x2 ADD SLOAD PUSH1 0x1 PUSH1 0x0 DUP4 DUP2 MSTORE PUSH1 0x20 ADD SWAP1 DUP2 MSTORE PUSH1 0x20 ADD PUSH1 0x0 KECCAK256 PUSH1 0x3 ADD DUP2 SWAP1 SSTORE POP PUSH1 0x2 PUSH1 0x0 CALLER PUSH20 0xFFFFFFFFFFFFFFFFFFFFFFFFFFFFFFFFFFFFFFFF AND PUSH20 0xFFFFFFFFFFFFFFFFFFFFFFFFFFFFFFFFFFFFFFFF AND DUP2 MSTORE PUSH1 0x20 ADD SWAP1 DUP2 MSTORE PUSH1 0x20 ADD PUSH1 0x0 KECCAK256 PUSH1 0x2 ADD SLOAD PUSH1 0x1 PUSH1 0x0 DUP4 DUP2 MSTORE PUSH1 0x20 ADD SWAP1 DUP2 MSTORE PUSH1 0x20 ADD PUSH1 0x0 KECCAK256 PUSH1 0x2 ADD DUP2 SWAP1 SSTORE POP PUSH2 0x373 JUMP JUMPDEST PUSH1 0x2 PUSH1 0x0 CALLER PUSH20 0xFFFFFFFFFFFFFFFFFFFFFFFFFFFFFFFFFFFFFFFF AND PUSH20 0xFFFFFFFFFFFFFFFFFFFFFFFFFFFFFFFFFFFFFFFF AND DUP2 MSTORE PUSH1 0x20 ADD SWAP1 DUP2 MSTORE PUSH1 0x20 ADD PUSH1 0x0 KECCAK256 PUSH1 0x2 ADD SLOAD PUSH1 0x1 PUSH1 0x0 DUP4 DUP2 MSTORE PUSH1 0x20 ADD SWAP1 DUP2 MSTORE PUSH1 0x20 ADD PUSH1 0x0 KECCAK256 PUSH1 0x4 ADD DUP2 SWAP1 SSTORE POP PUSH1 0x2 PUSH1 0x0 CALLER PUSH20 0xFFFFFFFFFFFFFFFFFFFFFFFFFFFFFFFFFFFFFFFF AND PUSH20 0xFFFFFFFFFFFFFFFFFFFFFFFFFFFFFFFFFFFFFFFF AND DUP2 MSTORE PUSH1 0x20 ADD SWAP1 DUP2 MSTORE PUSH1 0x20 ADD PUSH1 0x0 KECCAK256 PUSH1 0x2 ADD SLOAD PUSH1 0x1 PUSH1 0x0 DUP4 DUP2 MSTORE PUSH1 0x20 ADD SWAP1 DUP2 MSTORE PUSH1 0x20 ADD PUSH1 0x0 KECCAK256 PUSH1 0x2 ADD DUP2 SWAP1 SSTORE POP JUMPDEST PUSH1 0x1 DUP1 PUSH1 0x0 DUP4 DUP2 MSTORE PUSH1 0x20 ADD SWAP1 DUP2 MSTORE PUSH1 0x20 ADD PUSH1 0x0 KECCAK256 PUSH1 0x5 ADD PUSH1 0x0 CALLER PUSH20 0xFFFFFFFFFFFFFFFFFFFFFFFFFFFFFFFFFFFFFFFF AND PUSH20 0xFFFFFFFFFFFFFFFFFFFFFFFFFFFFFFFFFFFFFFFF AND DUP2 MSTORE PUSH1 0x20 ADD SWAP1 DUP2 MSTORE PUSH1 0x20 ADD PUSH1 0x0 KECCAK256 PUSH1 0x0 PUSH2 0x100 EXP DUP2 SLOAD DUP2 PUSH1 0xFF MUL NOT AND SWAP1 DUP4 ISZERO ISZERO MUL OR SWAP1 SSTORE POP PUSH32 0xBE208D45C58104E0AF5DB364AFF13523029085490C3AB5D3F485C6CD8E9ABF0D DUP3 DUP3 PUSH1 0x40 MLOAD PUSH2 0x40F SWAP3 SWAP2 SWAP1 PUSH2 0x1763 JUMP JUMPDEST PUSH1 0x40 MLOAD DUP1 SWAP2 SUB SWAP1 LOG1 POP POP JUMP JUMPDEST PUSH1 0x2 PUSH1 0x0 CALLER PUSH20 0xFFFFFFFFFFFFFFFFFFFFFFFFFFFFFFFFFFFFFFFF AND PUSH20 0xFFFFFFFFFFFFFFFFFFFFFFFFFFFFFFFFFFFFFFFF AND DUP2 MSTORE PUSH1 0x20 ADD SWAP1 DUP2 MSTORE PUSH1 0x20 ADD PUSH1 0x0 KECCAK256 PUSH1 0x2 ADD SLOAD PUSH1 0x2 PUSH1 0x0 DUP4 PUSH20 0xFFFFFFFFFFFFFFFFFFFFFFFFFFFFFFFFFFFFFFFF AND PUSH20 0xFFFFFFFFFFFFFFFFFFFFFFFFFFFFFFFFFFFFFFFF AND DUP2 MSTORE PUSH1 0x20 ADD SWAP1 DUP2 MSTORE PUSH1 0x20 ADD PUSH1 0x0 KECCAK256 PUSH1 0x2 ADD PUSH1 0x0 DUP3 DUP3 SLOAD PUSH2 0x4AF SWAP2 SWAP1 PUSH2 0x17BB JUMP JUMPDEST SWAP3 POP POP DUP2 SWAP1 SSTORE POP PUSH1 0x2 PUSH1 0x0 CALLER PUSH20 0xFFFFFFFFFFFFFFFFFFFFFFFFFFFFFFFFFFFFFFFF AND PUSH20 0xFFFFFFFFFFFFFFFFFFFFFFFFFFFFFFFFFFFFFFFF AND DUP2 MSTORE PUSH1 0x20 ADD SWAP1 DUP2 MSTORE PUSH1 0x20 ADD PUSH1 0x0 KECCAK256 PUSH1 0x2 ADD SLOAD PUSH1 0x2 PUSH1 0x0 DUP4 PUSH20 0xFFFFFFFFFFFFFFFFFFFFFFFFFFFFFFFFFFFFFFFF AND PUSH20 0xFFFFFFFFFFFFFFFFFFFFFFFFFFFFFFFFFFFFFFFF AND DUP2 MSTORE PUSH1 0x20 ADD SWAP1 DUP2 MSTORE PUSH1 0x20 ADD PUSH1 0x0 KECCAK256 PUSH1 0x0 ADD PUSH1 0x0 CALLER PUSH20 0xFFFFFFFFFFFFFFFFFFFFFFFFFFFFFFFFFFFFFFFF AND PUSH20 0xFFFFFFFFFFFFFFFFFFFFFFFFFFFFFFFFFFFFFFFF AND DUP2 MSTORE PUSH1 0x20 ADD SWAP1 DUP2 MSTORE PUSH1 0x20 ADD PUSH1 0x0 KECCAK256 PUSH1 0x0 DUP3 DUP3 SLOAD PUSH2 0x587 SWAP2 SWAP1 PUSH2 0x17BB JUMP JUMPDEST SWAP3 POP POP DUP2 SWAP1 SSTORE POP CALLER PUSH1 0x2 PUSH1 0x0 DUP4 PUSH20 0xFFFFFFFFFFFFFFFFFFFFFFFFFFFFFFFFFFFFFFFF AND PUSH20 0xFFFFFFFFFFFFFFFFFFFFFFFFFFFFFFFFFFFFFFFF AND DUP2 MSTORE PUSH1 0x20 ADD SWAP1 DUP2 MSTORE PUSH1 0x20 ADD PUSH1 0x0 KECCAK256 PUSH1 0x1 ADD PUSH1 0x2 PUSH1 0x0 CALLER PUSH20 0xFFFFFFFFFFFFFFFFFFFFFFFFFFFFFFFFFFFFFFFF AND PUSH20 0xFFFFFFFFFFFFFFFFFFFFFFFFFFFFFFFFFFFFFFFF AND DUP2 MSTORE PUSH1 0x20 ADD SWAP1 DUP2 MSTORE PUSH1 0x20 ADD PUSH1 0x0 KECCAK256 PUSH1 0x1 ADD DUP1 SLOAD SWAP1 POP DUP2 SLOAD DUP2 LT PUSH2 0x628 JUMPI PUSH2 0x627 PUSH2 0x17EF JUMP JUMPDEST JUMPDEST SWAP1 PUSH1 0x0 MSTORE PUSH1 0x20 PUSH1 0x0 KECCAK256 ADD PUSH1 0x0 PUSH2 0x100 EXP DUP2 SLOAD DUP2 PUSH20 0xFFFFFFFFFFFFFFFFFFFFFFFFFFFFFFFFFFFFFFFF MUL NOT AND SWAP1 DUP4 PUSH20 0xFFFFFFFFFFFFFFFFFFFFFFFFFFFFFFFFFFFFFFFF AND MUL OR SWAP1 SSTORE POP PUSH1 0x0 PUSH1 0x2 PUSH1 0x0 CALLER PUSH20 0xFFFFFFFFFFFFFFFFFFFFFFFFFFFFFFFFFFFFFFFF AND PUSH20 0xFFFFFFFFFFFFFFFFFFFFFFFFFFFFFFFFFFFFFFFF AND DUP2 MSTORE PUSH1 0x20 ADD SWAP1 DUP2 MSTORE PUSH1 0x20 ADD PUSH1 0x0 KECCAK256 PUSH1 0x2 ADD DUP2 SWAP1 SSTORE POP POP JUMP JUMPDEST PUSH1 0x0 DUP1 SLOAD SWAP1 PUSH2 0x100 EXP SWAP1 DIV PUSH20 0xFFFFFFFFFFFFFFFFFFFFFFFFFFFFFFFFFFFFFFFF AND DUP2 JUMP JUMPDEST PUSH1 0x0 PUSH1 0x4 SLOAD SUB PUSH2 0x795 JUMPI PUSH1 0x0 DUP1 SLOAD SWAP1 PUSH2 0x100 EXP SWAP1 DIV PUSH20 0xFFFFFFFFFFFFFFFFFFFFFFFFFFFFFFFFFFFFFFFF AND PUSH20 0xFFFFFFFFFFFFFFFFFFFFFFFFFFFFFFFFFFFFFFFF AND PUSH4 0x5439AD86 PUSH1 0x40 MLOAD DUP2 PUSH4 0xFFFFFFFF AND PUSH1 0xE0 SHL DUP2 MSTORE PUSH1 0x4 ADD PUSH1 0x20 PUSH1 0x40 MLOAD DUP1 DUP4 SUB DUP2 DUP7 GAS STATICCALL ISZERO DUP1 ISZERO PUSH2 0x754 JUMPI RETURNDATASIZE PUSH1 0x0 DUP1 RETURNDATACOPY RETURNDATASIZE PUSH1 0x0 REVERT JUMPDEST POP POP POP POP PUSH1 0x40 MLOAD RETURNDATASIZE PUSH1 0x1F NOT PUSH1 0x1F DUP3 ADD AND DUP3 ADD DUP1 PUSH1 0x40 MSTORE POP DUP2 ADD SWAP1 PUSH2 0x778 SWAP2 SWAP1 PUSH2 0x1833 JUMP JUMPDEST PUSH1 0x1 PUSH1 0x0 PUSH1 0x4 SLOAD DUP2 MSTORE PUSH1 0x20 ADD SWAP1 DUP2 MSTORE PUSH1 0x20 ADD PUSH1 0x0 KECCAK256 PUSH1 0x7 ADD DUP2 SWAP1 SSTORE POP JUMPDEST PUSH1 0x0 PUSH2 0x7A2 PUSH1 0x4 SLOAD PUSH2 0xBDD JUMP JUMPDEST SWAP1 POP PUSH1 0x0 PUSH2 0x7C7 PUSH1 0x1 PUSH1 0x0 PUSH1 0x4 SLOAD DUP2 MSTORE PUSH1 0x20 ADD SWAP1 DUP2 MSTORE PUSH1 0x20 ADD PUSH1 0x0 KECCAK256 PUSH1 0x7 ADD SLOAD PUSH2 0xE1C JUMP JUMPDEST SWAP1 POP PUSH1 0x64 DUP2 PUSH2 0x7D6 SWAP2 SWAP1 PUSH2 0x188F JUMP JUMPDEST DUP3 GT PUSH2 0x817 JUMPI PUSH1 0x40 MLOAD PUSH32 0x8C379A000000000000000000000000000000000000000000000000000000000 DUP2 MSTORE PUSH1 0x4 ADD PUSH2 0x80E SWAP1 PUSH2 0x190C JUMP JUMPDEST PUSH1 0x40 MLOAD DUP1 SWAP2 SUB SWAP1 REVERT JUMPDEST PUSH1 0x4 PUSH1 0x0 DUP2 SLOAD DUP1 SWAP3 SWAP2 SWAP1 PUSH2 0x82A SWAP1 PUSH2 0x192C JUMP JUMPDEST SWAP2 SWAP1 POP SSTORE POP DUP4 PUSH1 0x1 PUSH1 0x0 PUSH1 0x4 SLOAD DUP2 MSTORE PUSH1 0x20 ADD SWAP1 DUP2 MSTORE PUSH1 0x20 ADD PUSH1 0x0 KECCAK256 PUSH1 0x6 ADD SWAP1 DUP2 PUSH2 0x854 SWAP2 SWAP1 PUSH2 0x1B8B JUMP JUMPDEST POP PUSH1 0x2 PUSH1 0x0 CALLER PUSH20 0xFFFFFFFFFFFFFFFFFFFFFFFFFFFFFFFFFFFFFFFF AND PUSH20 0xFFFFFFFFFFFFFFFFFFFFFFFFFFFFFFFFFFFFFFFF AND DUP2 MSTORE PUSH1 0x20 ADD SWAP1 DUP2 MSTORE PUSH1 0x20 ADD PUSH1 0x0 KECCAK256 PUSH1 0x2 ADD SLOAD PUSH1 0x1 PUSH1 0x0 PUSH1 0x4 SLOAD DUP2 MSTORE PUSH1 0x20 ADD SWAP1 DUP2 MSTORE PUSH1 0x20 ADD PUSH1 0x0 KECCAK256 PUSH1 0x3 ADD PUSH1 0x0 DUP3 DUP3 SLOAD PUSH2 0x8BF SWAP2 SWAP1 PUSH2 0x17BB JUMP JUMPDEST SWAP3 POP POP DUP2 SWAP1 SSTORE POP PUSH1 0x1 DUP1 PUSH1 0x0 PUSH1 0x4 SLOAD DUP2 MSTORE PUSH1 0x20 ADD SWAP1 DUP2 MSTORE PUSH1 0x20 ADD PUSH1 0x0 KECCAK256 PUSH1 0x5 ADD PUSH1 0x0 CALLER PUSH20 0xFFFFFFFFFFFFFFFFFFFFFFFFFFFFFFFFFFFFFFFF AND PUSH20 0xFFFFFFFFFFFFFFFFFFFFFFFFFFFFFFFFFFFFFFFF AND DUP2 MSTORE PUSH1 0x20 ADD SWAP1 DUP2 MSTORE PUSH1 0x20 ADD PUSH1 0x0 KECCAK256 PUSH1 0x0 PUSH2 0x100 EXP DUP2 SLOAD DUP2 PUSH1 0xFF MUL NOT AND SWAP1 DUP4 ISZERO ISZERO MUL OR SWAP1 SSTORE POP PUSH1 0x0 DUP1 SLOAD SWAP1 PUSH2 0x100 EXP SWAP1 DIV PUSH20 0xFFFFFFFFFFFFFFFFFFFFFFFFFFFFFFFFFFFFFFFF AND PUSH20 0xFFFFFFFFFFFFFFFFFFFFFFFFFFFFFFFFFFFFFFFF AND PUSH4 0x9711715A PUSH1 0x40 MLOAD DUP2 PUSH4 0xFFFFFFFF AND PUSH1 0xE0 SHL DUP2 MSTORE PUSH1 0x4 ADD PUSH1 0x20 PUSH1 0x40 MLOAD DUP1 DUP4 SUB DUP2 PUSH1 0x0 DUP8 GAS CALL ISZERO DUP1 ISZERO PUSH2 0x9A0 JUMPI RETURNDATASIZE PUSH1 0x0 DUP1 RETURNDATACOPY RETURNDATASIZE PUSH1 0x0 REVERT JUMPDEST POP POP POP POP PUSH1 0x40 MLOAD RETURNDATASIZE PUSH1 0x1F NOT PUSH1 0x1F DUP3 ADD AND DUP3 ADD DUP1 PUSH1 0x40 MSTORE POP DUP2 ADD SWAP1 PUSH2 0x9C4 SWAP2 SWAP1 PUSH2 0x1833 JUMP JUMPDEST PUSH1 0x1 PUSH1 0x0 PUSH1 0x4 SLOAD DUP2 MSTORE PUSH1 0x20 ADD SWAP1 DUP2 MSTORE PUSH1 0x20 ADD PUSH1 0x0 KECCAK256 PUSH1 0x7 ADD DUP2 SWAP1 SSTORE POP TIMESTAMP PUSH1 0x1 PUSH1 0x0 PUSH1 0x4 SLOAD DUP2 MSTORE PUSH1 0x20 ADD SWAP1 DUP2 MSTORE PUSH1 0x20 ADD PUSH1 0x0 KECCAK256 PUSH1 0x0 ADD DUP2 SWAP1 SSTORE POP DUP3 TIMESTAMP PUSH2 0xA09 SWAP2 SWAP1 PUSH2 0x17BB JUMP JUMPDEST PUSH1 0x1 PUSH1 0x0 PUSH1 0x4 SLOAD DUP2 MSTORE PUSH1 0x20 ADD SWAP1 DUP2 MSTORE PUSH1 0x20 ADD PUSH1 0x0 KECCAK256 PUSH1 0x1 ADD DUP2 SWAP1 SSTORE POP PUSH1 0x0 PUSH1 0x2 PUSH1 0x0 CALLER PUSH20 0xFFFFFFFFFFFFFFFFFFFFFFFFFFFFFFFFFFFFFFFF AND PUSH20 0xFFFFFFFFFFFFFFFFFFFFFFFFFFFFFFFFFFFFFFFF AND DUP2 MSTORE PUSH1 0x20 ADD SWAP1 DUP2 MSTORE PUSH1 0x20 ADD PUSH1 0x0 KECCAK256 PUSH1 0x1 ADD DUP1 SLOAD SWAP1 POP GT ISZERO PUSH2 0xA7C JUMPI PUSH2 0xA7B PUSH2 0xF70 JUMP JUMPDEST JUMPDEST PUSH32 0x92C8EBE2D9E3D6FAE165E2A6B9EC45047969E4A69A779A5B833D98F100478139 PUSH1 0x4 SLOAD DUP6 PUSH1 0x40 MLOAD PUSH2 0xAAF SWAP3 SWAP2 SWAP1 PUSH2 0x1CC0 JUMP JUMPDEST PUSH1 0x40 MLOAD DUP1 SWAP2 SUB SWAP1 LOG1 POP POP POP POP JUMP JUMPDEST PUSH1 0x3 PUSH1 0x1 SWAP1 SLOAD SWAP1 PUSH2 0x100 EXP SWAP1 DIV PUSH1 0xFF AND ISZERO PUSH2 0xB0D JUMPI PUSH1 0x40 MLOAD PUSH32 0x8C379A000000000000000000000000000000000000000000000000000000000 DUP2 MSTORE PUSH1 0x4 ADD PUSH2 0xB04 SWAP1 PUSH2 0x1D3C JUMP JUMPDEST PUSH1 0x40 MLOAD DUP1 SWAP2 SUB SWAP1 REVERT JUMPDEST PUSH1 0x0 PUSH1 0x4 DUP2 SWAP1 SSTORE POP PUSH1 0x3 PUSH1 0x0 SWAP1 SLOAD SWAP1 PUSH2 0x100 EXP SWAP1 DIV PUSH1 0xFF AND SWAP1 POP DUP2 PUSH1 0x0 DUP1 PUSH2 0x100 EXP DUP2 SLOAD DUP2 PUSH20 0xFFFFFFFFFFFFFFFFFFFFFFFFFFFFFFFFFFFFFFFF MUL NOT AND SWAP1 DUP4 PUSH20 0xFFFFFFFFFFFFFFFFFFFFFFFFFFFFFFFFFFFFFFFF AND MUL OR SWAP1 SSTORE POP PUSH1 0x1 PUSH1 0x3 PUSH1 0x1 PUSH2 0x100 EXP DUP2 SLOAD DUP2 PUSH1 0xFF MUL NOT AND SWAP1 DUP4 ISZERO ISZERO MUL OR SWAP1 SSTORE POP PUSH32 0xC4D66DE8473E8F74CB05DF264EE8262DA16B56717EF1F05D73BFDCEA3ADC85E5 PUSH1 0x0 DUP1 SLOAD SWAP1 PUSH2 0x100 EXP SWAP1 DIV PUSH20 0xFFFFFFFFFFFFFFFFFFFFFFFFFFFFFFFFFFFFFFFF AND PUSH1 0x40 MLOAD PUSH2 0xBD1 SWAP2 SWAP1 PUSH2 0x145F JUMP JUMPDEST PUSH1 0x40 MLOAD DUP1 SWAP2 SUB SWAP1 LOG1 POP POP JUMP JUMPDEST PUSH1 0x0 PUSH1 0x3 PUSH1 0x0 SWAP1 SLOAD SWAP1 PUSH2 0x100 EXP SWAP1 DIV PUSH1 0xFF AND ISZERO PUSH2 0xCF1 JUMPI PUSH1 0x0 DUP1 SLOAD SWAP1 PUSH2 0x100 EXP SWAP1 DIV PUSH20 0xFFFFFFFFFFFFFFFFFFFFFFFFFFFFFFFFFFFFFFFF AND PUSH20 0xFFFFFFFFFFFFFFFFFFFFFFFFFFFFFFFFFFFFFFFF AND PUSH4 0x4EE2CD7E CALLER PUSH1 0x1 PUSH1 0x0 DUP7 DUP2 MSTORE PUSH1 0x20 ADD SWAP1 DUP2 MSTORE PUSH1 0x20 ADD PUSH1 0x0 KECCAK256 PUSH1 0x7 ADD SLOAD PUSH1 0x40 MLOAD DUP4 PUSH4 0xFFFFFFFF AND PUSH1 0xE0 SHL DUP2 MSTORE PUSH1 0x4 ADD PUSH2 0xC65 SWAP3 SWAP2 SWAP1 PUSH2 0x1D5C JUMP JUMPDEST PUSH1 0x20 PUSH1 0x40 MLOAD DUP1 DUP4 SUB DUP2 DUP7 GAS STATICCALL ISZERO DUP1 ISZERO PUSH2 0xC82 JUMPI RETURNDATASIZE PUSH1 0x0 DUP1 RETURNDATACOPY RETURNDATASIZE PUSH1 0x0 REVERT JUMPDEST POP POP POP POP PUSH1 0x40 MLOAD RETURNDATASIZE PUSH1 0x1F NOT PUSH1 0x1F DUP3 ADD AND DUP3 ADD DUP1 PUSH1 0x40 MSTORE POP DUP2 ADD SWAP1 PUSH2 0xCA6 SWAP2 SWAP1 PUSH2 0x1833 JUMP JUMPDEST PUSH1 0x2 PUSH1 0x0 CALLER PUSH20 0xFFFFFFFFFFFFFFFFFFFFFFFFFFFFFFFFFFFFFFFF AND PUSH20 0xFFFFFFFFFFFFFFFFFFFFFFFFFFFFFFFFFFFFFFFF AND DUP2 MSTORE PUSH1 0x20 ADD SWAP1 DUP2 MSTORE PUSH1 0x20 ADD PUSH1 0x0 KECCAK256 PUSH1 0x2 ADD DUP2 SWAP1 SSTORE POP PUSH2 0xDD2 JUMP JUMPDEST PUSH1 0x0 DUP1 SLOAD SWAP1 PUSH2 0x100 EXP SWAP1 DIV PUSH20 0xFFFFFFFFFFFFFFFFFFFFFFFFFFFFFFFFFFFFFFFF AND PUSH20 0xFFFFFFFFFFFFFFFFFFFFFFFFFFFFFFFFFFFFFFFF AND PUSH4 0x70A08231 CALLER PUSH1 0x40 MLOAD DUP3 PUSH4 0xFFFFFFFF AND PUSH1 0xE0 SHL DUP2 MSTORE PUSH1 0x4 ADD PUSH2 0xD4A SWAP2 SWAP1 PUSH2 0x145F JUMP JUMPDEST PUSH1 0x20 PUSH1 0x40 MLOAD DUP1 DUP4 SUB DUP2 DUP7 GAS STATICCALL ISZERO DUP1 ISZERO PUSH2 0xD67 JUMPI RETURNDATASIZE PUSH1 0x0 DUP1 RETURNDATACOPY RETURNDATASIZE PUSH1 0x0 REVERT JUMPDEST POP POP POP POP PUSH1 0x40 MLOAD RETURNDATASIZE PUSH1 0x1F NOT PUSH1 0x1F DUP3 ADD AND DUP3 ADD DUP1 PUSH1 0x40 MSTORE POP DUP2 ADD SWAP1 PUSH2 0xD8B SWAP2 SWAP1 PUSH2 0x1833 JUMP JUMPDEST PUSH1 0x2 PUSH1 0x0 CALLER PUSH20 0xFFFFFFFFFFFFFFFFFFFFFFFFFFFFFFFFFFFFFFFF AND PUSH20 0xFFFFFFFFFFFFFFFFFFFFFFFFFFFFFFFFFFFFFFFF AND DUP2 MSTORE PUSH1 0x20 ADD SWAP1 DUP2 MSTORE PUSH1 0x20 ADD PUSH1 0x0 KECCAK256 PUSH1 0x2 ADD DUP2 SWAP1 SSTORE POP JUMPDEST PUSH1 0x2 PUSH1 0x0 CALLER PUSH20 0xFFFFFFFFFFFFFFFFFFFFFFFFFFFFFFFFFFFFFFFF AND PUSH20 0xFFFFFFFFFFFFFFFFFFFFFFFFFFFFFFFFFFFFFFFF AND DUP2 MSTORE PUSH1 0x20 ADD SWAP1 DUP2 MSTORE PUSH1 0x20 ADD PUSH1 0x0 KECCAK256 PUSH1 0x2 ADD SLOAD SWAP1 POP SWAP2 SWAP1 POP JUMP JUMPDEST PUSH1 0x0 DUP1 PUSH1 0x3 PUSH1 0x0 SWAP1 SLOAD SWAP1 PUSH2 0x100 EXP SWAP1 DIV PUSH1 0xFF AND ISZERO PUSH2 0xED5 JUMPI PUSH1 0x0 DUP1 SLOAD SWAP1 PUSH2 0x100 EXP SWAP1 DIV PUSH20 0xFFFFFFFFFFFFFFFFFFFFFFFFFFFFFFFFFFFFFFFF AND PUSH20 0xFFFFFFFFFFFFFFFFFFFFFFFFFFFFFFFFFFFFFFFF AND PUSH4 0x981B24D0 DUP5 PUSH1 0x40 MLOAD DUP3 PUSH4 0xFFFFFFFF AND PUSH1 0xE0 SHL DUP2 MSTORE PUSH1 0x4 ADD PUSH2 0xE8D SWAP2 SWAP1 PUSH2 0x1D85 JUMP JUMPDEST PUSH1 0x20 PUSH1 0x40 MLOAD DUP1 DUP4 SUB DUP2 DUP7 GAS STATICCALL ISZERO DUP1 ISZERO PUSH2 0xEAA JUMPI RETURNDATASIZE PUSH1 0x0 DUP1 RETURNDATACOPY RETURNDATASIZE PUSH1 0x0 REVERT JUMPDEST POP POP POP POP PUSH1 0x40 MLOAD RETURNDATASIZE PUSH1 0x1F NOT PUSH1 0x1F DUP3 ADD AND DUP3 ADD DUP1 PUSH1 0x40 MSTORE POP DUP2 ADD SWAP1 PUSH2 0xECE SWAP2 SWAP1 PUSH2 0x1833 JUMP JUMPDEST SWAP1 POP PUSH2 0xF67 JUMP JUMPDEST PUSH1 0x0 DUP1 SLOAD SWAP1 PUSH2 0x100 EXP SWAP1 DIV PUSH20 0xFFFFFFFFFFFFFFFFFFFFFFFFFFFFFFFFFFFFFFFF AND PUSH20 0xFFFFFFFFFFFFFFFFFFFFFFFFFFFFFFFFFFFFFFFF AND PUSH4 0x18160DDD PUSH1 0x40 MLOAD DUP2 PUSH4 0xFFFFFFFF AND PUSH1 0xE0 SHL DUP2 MSTORE PUSH1 0x4 ADD PUSH1 0x20 PUSH1 0x40 MLOAD DUP1 DUP4 SUB DUP2 DUP7 GAS STATICCALL ISZERO DUP1 ISZERO PUSH2 0xF40 JUMPI RETURNDATASIZE PUSH1 0x0 DUP1 RETURNDATACOPY RETURNDATASIZE PUSH1 0x0 REVERT JUMPDEST POP POP POP POP PUSH1 0x40 MLOAD RETURNDATASIZE PUSH1 0x1F NOT PUSH1 0x1F DUP3 ADD AND DUP3 ADD DUP1 PUSH1 0x40 MSTORE POP DUP2 ADD SWAP1 PUSH2 0xF64 SWAP2 SWAP1 PUSH2 0x1833 JUMP JUMPDEST SWAP1 POP JUMPDEST DUP1 SWAP2 POP POP SWAP2 SWAP1 POP JUMP JUMPDEST PUSH1 0x0 JUMPDEST PUSH1 0x2 PUSH1 0x0 CALLER PUSH20 0xFFFFFFFFFFFFFFFFFFFFFFFFFFFFFFFFFFFFFFFF AND PUSH20 0xFFFFFFFFFFFFFFFFFFFFFFFFFFFFFFFFFFFFFFFF AND DUP2 MSTORE PUSH1 0x20 ADD SWAP1 DUP2 MSTORE PUSH1 0x20 ADD PUSH1 0x0 KECCAK256 PUSH1 0x1 ADD DUP1 SLOAD SWAP1 POP DUP2 LT ISZERO PUSH2 0x1300 JUMPI PUSH1 0x0 PUSH1 0x2 PUSH1 0x0 CALLER PUSH20 0xFFFFFFFFFFFFFFFFFFFFFFFFFFFFFFFFFFFFFFFF AND PUSH20 0xFFFFFFFFFFFFFFFFFFFFFFFFFFFFFFFFFFFFFFFF AND DUP2 MSTORE PUSH1 0x20 ADD SWAP1 DUP2 MSTORE PUSH1 0x20 ADD PUSH1 0x0 KECCAK256 PUSH1 0x1 ADD DUP3 DUP2 SLOAD DUP2 LT PUSH2 0x1016 JUMPI PUSH2 0x1015 PUSH2 0x17EF JUMP JUMPDEST JUMPDEST SWAP1 PUSH1 0x0 MSTORE PUSH1 0x20 PUSH1 0x0 KECCAK256 ADD PUSH1 0x0 SWAP1 SLOAD SWAP1 PUSH2 0x100 EXP SWAP1 DIV PUSH20 0xFFFFFFFFFFFFFFFFFFFFFFFFFFFFFFFFFFFFFFFF AND SWAP1 POP PUSH1 0x2 PUSH1 0x0 CALLER PUSH20 0xFFFFFFFFFFFFFFFFFFFFFFFFFFFFFFFFFFFFFFFF AND PUSH20 0xFFFFFFFFFFFFFFFFFFFFFFFFFFFFFFFFFFFFFFFF AND DUP2 MSTORE PUSH1 0x20 ADD SWAP1 DUP2 MSTORE PUSH1 0x20 ADD PUSH1 0x0 KECCAK256 PUSH1 0x0 ADD PUSH1 0x0 DUP3 PUSH20 0xFFFFFFFFFFFFFFFFFFFFFFFFFFFFFFFFFFFFFFFF AND PUSH20 0xFFFFFFFFFFFFFFFFFFFFFFFFFFFFFFFFFFFFFFFF AND DUP2 MSTORE PUSH1 0x20 ADD SWAP1 DUP2 MSTORE PUSH1 0x20 ADD PUSH1 0x0 KECCAK256 SLOAD PUSH1 0x2 PUSH1 0x0 CALLER PUSH20 0xFFFFFFFFFFFFFFFFFFFFFFFFFFFFFFFFFFFFFFFF AND PUSH20 0xFFFFFFFFFFFFFFFFFFFFFFFFFFFFFFFFFFFFFFFF AND DUP2 MSTORE PUSH1 0x20 ADD SWAP1 DUP2 MSTORE PUSH1 0x20 ADD PUSH1 0x0 KECCAK256 PUSH1 0x2 ADD PUSH1 0x0 DUP3 DUP3 SLOAD PUSH2 0x1114 SWAP2 SWAP1 PUSH2 0x1DA0 JUMP JUMPDEST SWAP3 POP POP DUP2 SWAP1 SSTORE POP PUSH1 0x2 PUSH1 0x0 CALLER PUSH20 0xFFFFFFFFFFFFFFFFFFFFFFFFFFFFFFFFFFFFFFFF AND PUSH20 0xFFFFFFFFFFFFFFFFFFFFFFFFFFFFFFFFFFFFFFFF AND DUP2 MSTORE PUSH1 0x20 ADD SWAP1 DUP2 MSTORE PUSH1 0x20 ADD PUSH1 0x0 KECCAK256 PUSH1 0x0 ADD PUSH1 0x0 DUP3 PUSH20 0xFFFFFFFFFFFFFFFFFFFFFFFFFFFFFFFFFFFFFFFF AND PUSH20 0xFFFFFFFFFFFFFFFFFFFFFFFFFFFFFFFFFFFFFFFF AND DUP2 MSTORE PUSH1 0x20 ADD SWAP1 DUP2 MSTORE PUSH1 0x20 ADD PUSH1 0x0 KECCAK256 SLOAD PUSH1 0x2 PUSH1 0x0 DUP4 PUSH20 0xFFFFFFFFFFFFFFFFFFFFFFFFFFFFFFFFFFFFFFFF AND PUSH20 0xFFFFFFFFFFFFFFFFFFFFFFFFFFFFFFFFFFFFFFFF AND DUP2 MSTORE PUSH1 0x20 ADD SWAP1 DUP2 MSTORE PUSH1 0x20 ADD PUSH1 0x0 KECCAK256 PUSH1 0x2 ADD DUP2 SWAP1 SSTORE POP PUSH1 0x1 DUP1 PUSH1 0x0 PUSH1 0x4 SLOAD DUP2 MSTORE PUSH1 0x20 ADD SWAP1 DUP2 MSTORE PUSH1 0x20 ADD PUSH1 0x0 KECCAK256 PUSH1 0x5 ADD PUSH1 0x0 DUP4 PUSH20 0xFFFFFFFFFFFFFFFFFFFFFFFFFFFFFFFFFFFFFFFF AND PUSH20 0xFFFFFFFFFFFFFFFFFFFFFFFFFFFFFFFFFFFFFFFF AND DUP2 MSTORE PUSH1 0x20 ADD SWAP1 DUP2 MSTORE PUSH1 0x20 ADD PUSH1 0x0 KECCAK256 PUSH1 0x0 PUSH2 0x100 EXP DUP2 SLOAD DUP2 PUSH1 0xFF MUL NOT AND SWAP1 DUP4 ISZERO ISZERO MUL OR SWAP1 SSTORE POP PUSH1 0x0 PUSH1 0x2 PUSH1 0x0 CALLER PUSH20 0xFFFFFFFFFFFFFFFFFFFFFFFFFFFFFFFFFFFFFFFF AND PUSH20 0xFFFFFFFFFFFFFFFFFFFFFFFFFFFFFFFFFFFFFFFF AND DUP2 MSTORE PUSH1 0x20 ADD SWAP1 DUP2 MSTORE PUSH1 0x20 ADD PUSH1 0x0 KECCAK256 PUSH1 0x1 ADD DUP4 DUP2 SLOAD DUP2 LT PUSH2 0x12A4 JUMPI PUSH2 0x12A3 PUSH2 0x17EF JUMP JUMPDEST JUMPDEST SWAP1 PUSH1 0x0 MSTORE PUSH1 0x20 PUSH1 0x0 KECCAK256 ADD PUSH1 0x0 PUSH2 0x100 EXP DUP2 SLOAD DUP2 PUSH20 0xFFFFFFFFFFFFFFFFFFFFFFFFFFFFFFFFFFFFFFFF MUL NOT AND SWAP1 DUP4 PUSH20 0xFFFFFFFFFFFFFFFFFFFFFFFFFFFFFFFFFFFFFFFF AND MUL OR SWAP1 SSTORE POP POP DUP1 DUP1 PUSH2 0x12F8 SWAP1 PUSH2 0x192C JUMP JUMPDEST SWAP2 POP POP PUSH2 0xF73 JUMP JUMPDEST POP JUMP JUMPDEST PUSH1 0x0 PUSH1 0x40 MLOAD SWAP1 POP SWAP1 JUMP JUMPDEST PUSH1 0x0 DUP1 REVERT JUMPDEST PUSH1 0x0 DUP1 REVERT JUMPDEST PUSH1 0x0 DUP2 ISZERO ISZERO SWAP1 POP SWAP2 SWAP1 POP JUMP JUMPDEST PUSH2 0x132C DUP2 PUSH2 0x1317 JUMP JUMPDEST DUP2 EQ PUSH2 0x1337 JUMPI PUSH1 0x0 DUP1 REVERT JUMPDEST POP JUMP JUMPDEST PUSH1 0x0 DUP2 CALLDATALOAD SWAP1 POP PUSH2 0x1349 DUP2 PUSH2 0x1323 JUMP JUMPDEST SWAP3 SWAP2 POP POP JUMP JUMPDEST PUSH1 0x0 DUP2 SWAP1 POP SWAP2 SWAP1 POP JUMP JUMPDEST PUSH2 0x1362 DUP2 PUSH2 0x134F JUMP JUMPDEST DUP2 EQ PUSH2 0x136D JUMPI PUSH1 0x0 DUP1 REVERT JUMPDEST POP JUMP JUMPDEST PUSH1 0x0 DUP2 CALLDATALOAD SWAP1 POP PUSH2 0x137F DUP2 PUSH2 0x1359 JUMP JUMPDEST SWAP3 SWAP2 POP POP JUMP JUMPDEST PUSH1 0x0 DUP1 PUSH1 0x40 DUP4 DUP6 SUB SLT ISZERO PUSH2 0x139C JUMPI PUSH2 0x139B PUSH2 0x130D JUMP JUMPDEST JUMPDEST PUSH1 0x0 PUSH2 0x13AA DUP6 DUP3 DUP7 ADD PUSH2 0x133A JUMP JUMPDEST SWAP3 POP POP PUSH1 0x20 PUSH2 0x13BB DUP6 DUP3 DUP7 ADD PUSH2 0x1370 JUMP JUMPDEST SWAP2 POP POP SWAP3 POP SWAP3 SWAP1 POP JUMP JUMPDEST PUSH1 0x0 PUSH20 0xFFFFFFFFFFFFFFFFFFFFFFFFFFFFFFFFFFFFFFFF DUP3 AND SWAP1 POP SWAP2 SWAP1 POP JUMP JUMPDEST PUSH1 0x0 PUSH2 0x13F0 DUP3 PUSH2 0x13C5 JUMP JUMPDEST SWAP1 POP SWAP2 SWAP1 POP JUMP JUMPDEST PUSH2 0x1400 DUP2 PUSH2 0x13E5 JUMP JUMPDEST DUP2 EQ PUSH2 0x140B JUMPI PUSH1 0x0 DUP1 REVERT JUMPDEST POP JUMP JUMPDEST PUSH1 0x0 DUP2 CALLDATALOAD SWAP1 POP PUSH2 0x141D DUP2 PUSH2 0x13F7 JUMP JUMPDEST SWAP3 SWAP2 POP POP JUMP JUMPDEST PUSH1 0x0 PUSH1 0x20 DUP3 DUP5 SUB SLT ISZERO PUSH2 0x1439 JUMPI PUSH2 0x1438 PUSH2 0x130D JUMP JUMPDEST JUMPDEST PUSH1 0x0 PUSH2 0x1447 DUP5 DUP3 DUP6 ADD PUSH2 0x140E JUMP JUMPDEST SWAP2 POP POP SWAP3 SWAP2 POP POP JUMP JUMPDEST PUSH2 0x1459 DUP2 PUSH2 0x13E5 JUMP JUMPDEST DUP3 MSTORE POP POP JUMP JUMPDEST PUSH1 0x0 PUSH1 0x20 DUP3 ADD SWAP1 POP PUSH2 0x1474 PUSH1 0x0 DUP4 ADD DUP5 PUSH2 0x1450 JUMP JUMPDEST SWAP3 SWAP2 POP POP JUMP JUMPDEST PUSH1 0x0 DUP1 REVERT JUMPDEST PUSH1 0x0 DUP1 REVERT JUMPDEST PUSH1 0x0 PUSH1 0x1F NOT PUSH1 0x1F DUP4 ADD AND SWAP1 POP SWAP2 SWAP1 POP JUMP JUMPDEST PUSH32 0x4E487B7100000000000000000000000000000000000000000000000000000000 PUSH1 0x0 MSTORE PUSH1 0x41 PUSH1 0x4 MSTORE PUSH1 0x24 PUSH1 0x0 REVERT JUMPDEST PUSH2 0x14CD DUP3 PUSH2 0x1484 JUMP JUMPDEST DUP2 ADD DUP2 DUP2 LT PUSH8 0xFFFFFFFFFFFFFFFF DUP3 GT OR ISZERO PUSH2 0x14EC JUMPI PUSH2 0x14EB PUSH2 0x1495 JUMP JUMPDEST JUMPDEST DUP1 PUSH1 0x40 MSTORE POP POP POP JUMP JUMPDEST PUSH1 0x0 PUSH2 0x14FF PUSH2 0x1303 JUMP JUMPDEST SWAP1 POP PUSH2 0x150B DUP3 DUP3 PUSH2 0x14C4 JUMP JUMPDEST SWAP2 SWAP1 POP JUMP JUMPDEST PUSH1 0x0 PUSH8 0xFFFFFFFFFFFFFFFF DUP3 GT ISZERO PUSH2 0x152B JUMPI PUSH2 0x152A PUSH2 0x1495 JUMP JUMPDEST JUMPDEST PUSH2 0x1534 DUP3 PUSH2 0x1484 JUMP JUMPDEST SWAP1 POP PUSH1 0x20 DUP2 ADD SWAP1 POP SWAP2 SWAP1 POP JUMP JUMPDEST DUP3 DUP2 DUP4 CALLDATACOPY PUSH1 0x0 DUP4 DUP4 ADD MSTORE POP POP POP JUMP JUMPDEST PUSH1 0x0 PUSH2 0x1563 PUSH2 0x155E DUP5 PUSH2 0x1510 JUMP JUMPDEST PUSH2 0x14F5 JUMP JUMPDEST SWAP1 POP DUP3 DUP2 MSTORE PUSH1 0x20 DUP2 ADD DUP5 DUP5 DUP5 ADD GT ISZERO PUSH2 0x157F JUMPI PUSH2 0x157E PUSH2 0x147F JUMP JUMPDEST JUMPDEST PUSH2 0x158A DUP5 DUP3 DUP6 PUSH2 0x1541 JUMP JUMPDEST POP SWAP4 SWAP3 POP POP POP JUMP JUMPDEST PUSH1 0x0 DUP3 PUSH1 0x1F DUP4 ADD SLT PUSH2 0x15A7 JUMPI PUSH2 0x15A6 PUSH2 0x147A JUMP JUMPDEST JUMPDEST DUP2 CALLDATALOAD PUSH2 0x15B7 DUP5 DUP3 PUSH1 0x20 DUP7 ADD PUSH2 0x1550 JUMP JUMPDEST SWAP2 POP POP SWAP3 SWAP2 POP POP JUMP JUMPDEST PUSH1 0x0 DUP1 PUSH1 0x40 DUP4 DUP6 SUB SLT ISZERO PUSH2 0x15D7 JUMPI PUSH2 0x15D6 PUSH2 0x130D JUMP JUMPDEST JUMPDEST PUSH1 0x0 DUP4 ADD CALLDATALOAD PUSH8 0xFFFFFFFFFFFFFFFF DUP2 GT ISZERO PUSH2 0x15F5 JUMPI PUSH2 0x15F4 PUSH2 0x1312 JUMP JUMPDEST JUMPDEST PUSH2 0x1601 DUP6 DUP3 DUP7 ADD PUSH2 0x1592 JUMP JUMPDEST SWAP3 POP POP PUSH1 0x20 PUSH2 0x1612 DUP6 DUP3 DUP7 ADD PUSH2 0x1370 JUMP JUMPDEST SWAP2 POP POP SWAP3 POP SWAP3 SWAP1 POP JUMP JUMPDEST PUSH1 0x0 DUP1 PUSH1 0x40 DUP4 DUP6 SUB SLT ISZERO PUSH2 0x1633 JUMPI PUSH2 0x1632 PUSH2 0x130D JUMP JUMPDEST JUMPDEST PUSH1 0x0 PUSH2 0x1641 DUP6 DUP3 DUP7 ADD PUSH2 0x140E JUMP JUMPDEST SWAP3 POP POP PUSH1 0x20 PUSH2 0x1652 DUP6 DUP3 DUP7 ADD PUSH2 0x133A JUMP JUMPDEST SWAP2 POP POP SWAP3 POP SWAP3 SWAP1 POP JUMP JUMPDEST PUSH1 0x0 DUP3 DUP3 MSTORE PUSH1 0x20 DUP3 ADD SWAP1 POP SWAP3 SWAP2 POP POP JUMP JUMPDEST PUSH32 0x566F74696E6720656E6465640000000000000000000000000000000000000000 PUSH1 0x0 DUP3 ADD MSTORE POP JUMP JUMPDEST PUSH1 0x0 PUSH2 0x16A3 PUSH1 0xC DUP4 PUSH2 0x165C JUMP JUMPDEST SWAP2 POP PUSH2 0x16AE DUP3 PUSH2 0x166D JUMP JUMPDEST PUSH1 0x20 DUP3 ADD SWAP1 POP SWAP2 SWAP1 POP JUMP JUMPDEST PUSH1 0x0 PUSH1 0x20 DUP3 ADD SWAP1 POP DUP2 DUP2 SUB PUSH1 0x0 DUP4 ADD MSTORE PUSH2 0x16D2 DUP2 PUSH2 0x1696 JUMP JUMPDEST SWAP1 POP SWAP2 SWAP1 POP JUMP JUMPDEST PUSH32 0x416C726561647920766F74656400000000000000000000000000000000000000 PUSH1 0x0 DUP3 ADD MSTORE POP JUMP JUMPDEST PUSH1 0x0 PUSH2 0x170F PUSH1 0xD DUP4 PUSH2 0x165C JUMP JUMPDEST SWAP2 POP PUSH2 0x171A DUP3 PUSH2 0x16D9 JUMP JUMPDEST PUSH1 0x20 DUP3 ADD SWAP1 POP SWAP2 SWAP1 POP JUMP JUMPDEST PUSH1 0x0 PUSH1 0x20 DUP3 ADD SWAP1 POP DUP2 DUP2 SUB PUSH1 0x0 DUP4 ADD MSTORE PUSH2 0x173E DUP2 PUSH2 0x1702 JUMP JUMPDEST SWAP1 POP SWAP2 SWAP1 POP JUMP JUMPDEST PUSH2 0x174E DUP2 PUSH2 0x1317 JUMP JUMPDEST DUP3 MSTORE POP POP JUMP JUMPDEST PUSH2 0x175D DUP2 PUSH2 0x134F JUMP JUMPDEST DUP3 MSTORE POP POP JUMP JUMPDEST PUSH1 0x0 PUSH1 0x40 DUP3 ADD SWAP1 POP PUSH2 0x1778 PUSH1 0x0 DUP4 ADD DUP6 PUSH2 0x1745 JUMP JUMPDEST PUSH2 0x1785 PUSH1 0x20 DUP4 ADD DUP5 PUSH2 0x1754 JUMP JUMPDEST SWAP4 SWAP3 POP POP POP JUMP JUMPDEST PUSH32 0x4E487B7100000000000000000000000000000000000000000000000000000000 PUSH1 0x0 MSTORE PUSH1 0x11 PUSH1 0x4 MSTORE PUSH1 0x24 PUSH1 0x0 REVERT JUMPDEST PUSH1 0x0 PUSH2 0x17C6 DUP3 PUSH2 0x134F JUMP JUMPDEST SWAP2 POP PUSH2 0x17D1 DUP4 PUSH2 0x134F JUMP JUMPDEST SWAP3 POP DUP3 DUP3 ADD SWAP1 POP DUP1 DUP3 GT ISZERO PUSH2 0x17E9 JUMPI PUSH2 0x17E8 PUSH2 0x178C JUMP JUMPDEST JUMPDEST SWAP3 SWAP2 POP POP JUMP JUMPDEST PUSH32 0x4E487B7100000000000000000000000000000000000000000000000000000000 PUSH1 0x0 MSTORE PUSH1 0x32 PUSH1 0x4 MSTORE PUSH1 0x24 PUSH1 0x0 REVERT JUMPDEST PUSH1 0x0 DUP2 MLOAD SWAP1 POP PUSH2 0x182D DUP2 PUSH2 0x1359 JUMP JUMPDEST SWAP3 SWAP2 POP POP JUMP JUMPDEST PUSH1 0x0 PUSH1 0x20 DUP3 DUP5 SUB SLT ISZERO PUSH2 0x1849 JUMPI PUSH2 0x1848 PUSH2 0x130D JUMP JUMPDEST JUMPDEST PUSH1 0x0 PUSH2 0x1857 DUP5 DUP3 DUP6 ADD PUSH2 0x181E JUMP JUMPDEST SWAP2 POP POP SWAP3 SWAP2 POP POP JUMP JUMPDEST PUSH32 0x4E487B7100000000000000000000000000000000000000000000000000000000 PUSH1 0x0 MSTORE PUSH1 0x12 PUSH1 0x4 MSTORE PUSH1 0x24 PUSH1 0x0 REVERT JUMPDEST PUSH1 0x0 PUSH2 0x189A DUP3 PUSH2 0x134F JUMP JUMPDEST SWAP2 POP PUSH2 0x18A5 DUP4 PUSH2 0x134F JUMP JUMPDEST SWAP3 POP DUP3 PUSH2 0x18B5 JUMPI PUSH2 0x18B4 PUSH2 0x1860 JUMP JUMPDEST JUMPDEST DUP3 DUP3 DIV SWAP1 POP SWAP3 SWAP2 POP POP JUMP JUMPDEST PUSH32 0x4E65656420312520746F207375626D69742070726F7000000000000000000000 PUSH1 0x0 DUP3 ADD MSTORE POP JUMP JUMPDEST PUSH1 0x0 PUSH2 0x18F6 PUSH1 0x16 DUP4 PUSH2 0x165C JUMP JUMPDEST SWAP2 POP PUSH2 0x1901 DUP3 PUSH2 0x18C0 JUMP JUMPDEST PUSH1 0x20 DUP3 ADD SWAP1 POP SWAP2 SWAP1 POP JUMP JUMPDEST PUSH1 0x0 PUSH1 0x20 DUP3 ADD SWAP1 POP DUP2 DUP2 SUB PUSH1 0x0 DUP4 ADD MSTORE PUSH2 0x1925 DUP2 PUSH2 0x18E9 JUMP JUMPDEST SWAP1 POP SWAP2 SWAP1 POP JUMP JUMPDEST PUSH1 0x0 PUSH2 0x1937 DUP3 PUSH2 0x134F JUMP JUMPDEST SWAP2 POP PUSH32 0xFFFFFFFFFFFFFFFFFFFFFFFFFFFFFFFFFFFFFFFFFFFFFFFFFFFFFFFFFFFFFFFF DUP3 SUB PUSH2 0x1969 JUMPI PUSH2 0x1968 PUSH2 0x178C JUMP JUMPDEST JUMPDEST PUSH1 0x1 DUP3 ADD SWAP1 POP SWAP2 SWAP1 POP JUMP JUMPDEST PUSH1 0x0 DUP2 MLOAD SWAP1 POP SWAP2 SWAP1 POP JUMP JUMPDEST PUSH32 0x4E487B7100000000000000000000000000000000000000000000000000000000 PUSH1 0x0 MSTORE PUSH1 0x22 PUSH1 0x4 MSTORE PUSH1 0x24 PUSH1 0x0 REVERT JUMPDEST PUSH1 0x0 PUSH1 0x2 DUP3 DIV SWAP1 POP PUSH1 0x1 DUP3 AND DUP1 PUSH2 0x19C6 JUMPI PUSH1 0x7F DUP3 AND SWAP2 POP JUMPDEST PUSH1 0x20 DUP3 LT DUP2 SUB PUSH2 0x19D9 JUMPI PUSH2 0x19D8 PUSH2 0x197F JUMP JUMPDEST JUMPDEST POP SWAP2 SWAP1 POP JUMP JUMPDEST PUSH1 0x0 DUP2 SWAP1 POP DUP2 PUSH1 0x0 MSTORE PUSH1 0x20 PUSH1 0x0 KECCAK256 SWAP1 POP SWAP2 SWAP1 POP JUMP JUMPDEST PUSH1 0x0 PUSH1 0x20 PUSH1 0x1F DUP4 ADD DIV SWAP1 POP SWAP2 SWAP1 POP JUMP JUMPDEST PUSH1 0x0 DUP3 DUP3 SHL SWAP1 POP SWAP3 SWAP2 POP POP JUMP JUMPDEST PUSH1 0x0 PUSH1 0x8 DUP4 MUL PUSH2 0x1A41 PUSH32 0xFFFFFFFFFFFFFFFFFFFFFFFFFFFFFFFFFFFFFFFFFFFFFFFFFFFFFFFFFFFFFFFF DUP3 PUSH2 0x1A04 JUMP JUMPDEST PUSH2 0x1A4B DUP7 DUP4 PUSH2 0x1A04 JUMP JUMPDEST SWAP6 POP DUP1 NOT DUP5 AND SWAP4 POP DUP1 DUP7 AND DUP5 OR SWAP3 POP POP POP SWAP4 SWAP3 POP POP POP JUMP JUMPDEST PUSH1 0x0 DUP2 SWAP1 POP SWAP2 SWAP1 POP JUMP JUMPDEST PUSH1 0x0 PUSH2 0x1A88 PUSH2 0x1A83 PUSH2 0x1A7E DUP5 PUSH2 0x134F JUMP JUMPDEST PUSH2 0x1A63 JUMP JUMPDEST PUSH2 0x134F JUMP JUMPDEST SWAP1 POP SWAP2 SWAP1 POP JUMP JUMPDEST PUSH1 0x0 DUP2 SWAP1 POP SWAP2 SWAP1 POP JUMP JUMPDEST PUSH2 0x1AA2 DUP4 PUSH2 0x1A6D JUMP JUMPDEST PUSH2 0x1AB6 PUSH2 0x1AAE DUP3 PUSH2 0x1A8F JUMP JUMPDEST DUP5 DUP5 SLOAD PUSH2 0x1A11 JUMP JUMPDEST DUP3 SSTORE POP POP POP POP JUMP JUMPDEST PUSH1 0x0 SWAP1 JUMP JUMPDEST PUSH2 0x1ACB PUSH2 0x1ABE JUMP JUMPDEST PUSH2 0x1AD6 DUP2 DUP5 DUP5 PUSH2 0x1A99 JUMP JUMPDEST POP POP POP JUMP JUMPDEST JUMPDEST DUP2 DUP2 LT ISZERO PUSH2 0x1AFA JUMPI PUSH2 0x1AEF PUSH1 0x0 DUP3 PUSH2 0x1AC3 JUMP JUMPDEST PUSH1 0x1 DUP2 ADD SWAP1 POP PUSH2 0x1ADC JUMP JUMPDEST POP POP JUMP JUMPDEST PUSH1 0x1F DUP3 GT ISZERO PUSH2 0x1B3F JUMPI PUSH2 0x1B10 DUP2 PUSH2 0x19DF JUMP JUMPDEST PUSH2 0x1B19 DUP5 PUSH2 0x19F4 JUMP JUMPDEST DUP2 ADD PUSH1 0x20 DUP6 LT ISZERO PUSH2 0x1B28 JUMPI DUP2 SWAP1 POP JUMPDEST PUSH2 0x1B3C PUSH2 0x1B34 DUP6 PUSH2 0x19F4 JUMP JUMPDEST DUP4 ADD DUP3 PUSH2 0x1ADB JUMP JUMPDEST POP POP JUMPDEST POP POP POP JUMP JUMPDEST PUSH1 0x0 DUP3 DUP3 SHR SWAP1 POP SWAP3 SWAP2 POP POP JUMP JUMPDEST PUSH1 0x0 PUSH2 0x1B62 PUSH1 0x0 NOT DUP5 PUSH1 0x8 MUL PUSH2 0x1B44 JUMP JUMPDEST NOT DUP1 DUP4 AND SWAP2 POP POP SWAP3 SWAP2 POP POP JUMP JUMPDEST PUSH1 0x0 PUSH2 0x1B7B DUP4 DUP4 PUSH2 0x1B51 JUMP JUMPDEST SWAP2 POP DUP3 PUSH1 0x2 MUL DUP3 OR SWAP1 POP SWAP3 SWAP2 POP POP JUMP JUMPDEST PUSH2 0x1B94 DUP3 PUSH2 0x1974 JUMP JUMPDEST PUSH8 0xFFFFFFFFFFFFFFFF DUP2 GT ISZERO PUSH2 0x1BAD JUMPI PUSH2 0x1BAC PUSH2 0x1495 JUMP JUMPDEST JUMPDEST PUSH2 0x1BB7 DUP3 SLOAD PUSH2 0x19AE JUMP JUMPDEST PUSH2 0x1BC2 DUP3 DUP3 DUP6 PUSH2 0x1AFE JUMP JUMPDEST PUSH1 0x0 PUSH1 0x20 SWAP1 POP PUSH1 0x1F DUP4 GT PUSH1 0x1 DUP2 EQ PUSH2 0x1BF5 JUMPI PUSH1 0x0 DUP5 ISZERO PUSH2 0x1BE3 JUMPI DUP3 DUP8 ADD MLOAD SWAP1 POP JUMPDEST PUSH2 0x1BED DUP6 DUP3 PUSH2 0x1B6F JUMP JUMPDEST DUP7 SSTORE POP PUSH2 0x1C55 JUMP JUMPDEST PUSH1 0x1F NOT DUP5 AND PUSH2 0x1C03 DUP7 PUSH2 0x19DF JUMP JUMPDEST PUSH1 0x0 JUMPDEST DUP3 DUP2 LT ISZERO PUSH2 0x1C2B JUMPI DUP5 DUP10 ADD MLOAD DUP3 SSTORE PUSH1 0x1 DUP3 ADD SWAP2 POP PUSH1 0x20 DUP6 ADD SWAP5 POP PUSH1 0x20 DUP2 ADD SWAP1 POP PUSH2 0x1C06 JUMP JUMPDEST DUP7 DUP4 LT ISZERO PUSH2 0x1C48 JUMPI DUP5 DUP10 ADD MLOAD PUSH2 0x1C44 PUSH1 0x1F DUP10 AND DUP3 PUSH2 0x1B51 JUMP JUMPDEST DUP4 SSTORE POP JUMPDEST PUSH1 0x1 PUSH1 0x2 DUP9 MUL ADD DUP9 SSTORE POP POP POP JUMPDEST POP POP POP POP POP POP JUMP JUMPDEST PUSH1 0x0 JUMPDEST DUP4 DUP2 LT ISZERO PUSH2 0x1C7B JUMPI DUP1 DUP3 ADD MLOAD DUP2 DUP5 ADD MSTORE PUSH1 0x20 DUP2 ADD SWAP1 POP PUSH2 0x1C60 JUMP JUMPDEST PUSH1 0x0 DUP5 DUP5 ADD MSTORE POP POP POP POP JUMP JUMPDEST PUSH1 0x0 PUSH2 0x1C92 DUP3 PUSH2 0x1974 JUMP JUMPDEST PUSH2 0x1C9C DUP2 DUP6 PUSH2 0x165C JUMP JUMPDEST SWAP4 POP PUSH2 0x1CAC DUP2 DUP6 PUSH1 0x20 DUP7 ADD PUSH2 0x1C5D JUMP JUMPDEST PUSH2 0x1CB5 DUP2 PUSH2 0x1484 JUMP JUMPDEST DUP5 ADD SWAP2 POP POP SWAP3 SWAP2 POP POP JUMP JUMPDEST PUSH1 0x0 PUSH1 0x40 DUP3 ADD SWAP1 POP PUSH2 0x1CD5 PUSH1 0x0 DUP4 ADD DUP6 PUSH2 0x1754 JUMP JUMPDEST DUP2 DUP2 SUB PUSH1 0x20 DUP4 ADD MSTORE PUSH2 0x1CE7 DUP2 DUP5 PUSH2 0x1C87 JUMP JUMPDEST SWAP1 POP SWAP4 SWAP3 POP POP POP JUMP JUMPDEST PUSH32 0x6F6E6C7920666163746F72792063616E20696E697469616C697A650000000000 PUSH1 0x0 DUP3 ADD MSTORE POP JUMP JUMPDEST PUSH1 0x0 PUSH2 0x1D26 PUSH1 0x1B DUP4 PUSH2 0x165C JUMP JUMPDEST SWAP2 POP PUSH2 0x1D31 DUP3 PUSH2 0x1CF0 JUMP JUMPDEST PUSH1 0x20 DUP3 ADD SWAP1 POP SWAP2 SWAP1 POP JUMP JUMPDEST PUSH1 0x0 PUSH1 0x20 DUP3 ADD SWAP1 POP DUP2 DUP2 SUB PUSH1 0x0 DUP4 ADD MSTORE PUSH2 0x1D55 DUP2 PUSH2 0x1D19 JUMP JUMPDEST SWAP1 POP SWAP2 SWAP1 POP JUMP JUMPDEST PUSH1 0x0 PUSH1 0x40 DUP3 ADD SWAP1 POP PUSH2 0x1D71 PUSH1 0x0 DUP4 ADD DUP6 PUSH2 0x1450 JUMP JUMPDEST PUSH2 0x1D7E PUSH1 0x20 DUP4 ADD DUP5 PUSH2 0x1754 JUMP JUMPDEST SWAP4 SWAP3 POP POP POP JUMP JUMPDEST PUSH1 0x0 PUSH1 0x20 DUP3 ADD SWAP1 POP PUSH2 0x1D9A PUSH1 0x0 DUP4 ADD DUP5 PUSH2 0x1754 JUMP JUMPDEST SWAP3 SWAP2 POP POP JUMP JUMPDEST PUSH1 0x0 PUSH2 0x1DAB DUP3 PUSH2 0x134F JUMP JUMPDEST SWAP2 POP PUSH2 0x1DB6 DUP4 PUSH2 0x134F JUMP JUMPDEST SWAP3 POP DUP3 DUP3 SUB SWAP1 POP DUP2 DUP2 GT ISZERO PUSH2 0x1DCE JUMPI PUSH2 0x1DCD PUSH2 0x178C JUMP JUMPDEST JUMPDEST SWAP3 SWAP2 POP POP JUMP INVALID LOG2 PUSH5 0x6970667358 0x22 SLT KECCAK256 0xAA 0x2D COINBASE 0x28 SLOAD 0xC MLOAD 0xCF 0x4E DELEGATECALL 0x2D STATICCALL AND INVALID STATICCALL 0xB4 0xAE 0xE8 GASPRICE 0x25 MSTORE8 0xC0 0xDC ADD TIMESTAMP PUSH24 0xE8708EB44EEE64736F6C63430008110033A2646970667358 0x22 SLT KECCAK256 PUSH12 0x713760B8B4666CA64242E964 0xDA 0xFB EXTCODECOPY GT 0xCF PUSH23 0x40D6B23E2427C7BBD4330797D764736F6C634300081100 CALLER "
				},
				"gasEstimates": {
					"creation": {
						"codeDepositCost": "1863600",
						"executionCost": "6975",
						"totalCost": "1870575"
					},
					"external": {
						"createSpace(address,bool)": "infinite",
						"numdeployed()": "2415"
					}
				},
				"methodIdentifiers": {
					"createSpace(address,bool)": "b79962a3",
					"numdeployed()": "990a7fb8"
				}
			},
			"storageLayout": {
				"storage": [
					{
						"astId": 87,
						"contract": "GovFactory.sol:GovFactory",
						"label": "spaces",
						"offset": 0,
						"slot": "0",
						"type": "t_mapping(t_address,t_address)"
					},
					{
						"astId": 90,
						"contract": "GovFactory.sol:GovFactory",
						"label": "deployed",
						"offset": 0,
						"slot": "1",
						"type": "t_uint256"
					}
				],
				"types": {
					"t_address": {
						"encoding": "inplace",
						"label": "address",
						"numberOfBytes": "20"
					},
					"t_mapping(t_address,t_address)": {
						"encoding": "mapping",
						"key": "t_address",
						"label": "mapping(address => address)",
						"numberOfBytes": "32",
						"value": "t_address"
					},
					"t_uint256": {
						"encoding": "inplace",
						"label": "uint256",
						"numberOfBytes": "32"
					}
				}
			},
			"userdoc": {
				"kind": "user",
				"methods": {},
				"version": 1
			}
		}
	}
}